{
  "_format": "hh-sol-artifact-1",
  "contractName": "NFTMarketplace",
  "sourceName": "contracts/NFTMarketplace.sol",
  "abi": [
    {
      "anonymous": false,
      "inputs": [
        {
          "indexed": true,
          "internalType": "address",
          "name": "owner",
          "type": "address"
        },
        {
          "indexed": true,
          "internalType": "address",
          "name": "approved",
          "type": "address"
        },
        {
          "indexed": true,
          "internalType": "uint256",
          "name": "tokenId",
          "type": "uint256"
        }
      ],
      "name": "Approval",
      "type": "event"
    },
    {
      "anonymous": false,
      "inputs": [
        {
          "indexed": true,
          "internalType": "address",
          "name": "owner",
          "type": "address"
        },
        {
          "indexed": true,
          "internalType": "address",
          "name": "operator",
          "type": "address"
        },
        {
          "indexed": false,
          "internalType": "bool",
          "name": "approved",
          "type": "bool"
        }
      ],
      "name": "ApprovalForAll",
      "type": "event"
    },
    {
      "anonymous": false,
      "inputs": [
        {
          "indexed": true,
          "internalType": "uint256",
          "name": "tokenId",
          "type": "uint256"
        },
        {
          "indexed": false,
          "internalType": "address",
          "name": "seller",
          "type": "address"
        },
        {
          "indexed": false,
          "internalType": "address",
          "name": "owner",
          "type": "address"
        },
        {
          "indexed": false,
          "internalType": "uint256",
          "name": "price",
          "type": "uint256"
        },
        {
          "indexed": false,
          "internalType": "string",
          "name": "tokenURI",
          "type": "string"
        },
        {
          "indexed": false,
          "internalType": "bool",
          "name": "sold",
          "type": "bool"
        }
      ],
      "name": "MarketItemCreated",
      "type": "event"
    },
    {
      "anonymous": false,
      "inputs": [
        {
          "indexed": true,
          "internalType": "bytes32",
          "name": "role",
          "type": "bytes32"
        },
        {
          "indexed": true,
          "internalType": "bytes32",
          "name": "previousAdminRole",
          "type": "bytes32"
        },
        {
          "indexed": true,
          "internalType": "bytes32",
          "name": "newAdminRole",
          "type": "bytes32"
        }
      ],
      "name": "RoleAdminChanged",
      "type": "event"
    },
    {
      "anonymous": false,
      "inputs": [
        {
          "indexed": true,
          "internalType": "bytes32",
          "name": "role",
          "type": "bytes32"
        },
        {
          "indexed": true,
          "internalType": "address",
          "name": "account",
          "type": "address"
        },
        {
          "indexed": true,
          "internalType": "address",
          "name": "sender",
          "type": "address"
        }
      ],
      "name": "RoleGranted",
      "type": "event"
    },
    {
      "anonymous": false,
      "inputs": [
        {
          "indexed": true,
          "internalType": "bytes32",
          "name": "role",
          "type": "bytes32"
        },
        {
          "indexed": true,
          "internalType": "address",
          "name": "account",
          "type": "address"
        },
        {
          "indexed": true,
          "internalType": "address",
          "name": "sender",
          "type": "address"
        }
      ],
      "name": "RoleRevoked",
      "type": "event"
    },
    {
      "anonymous": false,
      "inputs": [
        {
          "indexed": true,
          "internalType": "address",
          "name": "from",
          "type": "address"
        },
        {
          "indexed": true,
          "internalType": "address",
          "name": "to",
          "type": "address"
        },
        {
          "indexed": true,
          "internalType": "uint256",
          "name": "tokenId",
          "type": "uint256"
        }
      ],
      "name": "Transfer",
      "type": "event"
    },
    {
      "inputs": [],
      "name": "DEFAULT_ADMIN_ROLE",
      "outputs": [
        {
          "internalType": "bytes32",
          "name": "",
          "type": "bytes32"
        }
      ],
      "stateMutability": "view",
      "type": "function"
    },
    {
      "inputs": [],
      "name": "MINTER_ROLE",
      "outputs": [
        {
          "internalType": "bytes32",
          "name": "",
          "type": "bytes32"
        }
      ],
      "stateMutability": "view",
      "type": "function"
    },
    {
      "inputs": [
        {
          "internalType": "address",
          "name": "to",
          "type": "address"
        },
        {
          "internalType": "uint256",
          "name": "tokenId",
          "type": "uint256"
        }
      ],
      "name": "approve",
      "outputs": [],
      "stateMutability": "nonpayable",
      "type": "function"
    },
    {
      "inputs": [],
      "name": "availableToWithdraw",
      "outputs": [
        {
          "internalType": "uint256",
          "name": "",
          "type": "uint256"
        }
      ],
      "stateMutability": "view",
      "type": "function"
    },
    {
      "inputs": [
        {
          "internalType": "address",
          "name": "owner",
          "type": "address"
        }
      ],
      "name": "balanceOf",
      "outputs": [
        {
          "internalType": "uint256",
          "name": "",
          "type": "uint256"
        }
      ],
      "stateMutability": "view",
      "type": "function"
    },
    {
      "inputs": [
        {
          "internalType": "uint256",
          "name": "tokenId",
          "type": "uint256"
        }
      ],
      "name": "createMarketSale",
      "outputs": [],
      "stateMutability": "payable",
      "type": "function"
    },
    {
      "inputs": [
        {
          "components": [
            {
              "internalType": "uint256",
              "name": "tokenId",
              "type": "uint256"
            },
            {
              "internalType": "uint256",
              "name": "price",
              "type": "uint256"
            },
            {
              "internalType": "string",
              "name": "uri",
              "type": "string"
            },
            {
              "internalType": "address",
              "name": "creator",
              "type": "address"
            },
            {
              "internalType": "bytes",
              "name": "signature",
              "type": "bytes"
            }
          ],
          "internalType": "struct NFTMarketplace.NFTVoucher",
          "name": "voucher",
          "type": "tuple"
        }
      ],
      "name": "createToken",
      "outputs": [
        {
          "internalType": "uint256",
          "name": "",
          "type": "uint256"
        }
      ],
      "stateMutability": "payable",
      "type": "function"
    },
    {
      "inputs": [
        {
          "internalType": "uint256",
          "name": "tokenId",
          "type": "uint256"
        }
      ],
      "name": "fetchMarketItem",
      "outputs": [
        {
          "components": [
            {
              "internalType": "uint256",
              "name": "tokenId",
              "type": "uint256"
            },
            {
              "internalType": "address payable",
              "name": "seller",
              "type": "address"
            },
            {
              "internalType": "address payable",
              "name": "owner",
              "type": "address"
            },
            {
              "internalType": "uint256",
              "name": "price",
              "type": "uint256"
            },
            {
              "internalType": "string",
              "name": "tokenURI",
              "type": "string"
            },
            {
              "internalType": "bool",
              "name": "sold",
              "type": "bool"
            }
          ],
          "internalType": "struct NFTMarketplace.MarketItem",
          "name": "",
          "type": "tuple"
        }
      ],
      "stateMutability": "view",
      "type": "function"
    },
    {
      "inputs": [],
      "name": "fetchMarketItems",
      "outputs": [
        {
          "components": [
            {
              "internalType": "uint256",
              "name": "tokenId",
              "type": "uint256"
            },
            {
              "internalType": "address payable",
              "name": "seller",
              "type": "address"
            },
            {
              "internalType": "address payable",
              "name": "owner",
              "type": "address"
            },
            {
              "internalType": "uint256",
              "name": "price",
              "type": "uint256"
            },
            {
              "internalType": "string",
              "name": "tokenURI",
              "type": "string"
            },
            {
              "internalType": "bool",
              "name": "sold",
              "type": "bool"
            }
          ],
          "internalType": "struct NFTMarketplace.MarketItem[]",
          "name": "",
          "type": "tuple[]"
        }
      ],
      "stateMutability": "view",
      "type": "function"
    },
    {
      "inputs": [],
      "name": "fetchMyNFTs",
      "outputs": [
        {
          "components": [
            {
              "internalType": "uint256",
              "name": "tokenId",
              "type": "uint256"
            },
            {
              "internalType": "address payable",
              "name": "seller",
              "type": "address"
            },
            {
              "internalType": "address payable",
              "name": "owner",
              "type": "address"
            },
            {
              "internalType": "uint256",
              "name": "price",
              "type": "uint256"
            },
            {
              "internalType": "string",
              "name": "tokenURI",
              "type": "string"
            },
            {
              "internalType": "bool",
              "name": "sold",
              "type": "bool"
            }
          ],
          "internalType": "struct NFTMarketplace.MarketItem[]",
          "name": "",
          "type": "tuple[]"
        }
      ],
      "stateMutability": "view",
      "type": "function"
    },
    {
      "inputs": [
        {
          "internalType": "uint256",
          "name": "tokenId",
          "type": "uint256"
        }
      ],
      "name": "getApproved",
      "outputs": [
        {
          "internalType": "address",
          "name": "",
          "type": "address"
        }
      ],
      "stateMutability": "view",
      "type": "function"
    },
    {
      "inputs": [],
      "name": "getChainID",
      "outputs": [
        {
          "internalType": "uint256",
          "name": "",
          "type": "uint256"
        }
      ],
      "stateMutability": "view",
      "type": "function"
    },
    {
      "inputs": [],
      "name": "getCurrentTokenId",
      "outputs": [
        {
          "internalType": "uint256",
          "name": "",
          "type": "uint256"
        }
      ],
      "stateMutability": "view",
      "type": "function"
    },
    {
      "inputs": [
        {
          "internalType": "bytes32",
          "name": "role",
          "type": "bytes32"
        }
      ],
      "name": "getRoleAdmin",
      "outputs": [
        {
          "internalType": "bytes32",
          "name": "",
          "type": "bytes32"
        }
      ],
      "stateMutability": "view",
      "type": "function"
    },
    {
      "inputs": [
        {
          "internalType": "bytes32",
          "name": "role",
          "type": "bytes32"
        },
        {
          "internalType": "address",
          "name": "account",
          "type": "address"
        }
      ],
      "name": "grantRole",
      "outputs": [],
      "stateMutability": "nonpayable",
      "type": "function"
    },
    {
      "inputs": [
        {
          "internalType": "bytes32",
          "name": "role",
          "type": "bytes32"
        },
        {
          "internalType": "address",
          "name": "account",
          "type": "address"
        }
      ],
      "name": "hasRole",
      "outputs": [
        {
          "internalType": "bool",
          "name": "",
          "type": "bool"
        }
      ],
      "stateMutability": "view",
      "type": "function"
    },
    {
      "inputs": [
        {
          "internalType": "address payable",
          "name": "minter",
          "type": "address"
        }
      ],
      "name": "initialize",
      "outputs": [],
      "stateMutability": "nonpayable",
      "type": "function"
    },
    {
      "inputs": [
        {
          "internalType": "address",
          "name": "owner",
          "type": "address"
        },
        {
          "internalType": "address",
          "name": "operator",
          "type": "address"
        }
      ],
      "name": "isApprovedForAll",
      "outputs": [
        {
          "internalType": "bool",
          "name": "",
          "type": "bool"
        }
      ],
      "stateMutability": "view",
      "type": "function"
    },
    {
      "inputs": [],
      "name": "name",
      "outputs": [
        {
          "internalType": "string",
          "name": "",
          "type": "string"
        }
      ],
      "stateMutability": "view",
      "type": "function"
    },
    {
      "inputs": [
        {
          "internalType": "uint256",
          "name": "tokenId",
          "type": "uint256"
        }
      ],
      "name": "ownerOf",
      "outputs": [
        {
          "internalType": "address",
          "name": "",
          "type": "address"
        }
      ],
      "stateMutability": "view",
      "type": "function"
    },
    {
      "inputs": [
        {
          "internalType": "bytes32",
          "name": "role",
          "type": "bytes32"
        },
        {
          "internalType": "address",
          "name": "account",
          "type": "address"
        }
      ],
      "name": "renounceRole",
      "outputs": [],
      "stateMutability": "nonpayable",
      "type": "function"
    },
    {
      "inputs": [
        {
          "internalType": "bytes32",
          "name": "role",
          "type": "bytes32"
        },
        {
          "internalType": "address",
          "name": "account",
          "type": "address"
        }
      ],
      "name": "revokeRole",
      "outputs": [],
      "stateMutability": "nonpayable",
      "type": "function"
    },
    {
      "inputs": [
        {
          "internalType": "address",
          "name": "from",
          "type": "address"
        },
        {
          "internalType": "address",
          "name": "to",
          "type": "address"
        },
        {
          "internalType": "uint256",
          "name": "tokenId",
          "type": "uint256"
        }
      ],
      "name": "safeTransferFrom",
      "outputs": [],
      "stateMutability": "nonpayable",
      "type": "function"
    },
    {
      "inputs": [
        {
          "internalType": "address",
          "name": "from",
          "type": "address"
        },
        {
          "internalType": "address",
          "name": "to",
          "type": "address"
        },
        {
          "internalType": "uint256",
          "name": "tokenId",
          "type": "uint256"
        },
        {
          "internalType": "bytes",
          "name": "_data",
          "type": "bytes"
        }
      ],
      "name": "safeTransferFrom",
      "outputs": [],
      "stateMutability": "nonpayable",
      "type": "function"
    },
    {
      "inputs": [
        {
          "internalType": "address",
          "name": "operator",
          "type": "address"
        },
        {
          "internalType": "bool",
          "name": "approved",
          "type": "bool"
        }
      ],
      "name": "setApprovalForAll",
      "outputs": [],
      "stateMutability": "nonpayable",
      "type": "function"
    },
    {
      "inputs": [
        {
          "internalType": "bytes4",
          "name": "interfaceId",
          "type": "bytes4"
        }
      ],
      "name": "supportsInterface",
      "outputs": [
        {
          "internalType": "bool",
          "name": "",
          "type": "bool"
        }
      ],
      "stateMutability": "view",
      "type": "function"
    },
    {
      "inputs": [],
      "name": "symbol",
      "outputs": [
        {
          "internalType": "string",
          "name": "",
          "type": "string"
        }
      ],
      "stateMutability": "view",
      "type": "function"
    },
    {
      "inputs": [],
      "name": "testMarketItems",
      "outputs": [
        {
          "components": [
            {
              "internalType": "uint256",
              "name": "tokenId",
              "type": "uint256"
            },
            {
              "internalType": "address payable",
              "name": "seller",
              "type": "address"
            },
            {
              "internalType": "address payable",
              "name": "owner",
              "type": "address"
            },
            {
              "internalType": "uint256",
              "name": "price",
              "type": "uint256"
            },
            {
              "internalType": "string",
              "name": "tokenURI",
              "type": "string"
            },
            {
              "internalType": "bool",
              "name": "sold",
              "type": "bool"
            }
          ],
          "internalType": "struct NFTMarketplace.MarketItem[]",
          "name": "",
          "type": "tuple[]"
        }
      ],
      "stateMutability": "view",
      "type": "function"
    },
    {
      "inputs": [
        {
          "internalType": "uint256",
          "name": "tokenId",
          "type": "uint256"
        }
      ],
      "name": "tokenURI",
      "outputs": [
        {
          "internalType": "string",
          "name": "",
          "type": "string"
        }
      ],
      "stateMutability": "view",
      "type": "function"
    },
    {
      "inputs": [
        {
          "internalType": "address",
          "name": "from",
          "type": "address"
        },
        {
          "internalType": "address",
          "name": "to",
          "type": "address"
        },
        {
          "internalType": "uint256",
          "name": "tokenId",
          "type": "uint256"
        }
      ],
      "name": "transferFrom",
      "outputs": [],
      "stateMutability": "nonpayable",
      "type": "function"
    },
    {
      "inputs": [],
      "name": "withdraw",
      "outputs": [],
      "stateMutability": "nonpayable",
      "type": "function"
    }
  ],
  "bytecode": "0x608060405234801561001057600080fd5b5061362f806100206000396000f3fe6080604052600436106101d85760003560e01c80635c0fedb511610102578063be9af53611610095578063d539139311610064578063d539139314610532578063d547741f14610554578063e322ad2b14610574578063e985e9c51461059757600080fd5b8063be9af536146104ca578063c3a8c30c146104dd578063c4d66de8146104f2578063c87b56dd1461051257600080fd5b806395d89b41116100d157806395d89b4114610460578063a217fddf14610475578063a22cb4651461048a578063b88d4fde146104aa57600080fd5b80635c0fedb5146103ed5780636352211e1461040057806370a082311461042057806391d148541461044057600080fd5b8063248a9ca31161017a5780633ccfd60b116101495780633ccfd60b1461039057806342842e0e146103a557806356189236146103c5578063564b81ef146103da57600080fd5b8063248a9ca3146102e55780632a45b250146103235780632f2ff15d1461035057806336568abe1461037057600080fd5b8063095ea7b3116101b6578063095ea7b31461026c5780630f08efe01461028e578063202e3740146102b057806323b872dd146102c557600080fd5b806301ffc9a7146101dd57806306fdde0314610212578063081812fc14610234575b600080fd5b3480156101e957600080fd5b506101fd6101f836600461306e565b6105e0565b60405190151581526020015b60405180910390f35b34801561021e57600080fd5b50610227610600565b6040516102099190613304565b34801561024057600080fd5b5061025461024f366004613032565b610692565b6040516001600160a01b039091168152602001610209565b34801561027857600080fd5b5061028c610287366004613007565b61071f565b005b34801561029a57600080fd5b506102a3610835565b60405161020991906132a3565b3480156102bc57600080fd5b506102a3610a6b565b3480156102d157600080fd5b5061028c6102e0366004612ebd565b610cde565b3480156102f157600080fd5b50610315610300366004613032565b600090815260fd602052604090206001015490565b604051908152602001610209565b34801561032f57600080fd5b5061034361033e366004613032565b610d0f565b6040516102099190613405565b34801561035c57600080fd5b5061028c61036b36600461304a565b610e16565b34801561037c57600080fd5b5061028c61038b36600461304a565b610e3c565b34801561039c57600080fd5b5061028c610eba565b3480156103b157600080fd5b5061028c6103c0366004612ebd565b610f6e565b3480156103d157600080fd5b50610315610f89565b3480156103e657600080fd5b5046610315565b6103156103fb3660046130a6565b610f9a565b34801561040c57600080fd5b5061025461041b366004613032565b61110d565b34801561042c57600080fd5b5061031561043b366004612e69565b611184565b34801561044c57600080fd5b506101fd61045b36600461304a565b61120b565b34801561046c57600080fd5b50610227611236565b34801561048157600080fd5b50610315600081565b34801561049657600080fd5b5061028c6104a5366004612fd6565b611245565b3480156104b657600080fd5b5061028c6104c5366004612efd565b611250565b61028c6104d8366004613032565b611288565b3480156104e957600080fd5b506102a361143c565b3480156104fe57600080fd5b5061028c61050d366004612e69565b611669565b34801561051e57600080fd5b5061022761052d366004613032565b6117dc565b34801561053e57600080fd5b506103156000805160206135da83398151915281565b34801561056057600080fd5b5061028c61056f36600461304a565b611953565b34801561058057600080fd5b503360009081526101316020526040902054610315565b3480156105a357600080fd5b506101fd6105b2366004612e85565b6001600160a01b039182166000908152606a6020908152604080832093909416825291909152205460ff1690565b60006105eb82611979565b806105fa57506105fa826119c9565b92915050565b60606065805461060f90613502565b80601f016020809104026020016040519081016040528092919081815260200182805461063b90613502565b80156106885780601f1061065d57610100808354040283529160200191610688565b820191906000526020600020905b81548152906001019060200180831161066b57829003601f168201915b5050505050905090565b600061069d826119ee565b6107035760405162461bcd60e51b815260206004820152602c60248201527f4552433732313a20617070726f76656420717565727920666f72206e6f6e657860448201526b34b9ba32b73a103a37b5b2b760a11b60648201526084015b60405180910390fd5b506000908152606960205260409020546001600160a01b031690565b600061072a8261110d565b9050806001600160a01b0316836001600160a01b031614156107985760405162461bcd60e51b815260206004820152602160248201527f4552433732313a20617070726f76616c20746f2063757272656e74206f776e656044820152603960f91b60648201526084016106fa565b336001600160a01b03821614806107b457506107b481336105b2565b6108265760405162461bcd60e51b815260206004820152603860248201527f4552433732313a20617070726f76652063616c6c6572206973206e6f74206f7760448201527f6e6572206e6f7220617070726f76656420666f7220616c6c000000000000000060648201526084016106fa565b6108308383611a0b565b505050565b6060600061084361012f5490565b905060006108516101305490565b61012f5461085f91906134a8565b90506000808267ffffffffffffffff81111561088b57634e487b7160e01b600052604160045260246000fd5b6040519080825280602002602001820160405280156108c457816020015b6108b1612d9c565b8152602001906001900390816108a95790505b50905060005b84811015610a62573061013360006108e384600161345d565b81526020810191909152604001600020600201546001600160a01b03161415610a5057600061091382600161345d565b60008181526101336020908152604091829020825160c0810184528154815260018201546001600160a01b03908116938201939093526002820154909216928201929092526003820154606082015260048201805493945091929091839160808401919061098090613502565b80601f01602080910402602001604051908101604052809291908181526020018280546109ac90613502565b80156109f95780601f106109ce576101008083540402835291602001916109f9565b820191906000526020600020905b8154815290600101906020018083116109dc57829003601f168201915b50505091835250506005919091015460ff1615156020909101528451859087908110610a3557634e487b7160e01b600052603260045260246000fd5b6020908102919091010152610a4b60018661345d565b945050505b80610a5a8161353d565b9150506108ca565b50949350505050565b60606000610a7961012f5490565b905060008060005b83811015610add57336101336000610a9a84600161345d565b81526020810191909152604001600020600201546001600160a01b03161415610acb57610ac860018461345d565b92505b80610ad58161353d565b915050610a81565b5060008267ffffffffffffffff811115610b0757634e487b7160e01b600052604160045260246000fd5b604051908082528060200260200182016040528015610b4057816020015b610b2d612d9c565b815260200190600190039081610b255790505b50905060005b84811015610a6257336101336000610b5f84600161345d565b81526020810191909152604001600020600201546001600160a01b03161415610ccc576000610b8f82600161345d565b60008181526101336020908152604091829020825160c0810184528154815260018201546001600160a01b039081169382019390935260028201549092169282019290925260038201546060820152600482018054939450919290918391608084019190610bfc90613502565b80601f0160208091040260200160405190810160405280929190818152602001828054610c2890613502565b8015610c755780601f10610c4a57610100808354040283529160200191610c75565b820191906000526020600020905b815481529060010190602001808311610c5857829003601f168201915b50505091835250506005919091015460ff1615156020909101528451859087908110610cb157634e487b7160e01b600052603260045260246000fd5b6020908102919091010152610cc760018661345d565b945050505b80610cd68161353d565b915050610b46565b610ce83382611a79565b610d045760405162461bcd60e51b81526004016106fa90613369565b610830838383611b5f565b610d17612d9c565b60008281526101336020908152604091829020825160c0810184528154815260018201546001600160a01b03908116938201939093526002820154909216928201929092526003820154606082015260048201805483916080840191610d7c90613502565b80601f0160208091040260200160405190810160405280929190818152602001828054610da890613502565b8015610df55780601f10610dca57610100808354040283529160200191610df5565b820191906000526020600020905b815481529060010190602001808311610dd857829003601f168201915b50505091835250506005919091015460ff1615156020909101529392505050565b600082815260fd6020526040902060010154610e328133611cfb565b6108308383611d5f565b6001600160a01b0381163314610eac5760405162461bcd60e51b815260206004820152602f60248201527f416363657373436f6e74726f6c3a2063616e206f6e6c792072656e6f756e636560448201526e103937b632b9903337b91039b2b63360891b60648201526084016106fa565b610eb68282611de5565b5050565b610ed26000805160206135da8339815191523361120b565b610f2a5760405162461bcd60e51b8152602060048201526024808201527f4f6e6c7920617574686f72697a6564206d696e746572732063616e20776974686044820152636472617760e01b60648201526084016106fa565b336000818152610131602052604080822080549083905590519091839183156108fc0291849190818181858888f19350505050158015610830573d6000803e3d6000fd5b61083083838360405180602001604052806000815250611250565b6000610f9561012f5490565b905090565b600080610fa683611e4c565b9050610fc06000805160206135da8339815191528261120b565b6110165760405162461bcd60e51b815260206004820152602160248201527f5369676e617475726520696e76616c6964206f7220756e617574686f72697a656044820152601960fa1b60648201526084016106fa565b61012f5461102590600161345d565b8335146110895760405162461bcd60e51b815260206004820152602c60248201527f546f6b656e496420696e2074686520766f7563686572206973206e6f7420766160448201526b6c696420616e79206d6f726560a01b60648201526084016106fa565b61109861012f80546001019055565b60006110a461012f5490565b90506111068160208601356110bc6040880188613418565b8080601f016020809104026020016040519081016040528093929190818152602001838380828437600092019190915250611101925050506080890160608a01612e69565b611ea5565b9392505050565b6000818152606760205260408120546001600160a01b0316806105fa5760405162461bcd60e51b815260206004820152602960248201527f4552433732313a206f776e657220717565727920666f72206e6f6e657869737460448201526832b73a103a37b5b2b760b91b60648201526084016106fa565b60006001600160a01b0382166111ef5760405162461bcd60e51b815260206004820152602a60248201527f4552433732313a2062616c616e636520717565727920666f7220746865207a65604482015269726f206164647265737360b01b60648201526084016106fa565b506001600160a01b031660009081526068602052604090205490565b600091825260fd602090815260408084206001600160a01b0393909316845291905290205460ff1690565b60606066805461060f90613502565b610eb6338383611fa5565b61125a3383611a79565b6112765760405162461bcd60e51b81526004016106fa90613369565b61128284848484612074565b50505050565b60008181526101336020526040902060038101546001909101546001600160a01b0316348211156112fb5760405162461bcd60e51b815260206004820152601c60248201527f496e73756666696369656e742066756e647320746f2072656465656d0000000060448201526064016106fa565b61130581846120a7565b60008381526101336020526040902060040180546113ab91859161132890613502565b80601f016020809104026020016040519081016040528092919081815260200182805461135490613502565b80156113a15780601f10611376576101008083540402835291602001916113a1565b820191906000526020600020905b81548152906001019060200180831161138457829003601f168201915b50505050506121da565b6000838152610133602052604090206002810180546001600160a01b0319908116331790915560058201805460ff19166001908117909155909101805490911690556113fc61013080546001019055565b611407813385611b5f565b6040516001600160a01b038216903480156108fc02916000818181858888f19350505050158015611282573d6000803e3d6000fd5b6060600061144a61012f5490565b905060006114586101305490565b61012f5461146691906134a8565b90506000808267ffffffffffffffff81111561149257634e487b7160e01b600052604160045260246000fd5b6040519080825280602002602001820160405280156114cb57816020015b6114b8612d9c565b8152602001906001900390816114b05790505b50905060005b84811015610a62573061013360006114ea84600161345d565b81526020810191909152604001600020600201546001600160a01b0316141561165757600061151a82600161345d565b60008181526101336020908152604091829020825160c0810184528154815260018201546001600160a01b03908116938201939093526002820154909216928201929092526003820154606082015260048201805493945091929091839160808401919061158790613502565b80601f01602080910402602001604051908101604052809291908181526020018280546115b390613502565b80156116005780601f106115d557610100808354040283529160200191611600565b820191906000526020600020905b8154815290600101906020018083116115e357829003601f168201915b50505091835250506005919091015460ff161515602090910152845185908790811061163c57634e487b7160e01b600052603260045260246000fd5b602090810291909101015261165260018661345d565b945050505b806116618161353d565b9150506114d1565b600054610100900460ff166116845760005460ff1615611688565b303b155b6116eb5760405162461bcd60e51b815260206004820152602e60248201527f496e697469616c697a61626c653a20636f6e747261637420697320616c72656160448201526d191e481a5b9a5d1a585b1a5e995960921b60648201526084016106fa565b600054610100900460ff1615801561170d576000805461ffff19166101011790555b611715612265565b61172d6000805160206135da8339815191528361228e565b61177d60405180604001604052806013815260200172155adc985a5b9a585b905c9d1a5cdd1cd39195606a1b8152506040518060400160405280600381526020016229a62b60e91b815250612298565b6117c76040518060400160405280600f81526020016e2630bd3ca7232a16ab37bab1b432b960891b815250604051806040016040528060018152602001603160f81b8152506122c9565b8015610eb6576000805461ff00191690555050565b60606117e7826119ee565b61184d5760405162461bcd60e51b815260206004820152603160248201527f45524337323155524953746f726167653a2055524920717565727920666f72206044820152703737b732bc34b9ba32b73a103a37b5b2b760791b60648201526084016106fa565b6000828152609760205260408120805461186690613502565b80601f016020809104026020016040519081016040528092919081815260200182805461189290613502565b80156118df5780601f106118b4576101008083540402835291602001916118df565b820191906000526020600020905b8154815290600101906020018083116118c257829003601f168201915b5050505050905060006118fd60408051602081019091526000815290565b9050805160001415611910575092915050565b81511561194257808260405160200161192a92919061317b565b60405160208183030381529060405292505050919050565b61194b846122fa565b949350505050565b600082815260fd602052604090206001015461196f8133611cfb565b6108308383611de5565b60006001600160e01b031982166380ac58cd60e01b14806119aa57506001600160e01b03198216635b5e139f60e01b145b806105fa57506301ffc9a760e01b6001600160e01b03198316146105fa565b60006001600160e01b03198216637965db0b60e01b14806105fa57506105fa82611979565b6000908152606760205260409020546001600160a01b0316151590565b600081815260696020526040902080546001600160a01b0319166001600160a01b0384169081179091558190611a408261110d565b6001600160a01b03167f8c5be1e5ebec7d5bd14f71427d1e84f3dd0314c0f7b2291e5b200ac8c7c3b92560405160405180910390a45050565b6000611a84826119ee565b611ae55760405162461bcd60e51b815260206004820152602c60248201527f4552433732313a206f70657261746f7220717565727920666f72206e6f6e657860448201526b34b9ba32b73a103a37b5b2b760a11b60648201526084016106fa565b6000611af08361110d565b9050806001600160a01b0316846001600160a01b03161480611b2b5750836001600160a01b0316611b2084610692565b6001600160a01b0316145b8061194b57506001600160a01b038082166000908152606a602090815260408083209388168352929052205460ff1661194b565b826001600160a01b0316611b728261110d565b6001600160a01b031614611bd65760405162461bcd60e51b815260206004820152602560248201527f4552433732313a207472616e736665722066726f6d20696e636f72726563742060448201526437bbb732b960d91b60648201526084016106fa565b6001600160a01b038216611c385760405162461bcd60e51b8152602060048201526024808201527f4552433732313a207472616e7366657220746f20746865207a65726f206164646044820152637265737360e01b60648201526084016106fa565b611c43600082611a0b565b6001600160a01b0383166000908152606860205260408120805460019290611c6c9084906134a8565b90915550506001600160a01b0382166000908152606860205260408120805460019290611c9a90849061345d565b909155505060008181526067602052604080822080546001600160a01b0319166001600160a01b0386811691821790925591518493918716917fddf252ad1be2c89b69c2b068fc378daa952ba7f163c4a11628f55a4df523b3ef91a4505050565b611d05828261120b565b610eb657611d1d816001600160a01b031660146123d1565b611d288360206123d1565b604051602001611d399291906131aa565b60408051601f198184030181529082905262461bcd60e51b82526106fa91600401613304565b611d69828261120b565b610eb657600082815260fd602090815260408083206001600160a01b03851684529091529020805460ff19166001179055611da13390565b6001600160a01b0316816001600160a01b0316837f2f8788117e7eff1d82e926ec794901d17c78024a50270940304540a733656f0d60405160405180910390a45050565b611def828261120b565b15610eb657600082815260fd602090815260408083206001600160a01b0385168085529252808320805460ff1916905551339285917ff6391f5c32d9c69d2a47ea670b442974b53935d1edc7fd64eb21e047a839171b9190a45050565b600080611e58836125b3565b905061110681611e6b6080860186613418565b8080601f01602080910402602001604051908101604052809392919081815260200183838082843760009201919091525061265f92505050565b6040805160c0810182528581526001600160a01b038084166020808401918252308486019081526060850189815260808601898152600060a088018190528c81526101338552979097208651815593516001850180549187166001600160a01b03199283161790559151600285018054919096169216919091179093559151600382015592518051929392611f409260048501920190612dd0565b5060a091909101516005909101805460ff191691151591909117905560405184907fe4958780fe3b3f0505e410985e1047d8533d6d15ac3fb1c69558c491ed1f996590611f9790849030908890889060009061325c565b60405180910390a250505050565b816001600160a01b0316836001600160a01b031614156120075760405162461bcd60e51b815260206004820152601960248201527f4552433732313a20617070726f766520746f2063616c6c65720000000000000060448201526064016106fa565b6001600160a01b038381166000818152606a6020908152604080832094871680845294825291829020805460ff191686151590811790915591519182527f17307eab39ab6107e8899845ad3d59bd9653f200f220920489ca2b5937696c31910160405180910390a3505050565b61207f848484611b5f565b61208b84848484612683565b6112825760405162461bcd60e51b81526004016106fa90613317565b6001600160a01b0382166120fd5760405162461bcd60e51b815260206004820181905260248201527f4552433732313a206d696e7420746f20746865207a65726f206164647265737360448201526064016106fa565b612106816119ee565b156121535760405162461bcd60e51b815260206004820152601c60248201527f4552433732313a20746f6b656e20616c7265616479206d696e7465640000000060448201526064016106fa565b6001600160a01b038216600090815260686020526040812080546001929061217c90849061345d565b909155505060008181526067602052604080822080546001600160a01b0319166001600160a01b03861690811790915590518392907fddf252ad1be2c89b69c2b068fc378daa952ba7f163c4a11628f55a4df523b3ef908290a45050565b6121e3826119ee565b6122465760405162461bcd60e51b815260206004820152602e60248201527f45524337323155524953746f726167653a2055524920736574206f66206e6f6e60448201526d32bc34b9ba32b73a103a37b5b2b760911b60648201526084016106fa565b6000828152609760209081526040909120825161083092840190612dd0565b600054610100900460ff1661228c5760405162461bcd60e51b81526004016106fa906133ba565b565b610eb68282611d5f565b600054610100900460ff166122bf5760405162461bcd60e51b81526004016106fa906133ba565b610eb68282612790565b600054610100900460ff166122f05760405162461bcd60e51b81526004016106fa906133ba565b610eb682826127de565b6060612305826119ee565b6123695760405162461bcd60e51b815260206004820152602f60248201527f4552433732314d657461646174613a2055524920717565727920666f72206e6f60448201526e3732bc34b9ba32b73a103a37b5b2b760891b60648201526084016106fa565b600061238060408051602081019091526000815290565b905060008151116123a05760405180602001604052806000815250611106565b806123aa8461281f565b6040516020016123bb92919061317b565b6040516020818303038152906040529392505050565b606060006123e0836002613489565b6123eb90600261345d565b67ffffffffffffffff81111561241157634e487b7160e01b600052604160045260246000fd5b6040519080825280601f01601f19166020018201604052801561243b576020820181803683370190505b509050600360fc1b8160008151811061246457634e487b7160e01b600052603260045260246000fd5b60200101906001600160f81b031916908160001a905350600f60fb1b816001815181106124a157634e487b7160e01b600052603260045260246000fd5b60200101906001600160f81b031916908160001a90535060006124c5846002613489565b6124d090600161345d565b90505b6001811115612564576f181899199a1a9b1b9c1cb0b131b232b360811b85600f166010811061251257634e487b7160e01b600052603260045260246000fd5b1a60f81b82828151811061253657634e487b7160e01b600052603260045260246000fd5b60200101906001600160f81b031916908160001a90535060049490941c9361255d816134eb565b90506124d3565b5083156111065760405162461bcd60e51b815260206004820181905260248201527f537472696e67733a20686578206c656e67746820696e73756666696369656e7460448201526064016106fa565b60006105fa7f13528247670adc1fd46d25137430274d79920634cb4b5d6a114be7670a1ae554833560208501356125ed6040870187613418565b6040516125fb92919061316b565b6040519081900390206126146080880160608901612e69565b604080516020810196909652850193909352606084019190915260808301526001600160a01b031660a082015260c00160405160208183030381529060405280519060200120612939565b600080600061266e8585612987565b9150915061267b816129f7565b509392505050565b60006001600160a01b0384163b1561278557604051630a85bd0160e11b81526001600160a01b0385169063150b7a02906126c790339089908890889060040161321f565b602060405180830381600087803b1580156126e157600080fd5b505af1925050508015612711575060408051601f3d908101601f1916820190925261270e9181019061308a565b60015b61276b573d80801561273f576040519150601f19603f3d011682016040523d82523d6000602084013e612744565b606091505b5080516127635760405162461bcd60e51b81526004016106fa90613317565b805181602001fd5b6001600160e01b031916630a85bd0160e11b14905061194b565b506001949350505050565b600054610100900460ff166127b75760405162461bcd60e51b81526004016106fa906133ba565b81516127ca906065906020850190612dd0565b508051610830906066906020840190612dd0565b600054610100900460ff166128055760405162461bcd60e51b81526004016106fa906133ba565b81516020928301208151919092012060c99190915560ca55565b6060816128435750506040805180820190915260018152600360fc1b602082015290565b8160005b811561286d57806128578161353d565b91506128669050600a83613475565b9150612847565b60008167ffffffffffffffff81111561289657634e487b7160e01b600052604160045260246000fd5b6040519080825280601f01601f1916602001820160405280156128c0576020820181803683370190505b5090505b841561194b576128d56001836134a8565b91506128e2600a86613558565b6128ed90603061345d565b60f81b81838151811061291057634e487b7160e01b600052603260045260246000fd5b60200101906001600160f81b031916908160001a905350612932600a86613475565b94506128c4565b60006105fa612946612bfb565b8360405161190160f01b6020820152602281018390526042810182905260009060620160405160208183030381529060405280519060200120905092915050565b6000808251604114156129be5760208301516040840151606085015160001a6129b287828585612c76565b945094505050506129f0565b8251604014156129e857602083015160408401516129dd868383612d63565b9350935050506129f0565b506000905060025b9250929050565b6000816004811115612a1957634e487b7160e01b600052602160045260246000fd5b1415612a225750565b6001816004811115612a4457634e487b7160e01b600052602160045260246000fd5b1415612a925760405162461bcd60e51b815260206004820152601860248201527f45434453413a20696e76616c6964207369676e6174757265000000000000000060448201526064016106fa565b6002816004811115612ab457634e487b7160e01b600052602160045260246000fd5b1415612b025760405162461bcd60e51b815260206004820152601f60248201527f45434453413a20696e76616c6964207369676e6174757265206c656e6774680060448201526064016106fa565b6003816004811115612b2457634e487b7160e01b600052602160045260246000fd5b1415612b7d5760405162461bcd60e51b815260206004820152602260248201527f45434453413a20696e76616c6964207369676e6174757265202773272076616c604482015261756560f01b60648201526084016106fa565b6004816004811115612b9f57634e487b7160e01b600052602160045260246000fd5b1415612bf85760405162461bcd60e51b815260206004820152602260248201527f45434453413a20696e76616c6964207369676e6174757265202776272076616c604482015261756560f01b60648201526084016106fa565b50565b6000610f957f8b73c3c69bb8fe3d512ecc4cf759cc79239f7b179b0ffacaa9a75d522b39400f612c2a60c95490565b60ca546040805160208101859052908101839052606081018290524660808201523060a082015260009060c0016040516020818303038152906040528051906020012090509392505050565b6000807f7fffffffffffffffffffffffffffffff5d576e7357a4501ddfe92f46681b20a0831115612cad5750600090506003612d5a565b8460ff16601b14158015612cc557508460ff16601c14155b15612cd65750600090506004612d5a565b6040805160008082526020820180845289905260ff881692820192909252606081018690526080810185905260019060a0016020604051602081039080840390855afa158015612d2a573d6000803e3d6000fd5b5050604051601f1901519150506001600160a01b038116612d5357600060019250925050612d5a565b9150600090505b94509492505050565b6000806001600160ff1b03831681612d8060ff86901c601b61345d565b9050612d8e87828885612c76565b935093505050935093915050565b6040805160c0810182526000808252602082018190529181018290526060808201839052608082015260a081019190915290565b828054612ddc90613502565b90600052602060002090601f016020900481019282612dfe5760008555612e44565b82601f10612e1757805160ff1916838001178555612e44565b82800160010185558215612e44579182015b82811115612e44578251825591602001919060010190612e29565b50612e50929150612e54565b5090565b5b80821115612e505760008155600101612e55565b600060208284031215612e7a578081fd5b8135611106816135ae565b60008060408385031215612e97578081fd5b8235612ea2816135ae565b91506020830135612eb2816135ae565b809150509250929050565b600080600060608486031215612ed1578081fd5b8335612edc816135ae565b92506020840135612eec816135ae565b929592945050506040919091013590565b60008060008060808587031215612f12578081fd5b8435612f1d816135ae565b93506020850135612f2d816135ae565b925060408501359150606085013567ffffffffffffffff80821115612f50578283fd5b818701915087601f830112612f63578283fd5b813581811115612f7557612f75613598565b604051601f8201601f19908116603f01168101908382118183101715612f9d57612f9d613598565b816040528281528a6020848701011115612fb5578586fd5b82602086016020830137918201602001949094529598949750929550505050565b60008060408385031215612fe8578182fd5b8235612ff3816135ae565b915060208301358015158114612eb2578182fd5b60008060408385031215613019578182fd5b8235613024816135ae565b946020939093013593505050565b600060208284031215613043578081fd5b5035919050565b6000806040838503121561305c578182fd5b823591506020830135612eb2816135ae565b60006020828403121561307f578081fd5b8135611106816135c3565b60006020828403121561309b578081fd5b8151611106816135c3565b6000602082840312156130b7578081fd5b813567ffffffffffffffff8111156130cd578182fd5b820160a08185031215611106578182fd5b600081518084526130f68160208601602086016134bf565b601f01601f19169290920160200192915050565b805182526000602082015160018060a01b038082166020860152806040850151166040860152505060608201516060840152608082015160c0608085015261315560c08501826130de565b60a0938401511515949093019390935250919050565b8183823760009101908152919050565b6000835161318d8184602088016134bf565b8351908301906131a18183602088016134bf565b01949350505050565b7f416363657373436f6e74726f6c3a206163636f756e74200000000000000000008152600083516131e28160178501602088016134bf565b7001034b99036b4b9b9b4b733903937b6329607d1b60179184019182015283516132138160288401602088016134bf565b01602801949350505050565b6001600160a01b0385811682528416602082015260408101839052608060608201819052600090613252908301846130de565b9695505050505050565b6001600160a01b038681168252851660208201526040810184905260a06060820181905260009061328f908301856130de565b905082151560808301529695505050505050565b6000602080830181845280855180835260408601915060408160051b8701019250838701855b828110156132f757603f198886030184526132e585835161310a565b945092850192908501906001016132c9565b5092979650505050505050565b60208152600061110660208301846130de565b60208082526032908201527f4552433732313a207472616e7366657220746f206e6f6e20455243373231526560408201527131b2b4bb32b91034b6b83632b6b2b73a32b960711b606082015260800190565b60208082526031908201527f4552433732313a207472616e736665722063616c6c6572206973206e6f74206f6040820152701ddb995c881b9bdc88185c1c1c9bdd9959607a1b606082015260800190565b6020808252602b908201527f496e697469616c697a61626c653a20636f6e7472616374206973206e6f74206960408201526a6e697469616c697a696e6760a81b606082015260800190565b602081526000611106602083018461310a565b6000808335601e1984360301811261342e578283fd5b83018035915067ffffffffffffffff821115613448578283fd5b6020019150368190038213156129f057600080fd5b600082198211156134705761347061356c565b500190565b60008261348457613484613582565b500490565b60008160001904831182151516156134a3576134a361356c565b500290565b6000828210156134ba576134ba61356c565b500390565b60005b838110156134da5781810151838201526020016134c2565b838111156112825750506000910152565b6000816134fa576134fa61356c565b506000190190565b600181811c9082168061351657607f821691505b6020821081141561353757634e487b7160e01b600052602260045260246000fd5b50919050565b60006000198214156135515761355161356c565b5060010190565b60008261356757613567613582565b500690565b634e487b7160e01b600052601160045260246000fd5b634e487b7160e01b600052601260045260246000fd5b634e487b7160e01b600052604160045260246000fd5b6001600160a01b0381168114612bf857600080fd5b6001600160e01b031981168114612bf857600080fdfe9f2df0fed2c77648de5860a4cc508cd0818c85b8b8a1ab4ceeef8d981c8956a6a26469706673582212209f501c17a5181d8f26cf4d2c77e7218d82c96a2b90965cbb1770f6e05c265e6964736f6c63430008040033",
  "linkReferences": {},
  "deployedLinkReferences": {}
}