{
  "_format": "hh-sol-artifact-1",
  "contractName": "NFTMarketplace",
  "sourceName": "contracts/NFTMarketplace.sol",
  "abi": [
    {
      "inputs": [
        {
          "internalType": "address payable",
          "name": "minter",
          "type": "address"
        }
      ],
      "stateMutability": "nonpayable",
      "type": "constructor"
    },
    {
      "anonymous": false,
      "inputs": [
        {
          "indexed": true,
          "internalType": "address",
          "name": "owner",
          "type": "address"
        },
        {
          "indexed": true,
          "internalType": "address",
          "name": "approved",
          "type": "address"
        },
        {
          "indexed": true,
          "internalType": "uint256",
          "name": "tokenId",
          "type": "uint256"
        }
      ],
      "name": "Approval",
      "type": "event"
    },
    {
      "anonymous": false,
      "inputs": [
        {
          "indexed": true,
          "internalType": "address",
          "name": "owner",
          "type": "address"
        },
        {
          "indexed": true,
          "internalType": "address",
          "name": "operator",
          "type": "address"
        },
        {
          "indexed": false,
          "internalType": "bool",
          "name": "approved",
          "type": "bool"
        }
      ],
      "name": "ApprovalForAll",
      "type": "event"
    },
    {
      "anonymous": false,
      "inputs": [
        {
          "indexed": true,
          "internalType": "uint256",
          "name": "tokenId",
          "type": "uint256"
        },
        {
          "indexed": false,
          "internalType": "address",
          "name": "seller",
          "type": "address"
        },
        {
          "indexed": false,
          "internalType": "address",
          "name": "owner",
          "type": "address"
        },
        {
          "indexed": false,
          "internalType": "uint256",
          "name": "price",
          "type": "uint256"
        },
        {
          "indexed": false,
          "internalType": "string",
          "name": "tokenURI",
          "type": "string"
        },
        {
          "indexed": false,
          "internalType": "bool",
          "name": "sold",
          "type": "bool"
        }
      ],
      "name": "MarketItemCreated",
      "type": "event"
    },
    {
      "anonymous": false,
      "inputs": [
        {
          "indexed": true,
          "internalType": "bytes32",
          "name": "role",
          "type": "bytes32"
        },
        {
          "indexed": true,
          "internalType": "bytes32",
          "name": "previousAdminRole",
          "type": "bytes32"
        },
        {
          "indexed": true,
          "internalType": "bytes32",
          "name": "newAdminRole",
          "type": "bytes32"
        }
      ],
      "name": "RoleAdminChanged",
      "type": "event"
    },
    {
      "anonymous": false,
      "inputs": [
        {
          "indexed": true,
          "internalType": "bytes32",
          "name": "role",
          "type": "bytes32"
        },
        {
          "indexed": true,
          "internalType": "address",
          "name": "account",
          "type": "address"
        },
        {
          "indexed": true,
          "internalType": "address",
          "name": "sender",
          "type": "address"
        }
      ],
      "name": "RoleGranted",
      "type": "event"
    },
    {
      "anonymous": false,
      "inputs": [
        {
          "indexed": true,
          "internalType": "bytes32",
          "name": "role",
          "type": "bytes32"
        },
        {
          "indexed": true,
          "internalType": "address",
          "name": "account",
          "type": "address"
        },
        {
          "indexed": true,
          "internalType": "address",
          "name": "sender",
          "type": "address"
        }
      ],
      "name": "RoleRevoked",
      "type": "event"
    },
    {
      "anonymous": false,
      "inputs": [
        {
          "indexed": true,
          "internalType": "address",
          "name": "from",
          "type": "address"
        },
        {
          "indexed": true,
          "internalType": "address",
          "name": "to",
          "type": "address"
        },
        {
          "indexed": true,
          "internalType": "uint256",
          "name": "tokenId",
          "type": "uint256"
        }
      ],
      "name": "Transfer",
      "type": "event"
    },
    {
      "inputs": [],
      "name": "DEFAULT_ADMIN_ROLE",
      "outputs": [
        {
          "internalType": "bytes32",
          "name": "",
          "type": "bytes32"
        }
      ],
      "stateMutability": "view",
      "type": "function"
    },
    {
      "inputs": [],
      "name": "MINTER_ROLE",
      "outputs": [
        {
          "internalType": "bytes32",
          "name": "",
          "type": "bytes32"
        }
      ],
      "stateMutability": "view",
      "type": "function"
    },
    {
      "inputs": [
        {
          "internalType": "address",
          "name": "to",
          "type": "address"
        },
        {
          "internalType": "uint256",
          "name": "tokenId",
          "type": "uint256"
        }
      ],
      "name": "approve",
      "outputs": [],
      "stateMutability": "nonpayable",
      "type": "function"
    },
    {
      "inputs": [],
      "name": "availableToWithdraw",
      "outputs": [
        {
          "internalType": "uint256",
          "name": "",
          "type": "uint256"
        }
      ],
      "stateMutability": "view",
      "type": "function"
    },
    {
      "inputs": [
        {
          "internalType": "address",
          "name": "owner",
          "type": "address"
        }
      ],
      "name": "balanceOf",
      "outputs": [
        {
          "internalType": "uint256",
          "name": "",
          "type": "uint256"
        }
      ],
      "stateMutability": "view",
      "type": "function"
    },
    {
      "inputs": [
        {
          "internalType": "uint256",
          "name": "tokenId",
          "type": "uint256"
        }
      ],
      "name": "createMarketSale",
      "outputs": [],
      "stateMutability": "payable",
      "type": "function"
    },
    {
      "inputs": [
        {
          "components": [
            {
              "internalType": "uint256",
              "name": "tokenId",
              "type": "uint256"
            },
            {
              "internalType": "uint256",
              "name": "price",
              "type": "uint256"
            },
            {
              "internalType": "string",
              "name": "uri",
              "type": "string"
            },
            {
              "internalType": "bytes",
              "name": "signature",
              "type": "bytes"
            }
          ],
          "internalType": "struct NFTMarketplace.NFTVoucher",
          "name": "voucher",
          "type": "tuple"
        }
      ],
      "name": "createToken",
      "outputs": [
        {
          "internalType": "uint256",
          "name": "",
          "type": "uint256"
        }
      ],
      "stateMutability": "payable",
      "type": "function"
    },
    {
      "inputs": [
        {
          "internalType": "uint256",
          "name": "tokenId",
          "type": "uint256"
        }
      ],
      "name": "fetchMarketItem",
      "outputs": [
        {
          "components": [
            {
              "internalType": "uint256",
              "name": "tokenId",
              "type": "uint256"
            },
            {
              "internalType": "address payable",
              "name": "seller",
              "type": "address"
            },
            {
              "internalType": "address payable",
              "name": "owner",
              "type": "address"
            },
            {
              "internalType": "uint256",
              "name": "price",
              "type": "uint256"
            },
            {
              "internalType": "string",
              "name": "tokenURI",
              "type": "string"
            },
            {
              "internalType": "bool",
              "name": "sold",
              "type": "bool"
            }
          ],
          "internalType": "struct NFTMarketplace.MarketItem",
          "name": "",
          "type": "tuple"
        }
      ],
      "stateMutability": "view",
      "type": "function"
    },
    {
      "inputs": [],
      "name": "fetchMarketItems",
      "outputs": [
        {
          "components": [
            {
              "internalType": "uint256",
              "name": "tokenId",
              "type": "uint256"
            },
            {
              "internalType": "address payable",
              "name": "seller",
              "type": "address"
            },
            {
              "internalType": "address payable",
              "name": "owner",
              "type": "address"
            },
            {
              "internalType": "uint256",
              "name": "price",
              "type": "uint256"
            },
            {
              "internalType": "string",
              "name": "tokenURI",
              "type": "string"
            },
            {
              "internalType": "bool",
              "name": "sold",
              "type": "bool"
            }
          ],
          "internalType": "struct NFTMarketplace.MarketItem[]",
          "name": "",
          "type": "tuple[]"
        }
      ],
      "stateMutability": "view",
      "type": "function"
    },
    {
      "inputs": [],
      "name": "fetchMyNFTs",
      "outputs": [
        {
          "components": [
            {
              "internalType": "uint256",
              "name": "tokenId",
              "type": "uint256"
            },
            {
              "internalType": "address payable",
              "name": "seller",
              "type": "address"
            },
            {
              "internalType": "address payable",
              "name": "owner",
              "type": "address"
            },
            {
              "internalType": "uint256",
              "name": "price",
              "type": "uint256"
            },
            {
              "internalType": "string",
              "name": "tokenURI",
              "type": "string"
            },
            {
              "internalType": "bool",
              "name": "sold",
              "type": "bool"
            }
          ],
          "internalType": "struct NFTMarketplace.MarketItem[]",
          "name": "",
          "type": "tuple[]"
        }
      ],
      "stateMutability": "view",
      "type": "function"
    },
    {
      "inputs": [
        {
          "internalType": "uint256",
          "name": "tokenId",
          "type": "uint256"
        }
      ],
      "name": "getApproved",
      "outputs": [
        {
          "internalType": "address",
          "name": "",
          "type": "address"
        }
      ],
      "stateMutability": "view",
      "type": "function"
    },
    {
      "inputs": [],
      "name": "getChainID",
      "outputs": [
        {
          "internalType": "uint256",
          "name": "",
          "type": "uint256"
        }
      ],
      "stateMutability": "view",
      "type": "function"
    },
    {
      "inputs": [],
      "name": "getCurrentTokenId",
      "outputs": [
        {
          "internalType": "uint256",
          "name": "",
          "type": "uint256"
        }
      ],
      "stateMutability": "view",
      "type": "function"
    },
    {
      "inputs": [],
      "name": "getListingPrice",
      "outputs": [
        {
          "internalType": "uint256",
          "name": "",
          "type": "uint256"
        }
      ],
      "stateMutability": "view",
      "type": "function"
    },
    {
      "inputs": [
        {
          "internalType": "bytes32",
          "name": "role",
          "type": "bytes32"
        }
      ],
      "name": "getRoleAdmin",
      "outputs": [
        {
          "internalType": "bytes32",
          "name": "",
          "type": "bytes32"
        }
      ],
      "stateMutability": "view",
      "type": "function"
    },
    {
      "inputs": [
        {
          "internalType": "bytes32",
          "name": "role",
          "type": "bytes32"
        },
        {
          "internalType": "address",
          "name": "account",
          "type": "address"
        }
      ],
      "name": "grantRole",
      "outputs": [],
      "stateMutability": "nonpayable",
      "type": "function"
    },
    {
      "inputs": [
        {
          "internalType": "bytes32",
          "name": "role",
          "type": "bytes32"
        },
        {
          "internalType": "address",
          "name": "account",
          "type": "address"
        }
      ],
      "name": "hasRole",
      "outputs": [
        {
          "internalType": "bool",
          "name": "",
          "type": "bool"
        }
      ],
      "stateMutability": "view",
      "type": "function"
    },
    {
      "inputs": [
        {
          "internalType": "address",
          "name": "owner",
          "type": "address"
        },
        {
          "internalType": "address",
          "name": "operator",
          "type": "address"
        }
      ],
      "name": "isApprovedForAll",
      "outputs": [
        {
          "internalType": "bool",
          "name": "",
          "type": "bool"
        }
      ],
      "stateMutability": "view",
      "type": "function"
    },
    {
      "inputs": [],
      "name": "name",
      "outputs": [
        {
          "internalType": "string",
          "name": "",
          "type": "string"
        }
      ],
      "stateMutability": "view",
      "type": "function"
    },
    {
      "inputs": [
        {
          "internalType": "uint256",
          "name": "tokenId",
          "type": "uint256"
        }
      ],
      "name": "ownerOf",
      "outputs": [
        {
          "internalType": "address",
          "name": "",
          "type": "address"
        }
      ],
      "stateMutability": "view",
      "type": "function"
    },
    {
      "inputs": [
        {
          "internalType": "bytes32",
          "name": "role",
          "type": "bytes32"
        },
        {
          "internalType": "address",
          "name": "account",
          "type": "address"
        }
      ],
      "name": "renounceRole",
      "outputs": [],
      "stateMutability": "nonpayable",
      "type": "function"
    },
    {
      "inputs": [
        {
          "internalType": "uint256",
          "name": "tokenId",
          "type": "uint256"
        },
        {
          "internalType": "uint256",
          "name": "price",
          "type": "uint256"
        }
      ],
      "name": "resellToken",
      "outputs": [],
      "stateMutability": "payable",
      "type": "function"
    },
    {
      "inputs": [
        {
          "internalType": "bytes32",
          "name": "role",
          "type": "bytes32"
        },
        {
          "internalType": "address",
          "name": "account",
          "type": "address"
        }
      ],
      "name": "revokeRole",
      "outputs": [],
      "stateMutability": "nonpayable",
      "type": "function"
    },
    {
      "inputs": [
        {
          "internalType": "address",
          "name": "from",
          "type": "address"
        },
        {
          "internalType": "address",
          "name": "to",
          "type": "address"
        },
        {
          "internalType": "uint256",
          "name": "tokenId",
          "type": "uint256"
        }
      ],
      "name": "safeTransferFrom",
      "outputs": [],
      "stateMutability": "nonpayable",
      "type": "function"
    },
    {
      "inputs": [
        {
          "internalType": "address",
          "name": "from",
          "type": "address"
        },
        {
          "internalType": "address",
          "name": "to",
          "type": "address"
        },
        {
          "internalType": "uint256",
          "name": "tokenId",
          "type": "uint256"
        },
        {
          "internalType": "bytes",
          "name": "_data",
          "type": "bytes"
        }
      ],
      "name": "safeTransferFrom",
      "outputs": [],
      "stateMutability": "nonpayable",
      "type": "function"
    },
    {
      "inputs": [
        {
          "internalType": "address",
          "name": "operator",
          "type": "address"
        },
        {
          "internalType": "bool",
          "name": "approved",
          "type": "bool"
        }
      ],
      "name": "setApprovalForAll",
      "outputs": [],
      "stateMutability": "nonpayable",
      "type": "function"
    },
    {
      "inputs": [
        {
          "internalType": "bytes4",
          "name": "interfaceId",
          "type": "bytes4"
        }
      ],
      "name": "supportsInterface",
      "outputs": [
        {
          "internalType": "bool",
          "name": "",
          "type": "bool"
        }
      ],
      "stateMutability": "view",
      "type": "function"
    },
    {
      "inputs": [],
      "name": "symbol",
      "outputs": [
        {
          "internalType": "string",
          "name": "",
          "type": "string"
        }
      ],
      "stateMutability": "view",
      "type": "function"
    },
    {
      "inputs": [],
      "name": "testMarketItems",
      "outputs": [
        {
          "components": [
            {
              "internalType": "uint256",
              "name": "tokenId",
              "type": "uint256"
            },
            {
              "internalType": "address payable",
              "name": "seller",
              "type": "address"
            },
            {
              "internalType": "address payable",
              "name": "owner",
              "type": "address"
            },
            {
              "internalType": "uint256",
              "name": "price",
              "type": "uint256"
            },
            {
              "internalType": "string",
              "name": "tokenURI",
              "type": "string"
            },
            {
              "internalType": "bool",
              "name": "sold",
              "type": "bool"
            }
          ],
          "internalType": "struct NFTMarketplace.MarketItem[]",
          "name": "",
          "type": "tuple[]"
        }
      ],
      "stateMutability": "view",
      "type": "function"
    },
    {
      "inputs": [
        {
          "internalType": "uint256",
          "name": "tokenId",
          "type": "uint256"
        }
      ],
      "name": "tokenURI",
      "outputs": [
        {
          "internalType": "string",
          "name": "",
          "type": "string"
        }
      ],
      "stateMutability": "view",
      "type": "function"
    },
    {
      "inputs": [
        {
          "internalType": "address",
          "name": "from",
          "type": "address"
        },
        {
          "internalType": "address",
          "name": "to",
          "type": "address"
        },
        {
          "internalType": "uint256",
          "name": "tokenId",
          "type": "uint256"
        }
      ],
      "name": "transferFrom",
      "outputs": [],
      "stateMutability": "nonpayable",
      "type": "function"
    },
    {
      "inputs": [
        {
          "internalType": "uint256",
          "name": "_listingPrice",
          "type": "uint256"
        }
      ],
      "name": "updateListingPrice",
      "outputs": [],
      "stateMutability": "payable",
      "type": "function"
    },
    {
      "inputs": [],
      "name": "withdraw",
      "outputs": [],
      "stateMutability": "nonpayable",
      "type": "function"
    }
  ],
  "bytecode": "0x61014060405265e35fa931a000600b553480156200001c57600080fd5b5060405162003a4738038062003a478339810160408190526200003f916200033a565b6040518060400160405280600f81526020016e2630bd3ca7232a16ab37bab1b432b960891b815250604051806040016040528060018152602001603160f81b8152506040518060400160405280601381526020017f556b7261696e69616e417274697374734e4654000000000000000000000000008152506040518060400160405280600381526020016229a62b60e91b8152508160009080519060200190620000eb92919062000294565b5080516200010190600190602084019062000294565b5050825160208085019190912083518483012060e08290526101008190524660a0818152604080517f8b73c3c69bb8fe3d512ecc4cf759cc79239f7b179b0ffacaa9a75d522b39400f81880181905281830187905260608201869052608082019490945230818401528151808203909301835260c0019052805194019390932091935091906080523060601b60c0526101205250620001c792507f9f2df0fed2c77648de5860a4cc508cd0818c85b8b8a1ab4ceeef8d981c8956a69150839050620001e0565b50600c80546001600160a01b03191633179055620003a7565b620001ec8282620001f0565b5050565b60008281526007602090815260408083206001600160a01b038516845290915290205460ff16620001ec5760008281526007602090815260408083206001600160a01b03851684529091529020805460ff19166001179055620002503390565b6001600160a01b0316816001600160a01b0316837f2f8788117e7eff1d82e926ec794901d17c78024a50270940304540a733656f0d60405160405180910390a45050565b828054620002a2906200036a565b90600052602060002090601f016020900481019282620002c6576000855562000311565b82601f10620002e157805160ff191683800117855562000311565b8280016001018555821562000311579182015b8281111562000311578251825591602001919060010190620002f4565b506200031f92915062000323565b5090565b5b808211156200031f576000815560010162000324565b6000602082840312156200034c578081fd5b81516001600160a01b038116811462000363578182fd5b9392505050565b600181811c908216806200037f57607f821691505b60208210811415620003a157634e487b7160e01b600052602260045260246000fd5b50919050565b60805160a05160c05160601c60e051610100516101205161364d620003fa6000396000612c4601526000612c9501526000612c7001526000612bc901526000612bf301526000612c1d015261364d6000f3fe6080604052600436106101ee5760003560e01c80636352211e1161010d578063b88d4fde116100a0578063d53913931161006f578063d53913931461054c578063d547741f14610580578063e219fc75146105a0578063e322ad2b146105b3578063e985e9c5146105d557600080fd5b8063b88d4fde146104e4578063be9af53614610504578063c3a8c30c14610517578063c87b56dd1461052c57600080fd5b8063a217fddf116100dc578063a217fddf14610489578063a22cb4651461049e578063a4b3cce6146104be578063ae677aa3146104d157600080fd5b80636352211e1461041457806370a082311461043457806391d148541461045457806395d89b411461047457600080fd5b8063248a9ca3116101855780633ccfd60b116101545780633ccfd60b146103b757806342842e0e146103cc57806356189236146103ec578063564b81ef1461040157600080fd5b8063248a9ca31461031a5780632a45b2501461034a5780632f2ff15d1461037757806336568abe1461039757600080fd5b80630f08efe0116101c15780630f08efe0146102a457806312e85585146102c6578063202e3740146102e557806323b872dd146102fa57600080fd5b806301ffc9a7146101f357806306fdde0314610228578063081812fc1461024a578063095ea7b314610282575b600080fd5b3480156101ff57600080fd5b5061021361020e3660046130eb565b61061e565b60405190151581526020015b60405180910390f35b34801561023457600080fd5b5061023d61063e565b60405161021f91906133a2565b34801561025657600080fd5b5061026a6102653660046130b1565b6106d0565b6040516001600160a01b03909116815260200161021f565b34801561028e57600080fd5b506102a261029d366004613088565b61075d565b005b3480156102b057600080fd5b506102b9610873565b60405161021f9190613341565b3480156102d257600080fd5b50600b545b60405190815260200161021f565b3480156102f157600080fd5b506102b9610aa4565b34801561030657600080fd5b506102a2610315366004612f3e565b610d13565b34801561032657600080fd5b506102d76103353660046130b1565b60009081526007602052604090206001015490565b34801561035657600080fd5b5061036a6103653660046130b1565b610d44565b60405161021f9190613458565b34801561038357600080fd5b506102a26103923660046130c9565b610e4a565b3480156103a357600080fd5b506102a26103b23660046130c9565b610e70565b3480156103c357600080fd5b506102a2610eee565b3480156103d857600080fd5b506102a26103e7366004612f3e565b610fb3565b3480156103f857600080fd5b506102d7610fce565b34801561040d57600080fd5b50466102d7565b34801561042057600080fd5b5061026a61042f3660046130b1565b610fde565b34801561044057600080fd5b506102d761044f366004612ef2565b611055565b34801561046057600080fd5b5061021361046f3660046130c9565b6110dc565b34801561048057600080fd5b5061023d611107565b34801561049557600080fd5b506102d7600081565b3480156104aa57600080fd5b506102a26104b936600461304e565b611116565b6102d76104cc366004613123565b611121565b6102a26104df3660046130b1565b611293565b3480156104f057600080fd5b506102a26104ff366004612f79565b61130b565b6102a26105123660046130b1565b611343565b34801561052357600080fd5b506102b9611530565b34801561053857600080fd5b5061023d6105473660046130b1565b611758565b34801561055857600080fd5b506102d77f9f2df0fed2c77648de5860a4cc508cd0818c85b8b8a1ab4ceeef8d981c8956a681565b34801561058c57600080fd5b506102a261059b3660046130c9565b6118cf565b6102a26105ae36600461315b565b6118f5565b3480156105bf57600080fd5b50336000908152600a60205260409020546102d7565b3480156105e157600080fd5b506102136105f0366004612f0c565b6001600160a01b03918216600090815260056020908152604080832093909416825291909152205460ff1690565b600061062982611a29565b80610638575061063882611a79565b92915050565b60606000805461064d90613555565b80601f016020809104026020016040519081016040528092919081815260200182805461067990613555565b80156106c65780601f1061069b576101008083540402835291602001916106c6565b820191906000526020600020905b8154815290600101906020018083116106a957829003601f168201915b5050505050905090565b60006106db82611a9e565b6107415760405162461bcd60e51b815260206004820152602c60248201527f4552433732313a20617070726f76656420717565727920666f72206e6f6e657860448201526b34b9ba32b73a103a37b5b2b760a11b60648201526084015b60405180910390fd5b506000908152600460205260409020546001600160a01b031690565b600061076882610fde565b9050806001600160a01b0316836001600160a01b031614156107d65760405162461bcd60e51b815260206004820152602160248201527f4552433732313a20617070726f76616c20746f2063757272656e74206f776e656044820152603960f91b6064820152608401610738565b336001600160a01b03821614806107f257506107f281336105f0565b6108645760405162461bcd60e51b815260206004820152603860248201527f4552433732313a20617070726f76652063616c6c6572206973206e6f74206f7760448201527f6e6572206e6f7220617070726f76656420666f7220616c6c00000000000000006064820152608401610738565b61086e8383611abb565b505050565b6060600061088060085490565b9050600061088d60095490565b60085461089a91906134fb565b90506000808267ffffffffffffffff8111156108c657634e487b7160e01b600052604160045260246000fd5b6040519080825280602002602001820160405280156108ff57816020015b6108ec612e09565b8152602001906001900390816108e45790505b50905060005b84811015610a9b5730600d600061091d8460016134b0565b81526020810191909152604001600020600201546001600160a01b03161415610a8957600061094d8260016134b0565b6000818152600d6020908152604091829020825160c0810184528154815260018201546001600160a01b0390811693820193909352600282015490921692820192909252600382015460608201526004820180549394509192909183916080840191906109b990613555565b80601f01602080910402602001604051908101604052809291908181526020018280546109e590613555565b8015610a325780601f10610a0757610100808354040283529160200191610a32565b820191906000526020600020905b815481529060010190602001808311610a1557829003601f168201915b50505091835250506005919091015460ff1615156020909101528451859087908110610a6e57634e487b7160e01b600052603260045260246000fd5b6020908102919091010152610a846001866134b0565b945050505b80610a9381613590565b915050610905565b50949350505050565b60606000610ab160085490565b905060008060005b83811015610b145733600d6000610ad18460016134b0565b81526020810191909152604001600020600201546001600160a01b03161415610b0257610aff6001846134b0565b92505b80610b0c81613590565b915050610ab9565b5060008267ffffffffffffffff811115610b3e57634e487b7160e01b600052604160045260246000fd5b604051908082528060200260200182016040528015610b7757816020015b610b64612e09565b815260200190600190039081610b5c5790505b50905060005b84811015610a9b5733600d6000610b958460016134b0565b81526020810191909152604001600020600201546001600160a01b03161415610d01576000610bc58260016134b0565b6000818152600d6020908152604091829020825160c0810184528154815260018201546001600160a01b039081169382019390935260028201549092169282019290925260038201546060820152600482018054939450919290918391608084019190610c3190613555565b80601f0160208091040260200160405190810160405280929190818152602001828054610c5d90613555565b8015610caa5780601f10610c7f57610100808354040283529160200191610caa565b820191906000526020600020905b815481529060010190602001808311610c8d57829003601f168201915b50505091835250506005919091015460ff1615156020909101528451859087908110610ce657634e487b7160e01b600052603260045260246000fd5b6020908102919091010152610cfc6001866134b0565b945050505b80610d0b81613590565b915050610b7d565b610d1d3382611b29565b610d395760405162461bcd60e51b815260040161073890613407565b61086e838383611c0f565b610d4c612e09565b6000828152600d6020908152604091829020825160c0810184528154815260018201546001600160a01b03908116938201939093526002820154909216928201929092526003820154606082015260048201805483916080840191610db090613555565b80601f0160208091040260200160405190810160405280929190818152602001828054610ddc90613555565b8015610e295780601f10610dfe57610100808354040283529160200191610e29565b820191906000526020600020905b815481529060010190602001808311610e0c57829003601f168201915b50505091835250506005919091015460ff1615156020909101529392505050565b600082815260076020526040902060010154610e668133611dab565b61086e8383611e0f565b6001600160a01b0381163314610ee05760405162461bcd60e51b815260206004820152602f60248201527f416363657373436f6e74726f6c3a2063616e206f6e6c792072656e6f756e636560448201526e103937b632b9903337b91039b2b63360891b6064820152608401610738565b610eea8282611e95565b5050565b610f187f9f2df0fed2c77648de5860a4cc508cd0818c85b8b8a1ab4ceeef8d981c8956a6336110dc565b610f705760405162461bcd60e51b8152602060048201526024808201527f4f6e6c7920617574686f72697a6564206d696e746572732063616e20776974686044820152636472617760e01b6064820152608401610738565b336000818152600a602052604080822080549083905590519091839183156108fc0291849190818181858888f1935050505015801561086e573d6000803e3d6000fd5b61086e8383836040518060200160405280600081525061130b565b6000610fd960085490565b905090565b6000818152600260205260408120546001600160a01b0316806106385760405162461bcd60e51b815260206004820152602960248201527f4552433732313a206f776e657220717565727920666f72206e6f6e657869737460448201526832b73a103a37b5b2b760b91b6064820152608401610738565b60006001600160a01b0382166110c05760405162461bcd60e51b815260206004820152602a60248201527f4552433732313a2062616c616e636520717565727920666f7220746865207a65604482015269726f206164647265737360b01b6064820152608401610738565b506001600160a01b031660009081526003602052604090205490565b60009182526007602090815260408084206001600160a01b0393909316845291905290205460ff1690565b60606001805461064d90613555565b610eea338383611efc565b60008061112d83611fcb565b90506111597f9f2df0fed2c77648de5860a4cc508cd0818c85b8b8a1ab4ceeef8d981c8956a6826110dc565b6111af5760405162461bcd60e51b815260206004820152602160248201527f5369676e617475726520696e76616c6964206f7220756e617574686f72697a656044820152601960fa1b6064820152608401610738565b6008546111bd9060016134b0565b8335146112215760405162461bcd60e51b815260206004820152602c60248201527f546f6b656e496420696e2074686520766f7563686572206973206e6f7420766160448201526b6c696420616e79206d6f726560a01b6064820152608401610738565b61122f600880546001019055565b600061123a60085490565b905061128c816020860135611252604088018861346b565b8080601f01602080910402602001604051908101604052809392919081815260200183838082843760009201919091525061202492505050565b9392505050565b600c546001600160a01b031633146113065760405162461bcd60e51b815260206004820152603060248201527f4f6e6c79206d61726b6574706c616365206f776e65722063616e20757064617460448201526f32903634b9ba34b73390383934b1b29760811b6064820152608401610738565b600b55565b6113153383611b29565b6113315760405162461bcd60e51b815260040161073890613407565b61133d8484848461211d565b50505050565b6000818152600d6020526040902060038101546001909101546001600160a01b0316348211156113b55760405162461bcd60e51b815260206004820152601c60248201527f496e73756666696369656e742066756e647320746f2072656465656d000000006044820152606401610738565b6113bf8184612150565b6000838152600d6020526040902060040180546114649185916113e190613555565b80601f016020809104026020016040519081016040528092919081815260200182805461140d90613555565b801561145a5780601f1061142f5761010080835404028352916020019161145a565b820191906000526020600020905b81548152906001019060200180831161143d57829003601f168201915b5050505050612283565b6000838152600d602052604090206002810180546001600160a01b0319908116331790915560058201805460ff19166001908117909155909101805490911690556114b3600980546001019055565b6114be813385611c0f565b600c54600b546040516001600160a01b039092169181156108fc0291906000818181858888f193505050501580156114fa573d6000803e3d6000fd5b506040516001600160a01b038216903480156108fc02916000818181858888f1935050505015801561133d573d6000803e3d6000fd5b6060600061153d60085490565b9050600061154a60095490565b60085461155791906134fb565b90506000808267ffffffffffffffff81111561158357634e487b7160e01b600052604160045260246000fd5b6040519080825280602002602001820160405280156115bc57816020015b6115a9612e09565b8152602001906001900390816115a15790505b50905060005b84811015610a9b5730600d60006115da8460016134b0565b81526020810191909152604001600020600201546001600160a01b0316141561174657600061160a8260016134b0565b6000818152600d6020908152604091829020825160c0810184528154815260018201546001600160a01b03908116938201939093526002820154909216928201929092526003820154606082015260048201805493945091929091839160808401919061167690613555565b80601f01602080910402602001604051908101604052809291908181526020018280546116a290613555565b80156116ef5780601f106116c4576101008083540402835291602001916116ef565b820191906000526020600020905b8154815290600101906020018083116116d257829003601f168201915b50505091835250506005919091015460ff161515602090910152845185908790811061172b57634e487b7160e01b600052603260045260246000fd5b60209081029190910101526117416001866134b0565b945050505b8061175081613590565b9150506115c2565b606061176382611a9e565b6117c95760405162461bcd60e51b815260206004820152603160248201527f45524337323155524953746f726167653a2055524920717565727920666f72206044820152703737b732bc34b9ba32b73a103a37b5b2b760791b6064820152608401610738565b600082815260066020526040812080546117e290613555565b80601f016020809104026020016040519081016040528092919081815260200182805461180e90613555565b801561185b5780601f106118305761010080835404028352916020019161185b565b820191906000526020600020905b81548152906001019060200180831161183e57829003601f168201915b50505050509050600061187960408051602081019091526000815290565b905080516000141561188c575092915050565b8151156118be5780826040516020016118a6929190613219565b60405160208183030381529060405292505050919050565b6118c78461230e565b949350505050565b6000828152600760205260409020600101546118eb8133611dab565b61086e8383611e95565b6000828152600d60205260409020600201546001600160a01b031633146119715760405162461bcd60e51b815260206004820152602a60248201527f4f6e6c79206974656d206f776e65722063616e20706572666f726d20746869736044820152691037b832b930ba34b7b760b11b6064820152608401610738565b600b5434146119ce5760405162461bcd60e51b8152602060048201526024808201527f5072696365206d75737420626520657175616c20746f206c697374696e6720706044820152637269636560e01b6064820152608401610738565b6000828152600d6020526040902060058101805460ff19169055600381018290556001810180546001600160a01b031990811633179091556002909101805490911630179055611a1e60096123e5565b610eea333084611c0f565b60006001600160e01b031982166380ac58cd60e01b1480611a5a57506001600160e01b03198216635b5e139f60e01b145b8061063857506301ffc9a760e01b6001600160e01b0319831614610638565b60006001600160e01b03198216637965db0b60e01b1480610638575061063882611a29565b6000908152600260205260409020546001600160a01b0316151590565b600081815260046020526040902080546001600160a01b0319166001600160a01b0384169081179091558190611af082610fde565b6001600160a01b03167f8c5be1e5ebec7d5bd14f71427d1e84f3dd0314c0f7b2291e5b200ac8c7c3b92560405160405180910390a45050565b6000611b3482611a9e565b611b955760405162461bcd60e51b815260206004820152602c60248201527f4552433732313a206f70657261746f7220717565727920666f72206e6f6e657860448201526b34b9ba32b73a103a37b5b2b760a11b6064820152608401610738565b6000611ba083610fde565b9050806001600160a01b0316846001600160a01b03161480611bdb5750836001600160a01b0316611bd0846106d0565b6001600160a01b0316145b806118c757506001600160a01b0380821660009081526005602090815260408083209388168352929052205460ff166118c7565b826001600160a01b0316611c2282610fde565b6001600160a01b031614611c865760405162461bcd60e51b815260206004820152602560248201527f4552433732313a207472616e736665722066726f6d20696e636f72726563742060448201526437bbb732b960d91b6064820152608401610738565b6001600160a01b038216611ce85760405162461bcd60e51b8152602060048201526024808201527f4552433732313a207472616e7366657220746f20746865207a65726f206164646044820152637265737360e01b6064820152608401610738565b611cf3600082611abb565b6001600160a01b0383166000908152600360205260408120805460019290611d1c9084906134fb565b90915550506001600160a01b0382166000908152600360205260408120805460019290611d4a9084906134b0565b909155505060008181526002602052604080822080546001600160a01b0319166001600160a01b0386811691821790925591518493918716917fddf252ad1be2c89b69c2b068fc378daa952ba7f163c4a11628f55a4df523b3ef91a4505050565b611db582826110dc565b610eea57611dcd816001600160a01b0316601461243c565b611dd883602061243c565b604051602001611de9929190613248565b60408051601f198184030181529082905262461bcd60e51b8252610738916004016133a2565b611e1982826110dc565b610eea5760008281526007602090815260408083206001600160a01b03851684529091529020805460ff19166001179055611e513390565b6001600160a01b0316816001600160a01b0316837f2f8788117e7eff1d82e926ec794901d17c78024a50270940304540a733656f0d60405160405180910390a45050565b611e9f82826110dc565b15610eea5760008281526007602090815260408083206001600160a01b0385168085529252808320805460ff1916905551339285917ff6391f5c32d9c69d2a47ea670b442974b53935d1edc7fd64eb21e047a839171b9190a45050565b816001600160a01b0316836001600160a01b03161415611f5e5760405162461bcd60e51b815260206004820152601960248201527f4552433732313a20617070726f766520746f2063616c6c6572000000000000006044820152606401610738565b6001600160a01b03838116600081815260056020908152604080832094871680845294825291829020805460ff191686151590811790915591519182527f17307eab39ab6107e8899845ad3d59bd9653f200f220920489ca2b5937696c31910160405180910390a3505050565b600080611fd78361261e565b905061128c81611fea606086018661346b565b8080601f0160208091040260200160405190810160405280939291908181526020018383808284376000920191909152506126af92505050565b6040805160c081018252848152336020808301918252308385019081526060840187815260808501878152600060a087018190528a8152600d8552969096208551815593516001850180546001600160a01b03199081166001600160a01b0393841617909155925160028601805490941691161790915551600383015592518051929391926120b99260048501920190612e3d565b5060a091909101516005909101805460ff191691151591909117905560405183907fe4958780fe3b3f0505e410985e1047d8533d6d15ac3fb1c69558c491ed1f9965906121109033903090879087906000906132fa565b60405180910390a2505050565b612128848484611c0f565b612134848484846126d3565b61133d5760405162461bcd60e51b8152600401610738906133b5565b6001600160a01b0382166121a65760405162461bcd60e51b815260206004820181905260248201527f4552433732313a206d696e7420746f20746865207a65726f20616464726573736044820152606401610738565b6121af81611a9e565b156121fc5760405162461bcd60e51b815260206004820152601c60248201527f4552433732313a20746f6b656e20616c7265616479206d696e746564000000006044820152606401610738565b6001600160a01b03821660009081526003602052604081208054600192906122259084906134b0565b909155505060008181526002602052604080822080546001600160a01b0319166001600160a01b03861690811790915590518392907fddf252ad1be2c89b69c2b068fc378daa952ba7f163c4a11628f55a4df523b3ef908290a45050565b61228c82611a9e565b6122ef5760405162461bcd60e51b815260206004820152602e60248201527f45524337323155524953746f726167653a2055524920736574206f66206e6f6e60448201526d32bc34b9ba32b73a103a37b5b2b760911b6064820152608401610738565b6000828152600660209081526040909120825161086e92840190612e3d565b606061231982611a9e565b61237d5760405162461bcd60e51b815260206004820152602f60248201527f4552433732314d657461646174613a2055524920717565727920666f72206e6f60448201526e3732bc34b9ba32b73a103a37b5b2b760891b6064820152608401610738565b600061239460408051602081019091526000815290565b905060008151116123b4576040518060200160405280600081525061128c565b806123be846127e0565b6040516020016123cf929190613219565b6040516020818303038152906040529392505050565b8054806124345760405162461bcd60e51b815260206004820152601b60248201527f436f756e7465723a2064656372656d656e74206f766572666c6f7700000000006044820152606401610738565b600019019055565b6060600061244b8360026134dc565b6124569060026134b0565b67ffffffffffffffff81111561247c57634e487b7160e01b600052604160045260246000fd5b6040519080825280601f01601f1916602001820160405280156124a6576020820181803683370190505b509050600360fc1b816000815181106124cf57634e487b7160e01b600052603260045260246000fd5b60200101906001600160f81b031916908160001a905350600f60fb1b8160018151811061250c57634e487b7160e01b600052603260045260246000fd5b60200101906001600160f81b031916908160001a90535060006125308460026134dc565b61253b9060016134b0565b90505b60018111156125cf576f181899199a1a9b1b9c1cb0b131b232b360811b85600f166010811061257d57634e487b7160e01b600052603260045260246000fd5b1a60f81b8282815181106125a157634e487b7160e01b600052603260045260246000fd5b60200101906001600160f81b031916908160001a90535060049490941c936125c88161353e565b905061253e565b50831561128c5760405162461bcd60e51b815260206004820181905260248201527f537472696e67733a20686578206c656e67746820696e73756666696369656e746044820152606401610738565b60006106387f187a5a3cecea031f9efa92ea3d1c193869f456110d6ea18015cab768a37f4b7983356020850135612658604087018761346b565b604051612666929190613209565b6040519081900381206126949493929160200193845260208401929092526040830152606082015260800190565b604051602081830303815290604052805190602001206128fa565b60008060006126be8585612948565b915091506126cb816129b8565b509392505050565b60006001600160a01b0384163b156127d557604051630a85bd0160e11b81526001600160a01b0385169063150b7a02906127179033908990889088906004016132bd565b602060405180830381600087803b15801561273157600080fd5b505af1925050508015612761575060408051601f3d908101601f1916820190925261275e91810190613107565b60015b6127bb573d80801561278f576040519150601f19603f3d011682016040523d82523d6000602084013e612794565b606091505b5080516127b35760405162461bcd60e51b8152600401610738906133b5565b805181602001fd5b6001600160e01b031916630a85bd0160e11b1490506118c7565b506001949350505050565b6060816128045750506040805180820190915260018152600360fc1b602082015290565b8160005b811561282e578061281881613590565b91506128279050600a836134c8565b9150612808565b60008167ffffffffffffffff81111561285757634e487b7160e01b600052604160045260246000fd5b6040519080825280601f01601f191660200182016040528015612881576020820181803683370190505b5090505b84156118c7576128966001836134fb565b91506128a3600a866135ab565b6128ae9060306134b0565b60f81b8183815181106128d157634e487b7160e01b600052603260045260246000fd5b60200101906001600160f81b031916908160001a9053506128f3600a866134c8565b9450612885565b6000610638612907612bbc565b8360405161190160f01b6020820152602281018390526042810182905260009060620160405160208183030381529060405280519060200120905092915050565b60008082516041141561297f5760208301516040840151606085015160001a61297387828585612ce3565b945094505050506129b1565b8251604014156129a9576020830151604084015161299e868383612dd0565b9350935050506129b1565b506000905060025b9250929050565b60008160048111156129da57634e487b7160e01b600052602160045260246000fd5b14156129e35750565b6001816004811115612a0557634e487b7160e01b600052602160045260246000fd5b1415612a535760405162461bcd60e51b815260206004820152601860248201527f45434453413a20696e76616c6964207369676e617475726500000000000000006044820152606401610738565b6002816004811115612a7557634e487b7160e01b600052602160045260246000fd5b1415612ac35760405162461bcd60e51b815260206004820152601f60248201527f45434453413a20696e76616c6964207369676e6174757265206c656e677468006044820152606401610738565b6003816004811115612ae557634e487b7160e01b600052602160045260246000fd5b1415612b3e5760405162461bcd60e51b815260206004820152602260248201527f45434453413a20696e76616c6964207369676e6174757265202773272076616c604482015261756560f01b6064820152608401610738565b6004816004811115612b6057634e487b7160e01b600052602160045260246000fd5b1415612bb95760405162461bcd60e51b815260206004820152602260248201527f45434453413a20696e76616c6964207369676e6174757265202776272076616c604482015261756560f01b6064820152608401610738565b50565b6000306001600160a01b037f000000000000000000000000000000000000000000000000000000000000000016148015612c1557507f000000000000000000000000000000000000000000000000000000000000000046145b15612c3f57507f000000000000000000000000000000000000000000000000000000000000000090565b50604080517f00000000000000000000000000000000000000000000000000000000000000006020808301919091527f0000000000000000000000000000000000000000000000000000000000000000828401527f000000000000000000000000000000000000000000000000000000000000000060608301524660808301523060a0808401919091528351808403909101815260c0909201909252805191012090565b6000807f7fffffffffffffffffffffffffffffff5d576e7357a4501ddfe92f46681b20a0831115612d1a5750600090506003612dc7565b8460ff16601b14158015612d3257508460ff16601c14155b15612d435750600090506004612dc7565b6040805160008082526020820180845289905260ff881692820192909252606081018690526080810185905260019060a0016020604051602081039080840390855afa158015612d97573d6000803e3d6000fd5b5050604051601f1901519150506001600160a01b038116612dc057600060019250925050612dc7565b9150600090505b94509492505050565b6000806001600160ff1b03831681612ded60ff86901c601b6134b0565b9050612dfb87828885612ce3565b935093505050935093915050565b6040805160c0810182526000808252602082018190529181018290526060808201839052608082015260a081019190915290565b828054612e4990613555565b90600052602060002090601f016020900481019282612e6b5760008555612eb1565b82601f10612e8457805160ff1916838001178555612eb1565b82800160010185558215612eb1579182015b82811115612eb1578251825591602001919060010190612e96565b50612ebd929150612ec1565b5090565b5b80821115612ebd5760008155600101612ec2565b80356001600160a01b0381168114612eed57600080fd5b919050565b600060208284031215612f03578081fd5b61128c82612ed6565b60008060408385031215612f1e578081fd5b612f2783612ed6565b9150612f3560208401612ed6565b90509250929050565b600080600060608486031215612f52578081fd5b612f5b84612ed6565b9250612f6960208501612ed6565b9150604084013590509250925092565b60008060008060808587031215612f8e578081fd5b612f9785612ed6565b9350612fa560208601612ed6565b925060408501359150606085013567ffffffffffffffff80821115612fc8578283fd5b818701915087601f830112612fdb578283fd5b813581811115612fed57612fed6135eb565b604051601f8201601f19908116603f01168101908382118183101715613015576130156135eb565b816040528281528a602084870101111561302d578586fd5b82602086016020830137918201602001949094529598949750929550505050565b60008060408385031215613060578182fd5b61306983612ed6565b91506020830135801515811461307d578182fd5b809150509250929050565b6000806040838503121561309a578182fd5b6130a383612ed6565b946020939093013593505050565b6000602082840312156130c2578081fd5b5035919050565b600080604083850312156130db578182fd5b82359150612f3560208401612ed6565b6000602082840312156130fc578081fd5b813561128c81613601565b600060208284031215613118578081fd5b815161128c81613601565b600060208284031215613134578081fd5b813567ffffffffffffffff81111561314a578182fd5b82016080818503121561128c578182fd5b6000806040838503121561316d578182fd5b50508035926020909101359150565b60008151808452613194816020860160208601613512565b601f01601f19169290920160200192915050565b805182526000602082015160018060a01b038082166020860152806040850151166040860152505060608201516060840152608082015160c060808501526131f360c085018261317c565b60a0938401511515949093019390935250919050565b8183823760009101908152919050565b6000835161322b818460208801613512565b83519083019061323f818360208801613512565b01949350505050565b7f416363657373436f6e74726f6c3a206163636f756e7420000000000000000000815260008351613280816017850160208801613512565b7001034b99036b4b9b9b4b733903937b6329607d1b60179184019182015283516132b1816028840160208801613512565b01602801949350505050565b6001600160a01b03858116825284166020820152604081018390526080606082018190526000906132f09083018461317c565b9695505050505050565b6001600160a01b038681168252851660208201526040810184905260a06060820181905260009061332d9083018561317c565b905082151560808301529695505050505050565b6000602080830181845280855180835260408601915060408160051b8701019250838701855b8281101561339557603f198886030184526133838583516131a8565b94509285019290850190600101613367565b5092979650505050505050565b60208152600061128c602083018461317c565b60208082526032908201527f4552433732313a207472616e7366657220746f206e6f6e20455243373231526560408201527131b2b4bb32b91034b6b83632b6b2b73a32b960711b606082015260800190565b60208082526031908201527f4552433732313a207472616e736665722063616c6c6572206973206e6f74206f6040820152701ddb995c881b9bdc88185c1c1c9bdd9959607a1b606082015260800190565b60208152600061128c60208301846131a8565b6000808335601e19843603018112613481578283fd5b83018035915067ffffffffffffffff82111561349b578283fd5b6020019150368190038213156129b157600080fd5b600082198211156134c3576134c36135bf565b500190565b6000826134d7576134d76135d5565b500490565b60008160001904831182151516156134f6576134f66135bf565b500290565b60008282101561350d5761350d6135bf565b500390565b60005b8381101561352d578181015183820152602001613515565b8381111561133d5750506000910152565b60008161354d5761354d6135bf565b506000190190565b600181811c9082168061356957607f821691505b6020821081141561358a57634e487b7160e01b600052602260045260246000fd5b50919050565b60006000198214156135a4576135a46135bf565b5060010190565b6000826135ba576135ba6135d5565b500690565b634e487b7160e01b600052601160045260246000fd5b634e487b7160e01b600052601260045260246000fd5b634e487b7160e01b600052604160045260246000fd5b6001600160e01b031981168114612bb957600080fdfea26469706673582212207e76a3e771096fd1e9d5b710b72a9b9a4dfe12c9c56f72b9964d3d81d487993264736f6c63430008040033",
  "linkReferences": {},
  "deployedLinkReferences": {}
}