{
  "_format": "hh-sol-artifact-1",
  "contractName": "NFTMarketplace",
  "sourceName": "contracts/NFTMarketplace.sol",
  "abi": [
    {
      "anonymous": false,
      "inputs": [
        {
          "indexed": true,
          "internalType": "address",
          "name": "owner",
          "type": "address"
        },
        {
          "indexed": true,
          "internalType": "address",
          "name": "approved",
          "type": "address"
        },
        {
          "indexed": true,
          "internalType": "uint256",
          "name": "tokenId",
          "type": "uint256"
        }
      ],
      "name": "Approval",
      "type": "event"
    },
    {
      "anonymous": false,
      "inputs": [
        {
          "indexed": true,
          "internalType": "address",
          "name": "owner",
          "type": "address"
        },
        {
          "indexed": true,
          "internalType": "address",
          "name": "operator",
          "type": "address"
        },
        {
          "indexed": false,
          "internalType": "bool",
          "name": "approved",
          "type": "bool"
        }
      ],
      "name": "ApprovalForAll",
      "type": "event"
    },
    {
      "anonymous": false,
      "inputs": [
        {
          "indexed": true,
          "internalType": "uint256",
          "name": "tokenId",
          "type": "uint256"
        },
        {
          "indexed": false,
          "internalType": "address",
          "name": "seller",
          "type": "address"
        },
        {
          "indexed": false,
          "internalType": "address",
          "name": "owner",
          "type": "address"
        },
        {
          "indexed": false,
          "internalType": "uint256",
          "name": "price",
          "type": "uint256"
        },
        {
          "indexed": false,
          "internalType": "string",
          "name": "tokenURI",
          "type": "string"
        },
        {
          "indexed": false,
          "internalType": "bool",
          "name": "sold",
          "type": "bool"
        }
      ],
      "name": "MarketItemCreated",
      "type": "event"
    },
    {
      "anonymous": false,
      "inputs": [
        {
          "indexed": true,
          "internalType": "bytes32",
          "name": "role",
          "type": "bytes32"
        },
        {
          "indexed": true,
          "internalType": "bytes32",
          "name": "previousAdminRole",
          "type": "bytes32"
        },
        {
          "indexed": true,
          "internalType": "bytes32",
          "name": "newAdminRole",
          "type": "bytes32"
        }
      ],
      "name": "RoleAdminChanged",
      "type": "event"
    },
    {
      "anonymous": false,
      "inputs": [
        {
          "indexed": true,
          "internalType": "bytes32",
          "name": "role",
          "type": "bytes32"
        },
        {
          "indexed": true,
          "internalType": "address",
          "name": "account",
          "type": "address"
        },
        {
          "indexed": true,
          "internalType": "address",
          "name": "sender",
          "type": "address"
        }
      ],
      "name": "RoleGranted",
      "type": "event"
    },
    {
      "anonymous": false,
      "inputs": [
        {
          "indexed": true,
          "internalType": "bytes32",
          "name": "role",
          "type": "bytes32"
        },
        {
          "indexed": true,
          "internalType": "address",
          "name": "account",
          "type": "address"
        },
        {
          "indexed": true,
          "internalType": "address",
          "name": "sender",
          "type": "address"
        }
      ],
      "name": "RoleRevoked",
      "type": "event"
    },
    {
      "anonymous": false,
      "inputs": [
        {
          "indexed": true,
          "internalType": "address",
          "name": "from",
          "type": "address"
        },
        {
          "indexed": true,
          "internalType": "address",
          "name": "to",
          "type": "address"
        },
        {
          "indexed": true,
          "internalType": "uint256",
          "name": "tokenId",
          "type": "uint256"
        }
      ],
      "name": "Transfer",
      "type": "event"
    },
    {
      "inputs": [],
      "name": "DEFAULT_ADMIN_ROLE",
      "outputs": [
        {
          "internalType": "bytes32",
          "name": "",
          "type": "bytes32"
        }
      ],
      "stateMutability": "view",
      "type": "function"
    },
    {
      "inputs": [],
      "name": "MINTER_ROLE",
      "outputs": [
        {
          "internalType": "bytes32",
          "name": "",
          "type": "bytes32"
        }
      ],
      "stateMutability": "view",
      "type": "function"
    },
    {
      "inputs": [
        {
          "internalType": "address",
          "name": "to",
          "type": "address"
        },
        {
          "internalType": "uint256",
          "name": "tokenId",
          "type": "uint256"
        }
      ],
      "name": "approve",
      "outputs": [],
      "stateMutability": "nonpayable",
      "type": "function"
    },
    {
      "inputs": [],
      "name": "availableToWithdraw",
      "outputs": [
        {
          "internalType": "uint256",
          "name": "",
          "type": "uint256"
        }
      ],
      "stateMutability": "view",
      "type": "function"
    },
    {
      "inputs": [
        {
          "internalType": "address",
          "name": "owner",
          "type": "address"
        }
      ],
      "name": "balanceOf",
      "outputs": [
        {
          "internalType": "uint256",
          "name": "",
          "type": "uint256"
        }
      ],
      "stateMutability": "view",
      "type": "function"
    },
    {
      "inputs": [
        {
          "internalType": "uint256",
          "name": "tokenId",
          "type": "uint256"
        }
      ],
      "name": "createMarketSale",
      "outputs": [],
      "stateMutability": "payable",
      "type": "function"
    },
    {
      "inputs": [
        {
          "components": [
            {
              "internalType": "uint256",
              "name": "tokenId",
              "type": "uint256"
            },
            {
              "internalType": "uint256",
              "name": "price",
              "type": "uint256"
            },
            {
              "internalType": "string",
              "name": "uri",
              "type": "string"
            },
            {
              "internalType": "bytes",
              "name": "signature",
              "type": "bytes"
            }
          ],
          "internalType": "struct NFTMarketplace.NFTVoucher",
          "name": "voucher",
          "type": "tuple"
        }
      ],
      "name": "createToken",
      "outputs": [
        {
          "internalType": "uint256",
          "name": "",
          "type": "uint256"
        }
      ],
      "stateMutability": "payable",
      "type": "function"
    },
    {
      "inputs": [
        {
          "internalType": "uint256",
          "name": "tokenId",
          "type": "uint256"
        }
      ],
      "name": "fetchMarketItem",
      "outputs": [
        {
          "components": [
            {
              "internalType": "uint256",
              "name": "tokenId",
              "type": "uint256"
            },
            {
              "internalType": "address payable",
              "name": "seller",
              "type": "address"
            },
            {
              "internalType": "address payable",
              "name": "owner",
              "type": "address"
            },
            {
              "internalType": "uint256",
              "name": "price",
              "type": "uint256"
            },
            {
              "internalType": "string",
              "name": "tokenURI",
              "type": "string"
            },
            {
              "internalType": "bool",
              "name": "sold",
              "type": "bool"
            }
          ],
          "internalType": "struct NFTMarketplace.MarketItem",
          "name": "",
          "type": "tuple"
        }
      ],
      "stateMutability": "view",
      "type": "function"
    },
    {
      "inputs": [],
      "name": "fetchMarketItems",
      "outputs": [
        {
          "components": [
            {
              "internalType": "uint256",
              "name": "tokenId",
              "type": "uint256"
            },
            {
              "internalType": "address payable",
              "name": "seller",
              "type": "address"
            },
            {
              "internalType": "address payable",
              "name": "owner",
              "type": "address"
            },
            {
              "internalType": "uint256",
              "name": "price",
              "type": "uint256"
            },
            {
              "internalType": "string",
              "name": "tokenURI",
              "type": "string"
            },
            {
              "internalType": "bool",
              "name": "sold",
              "type": "bool"
            }
          ],
          "internalType": "struct NFTMarketplace.MarketItem[]",
          "name": "",
          "type": "tuple[]"
        }
      ],
      "stateMutability": "view",
      "type": "function"
    },
    {
      "inputs": [],
      "name": "fetchMyNFTs",
      "outputs": [
        {
          "components": [
            {
              "internalType": "uint256",
              "name": "tokenId",
              "type": "uint256"
            },
            {
              "internalType": "address payable",
              "name": "seller",
              "type": "address"
            },
            {
              "internalType": "address payable",
              "name": "owner",
              "type": "address"
            },
            {
              "internalType": "uint256",
              "name": "price",
              "type": "uint256"
            },
            {
              "internalType": "string",
              "name": "tokenURI",
              "type": "string"
            },
            {
              "internalType": "bool",
              "name": "sold",
              "type": "bool"
            }
          ],
          "internalType": "struct NFTMarketplace.MarketItem[]",
          "name": "",
          "type": "tuple[]"
        }
      ],
      "stateMutability": "view",
      "type": "function"
    },
    {
      "inputs": [
        {
          "internalType": "uint256",
          "name": "tokenId",
          "type": "uint256"
        }
      ],
      "name": "getApproved",
      "outputs": [
        {
          "internalType": "address",
          "name": "",
          "type": "address"
        }
      ],
      "stateMutability": "view",
      "type": "function"
    },
    {
      "inputs": [],
      "name": "getChainID",
      "outputs": [
        {
          "internalType": "uint256",
          "name": "",
          "type": "uint256"
        }
      ],
      "stateMutability": "view",
      "type": "function"
    },
    {
      "inputs": [],
      "name": "getCurrentTokenId",
      "outputs": [
        {
          "internalType": "uint256",
          "name": "",
          "type": "uint256"
        }
      ],
      "stateMutability": "view",
      "type": "function"
    },
    {
      "inputs": [
        {
          "internalType": "bytes32",
          "name": "role",
          "type": "bytes32"
        }
      ],
      "name": "getRoleAdmin",
      "outputs": [
        {
          "internalType": "bytes32",
          "name": "",
          "type": "bytes32"
        }
      ],
      "stateMutability": "view",
      "type": "function"
    },
    {
      "inputs": [
        {
          "internalType": "bytes32",
          "name": "role",
          "type": "bytes32"
        },
        {
          "internalType": "address",
          "name": "account",
          "type": "address"
        }
      ],
      "name": "grantRole",
      "outputs": [],
      "stateMutability": "nonpayable",
      "type": "function"
    },
    {
      "inputs": [
        {
          "internalType": "bytes32",
          "name": "role",
          "type": "bytes32"
        },
        {
          "internalType": "address",
          "name": "account",
          "type": "address"
        }
      ],
      "name": "hasRole",
      "outputs": [
        {
          "internalType": "bool",
          "name": "",
          "type": "bool"
        }
      ],
      "stateMutability": "view",
      "type": "function"
    },
    {
      "inputs": [
        {
          "internalType": "address payable",
          "name": "minter",
          "type": "address"
        }
      ],
      "name": "initialize",
      "outputs": [],
      "stateMutability": "nonpayable",
      "type": "function"
    },
    {
      "inputs": [
        {
          "internalType": "address",
          "name": "owner",
          "type": "address"
        },
        {
          "internalType": "address",
          "name": "operator",
          "type": "address"
        }
      ],
      "name": "isApprovedForAll",
      "outputs": [
        {
          "internalType": "bool",
          "name": "",
          "type": "bool"
        }
      ],
      "stateMutability": "view",
      "type": "function"
    },
    {
      "inputs": [],
      "name": "name",
      "outputs": [
        {
          "internalType": "string",
          "name": "",
          "type": "string"
        }
      ],
      "stateMutability": "view",
      "type": "function"
    },
    {
      "inputs": [
        {
          "internalType": "uint256",
          "name": "tokenId",
          "type": "uint256"
        }
      ],
      "name": "ownerOf",
      "outputs": [
        {
          "internalType": "address",
          "name": "",
          "type": "address"
        }
      ],
      "stateMutability": "view",
      "type": "function"
    },
    {
      "inputs": [
        {
          "internalType": "bytes32",
          "name": "role",
          "type": "bytes32"
        },
        {
          "internalType": "address",
          "name": "account",
          "type": "address"
        }
      ],
      "name": "renounceRole",
      "outputs": [],
      "stateMutability": "nonpayable",
      "type": "function"
    },
    {
      "inputs": [
        {
          "internalType": "bytes32",
          "name": "role",
          "type": "bytes32"
        },
        {
          "internalType": "address",
          "name": "account",
          "type": "address"
        }
      ],
      "name": "revokeRole",
      "outputs": [],
      "stateMutability": "nonpayable",
      "type": "function"
    },
    {
      "inputs": [
        {
          "internalType": "address",
          "name": "from",
          "type": "address"
        },
        {
          "internalType": "address",
          "name": "to",
          "type": "address"
        },
        {
          "internalType": "uint256",
          "name": "tokenId",
          "type": "uint256"
        }
      ],
      "name": "safeTransferFrom",
      "outputs": [],
      "stateMutability": "nonpayable",
      "type": "function"
    },
    {
      "inputs": [
        {
          "internalType": "address",
          "name": "from",
          "type": "address"
        },
        {
          "internalType": "address",
          "name": "to",
          "type": "address"
        },
        {
          "internalType": "uint256",
          "name": "tokenId",
          "type": "uint256"
        },
        {
          "internalType": "bytes",
          "name": "_data",
          "type": "bytes"
        }
      ],
      "name": "safeTransferFrom",
      "outputs": [],
      "stateMutability": "nonpayable",
      "type": "function"
    },
    {
      "inputs": [
        {
          "internalType": "address",
          "name": "operator",
          "type": "address"
        },
        {
          "internalType": "bool",
          "name": "approved",
          "type": "bool"
        }
      ],
      "name": "setApprovalForAll",
      "outputs": [],
      "stateMutability": "nonpayable",
      "type": "function"
    },
    {
      "inputs": [
        {
          "internalType": "bytes4",
          "name": "interfaceId",
          "type": "bytes4"
        }
      ],
      "name": "supportsInterface",
      "outputs": [
        {
          "internalType": "bool",
          "name": "",
          "type": "bool"
        }
      ],
      "stateMutability": "view",
      "type": "function"
    },
    {
      "inputs": [],
      "name": "symbol",
      "outputs": [
        {
          "internalType": "string",
          "name": "",
          "type": "string"
        }
      ],
      "stateMutability": "view",
      "type": "function"
    },
    {
      "inputs": [],
      "name": "testMarketItems",
      "outputs": [
        {
          "components": [
            {
              "internalType": "uint256",
              "name": "tokenId",
              "type": "uint256"
            },
            {
              "internalType": "address payable",
              "name": "seller",
              "type": "address"
            },
            {
              "internalType": "address payable",
              "name": "owner",
              "type": "address"
            },
            {
              "internalType": "uint256",
              "name": "price",
              "type": "uint256"
            },
            {
              "internalType": "string",
              "name": "tokenURI",
              "type": "string"
            },
            {
              "internalType": "bool",
              "name": "sold",
              "type": "bool"
            }
          ],
          "internalType": "struct NFTMarketplace.MarketItem[]",
          "name": "",
          "type": "tuple[]"
        }
      ],
      "stateMutability": "view",
      "type": "function"
    },
    {
      "inputs": [
        {
          "internalType": "uint256",
          "name": "tokenId",
          "type": "uint256"
        }
      ],
      "name": "tokenURI",
      "outputs": [
        {
          "internalType": "string",
          "name": "",
          "type": "string"
        }
      ],
      "stateMutability": "view",
      "type": "function"
    },
    {
      "inputs": [
        {
          "internalType": "address",
          "name": "from",
          "type": "address"
        },
        {
          "internalType": "address",
          "name": "to",
          "type": "address"
        },
        {
          "internalType": "uint256",
          "name": "tokenId",
          "type": "uint256"
        }
      ],
      "name": "transferFrom",
      "outputs": [],
      "stateMutability": "nonpayable",
      "type": "function"
    },
    {
      "inputs": [],
      "name": "withdraw",
      "outputs": [],
      "stateMutability": "nonpayable",
      "type": "function"
    }
  ],
  "bytecode": "0x608060405234801561001057600080fd5b506135fe806100206000396000f3fe6080604052600436106101d85760003560e01c80636352211e11610102578063be9af53611610095578063d539139311610064578063d539139314610532578063d547741f14610554578063e322ad2b14610574578063e985e9c51461059757600080fd5b8063be9af536146104ca578063c3a8c30c146104dd578063c4d66de8146104f2578063c87b56dd1461051257600080fd5b8063a217fddf116100d1578063a217fddf14610462578063a22cb46514610477578063a4b3cce614610497578063b88d4fde146104aa57600080fd5b80636352211e146103ed57806370a082311461040d57806391d148541461042d57806395d89b411461044d57600080fd5b8063248a9ca31161017a5780633ccfd60b116101495780633ccfd60b1461039057806342842e0e146103a557806356189236146103c5578063564b81ef146103da57600080fd5b8063248a9ca3146102e55780632a45b250146103235780632f2ff15d1461035057806336568abe1461037057600080fd5b8063095ea7b3116101b6578063095ea7b31461026c5780630f08efe01461028e578063202e3740146102b057806323b872dd146102c557600080fd5b806301ffc9a7146101dd57806306fdde0314610212578063081812fc14610234575b600080fd5b3480156101e957600080fd5b506101fd6101f836600461303d565b6105e0565b60405190151581526020015b60405180910390f35b34801561021e57600080fd5b50610227610600565b60405161020991906132d3565b34801561024057600080fd5b5061025461024f366004613001565b610692565b6040516001600160a01b039091168152602001610209565b34801561027857600080fd5b5061028c610287366004612fd6565b61071f565b005b34801561029a57600080fd5b506102a3610835565b6040516102099190613272565b3480156102bc57600080fd5b506102a3610a6b565b3480156102d157600080fd5b5061028c6102e0366004612e8c565b610cde565b3480156102f157600080fd5b50610315610300366004613001565b600090815260fd602052604090206001015490565b604051908152602001610209565b34801561032f57600080fd5b5061034361033e366004613001565b610d0f565b60405161020991906133d4565b34801561035c57600080fd5b5061028c61036b366004613019565b610e16565b34801561037c57600080fd5b5061028c61038b366004613019565b610e3c565b34801561039c57600080fd5b5061028c610eba565b3480156103b157600080fd5b5061028c6103c0366004612e8c565b610f6e565b3480156103d157600080fd5b50610315610f89565b3480156103e657600080fd5b5046610315565b3480156103f957600080fd5b50610254610408366004613001565b610f9a565b34801561041957600080fd5b50610315610428366004612e38565b611011565b34801561043957600080fd5b506101fd610448366004613019565b611098565b34801561045957600080fd5b506102276110c3565b34801561046e57600080fd5b50610315600081565b34801561048357600080fd5b5061028c610492366004612fa5565b6110d2565b6103156104a5366004613075565b6110dd565b3480156104b657600080fd5b5061028c6104c5366004612ecc565b611240565b61028c6104d8366004613001565b611278565b3480156104e957600080fd5b506102a361142c565b3480156104fe57600080fd5b5061028c61050d366004612e38565b611659565b34801561051e57600080fd5b5061022761052d366004613001565b6117cc565b34801561053e57600080fd5b506103156000805160206135a983398151915281565b34801561056057600080fd5b5061028c61056f366004613019565b611943565b34801561058057600080fd5b503360009081526101316020526040902054610315565b3480156105a357600080fd5b506101fd6105b2366004612e54565b6001600160a01b039182166000908152606a6020908152604080832093909416825291909152205460ff1690565b60006105eb82611969565b806105fa57506105fa826119b9565b92915050565b60606065805461060f906134d1565b80601f016020809104026020016040519081016040528092919081815260200182805461063b906134d1565b80156106885780601f1061065d57610100808354040283529160200191610688565b820191906000526020600020905b81548152906001019060200180831161066b57829003601f168201915b5050505050905090565b600061069d826119de565b6107035760405162461bcd60e51b815260206004820152602c60248201527f4552433732313a20617070726f76656420717565727920666f72206e6f6e657860448201526b34b9ba32b73a103a37b5b2b760a11b60648201526084015b60405180910390fd5b506000908152606960205260409020546001600160a01b031690565b600061072a82610f9a565b9050806001600160a01b0316836001600160a01b031614156107985760405162461bcd60e51b815260206004820152602160248201527f4552433732313a20617070726f76616c20746f2063757272656e74206f776e656044820152603960f91b60648201526084016106fa565b336001600160a01b03821614806107b457506107b481336105b2565b6108265760405162461bcd60e51b815260206004820152603860248201527f4552433732313a20617070726f76652063616c6c6572206973206e6f74206f7760448201527f6e6572206e6f7220617070726f76656420666f7220616c6c000000000000000060648201526084016106fa565b61083083836119fb565b505050565b6060600061084361012f5490565b905060006108516101305490565b61012f5461085f9190613477565b90506000808267ffffffffffffffff81111561088b57634e487b7160e01b600052604160045260246000fd5b6040519080825280602002602001820160405280156108c457816020015b6108b1612d6b565b8152602001906001900390816108a95790505b50905060005b84811015610a62573061013360006108e384600161342c565b81526020810191909152604001600020600201546001600160a01b03161415610a5057600061091382600161342c565b60008181526101336020908152604091829020825160c0810184528154815260018201546001600160a01b039081169382019390935260028201549092169282019290925260038201546060820152600482018054939450919290918391608084019190610980906134d1565b80601f01602080910402602001604051908101604052809291908181526020018280546109ac906134d1565b80156109f95780601f106109ce576101008083540402835291602001916109f9565b820191906000526020600020905b8154815290600101906020018083116109dc57829003601f168201915b50505091835250506005919091015460ff1615156020909101528451859087908110610a3557634e487b7160e01b600052603260045260246000fd5b6020908102919091010152610a4b60018661342c565b945050505b80610a5a8161350c565b9150506108ca565b50949350505050565b60606000610a7961012f5490565b905060008060005b83811015610add57336101336000610a9a84600161342c565b81526020810191909152604001600020600201546001600160a01b03161415610acb57610ac860018461342c565b92505b80610ad58161350c565b915050610a81565b5060008267ffffffffffffffff811115610b0757634e487b7160e01b600052604160045260246000fd5b604051908082528060200260200182016040528015610b4057816020015b610b2d612d6b565b815260200190600190039081610b255790505b50905060005b84811015610a6257336101336000610b5f84600161342c565b81526020810191909152604001600020600201546001600160a01b03161415610ccc576000610b8f82600161342c565b60008181526101336020908152604091829020825160c0810184528154815260018201546001600160a01b039081169382019390935260028201549092169282019290925260038201546060820152600482018054939450919290918391608084019190610bfc906134d1565b80601f0160208091040260200160405190810160405280929190818152602001828054610c28906134d1565b8015610c755780601f10610c4a57610100808354040283529160200191610c75565b820191906000526020600020905b815481529060010190602001808311610c5857829003601f168201915b50505091835250506005919091015460ff1615156020909101528451859087908110610cb157634e487b7160e01b600052603260045260246000fd5b6020908102919091010152610cc760018661342c565b945050505b80610cd68161350c565b915050610b46565b610ce83382611a69565b610d045760405162461bcd60e51b81526004016106fa90613338565b610830838383611b4f565b610d17612d6b565b60008281526101336020908152604091829020825160c0810184528154815260018201546001600160a01b03908116938201939093526002820154909216928201929092526003820154606082015260048201805483916080840191610d7c906134d1565b80601f0160208091040260200160405190810160405280929190818152602001828054610da8906134d1565b8015610df55780601f10610dca57610100808354040283529160200191610df5565b820191906000526020600020905b815481529060010190602001808311610dd857829003601f168201915b50505091835250506005919091015460ff1615156020909101529392505050565b600082815260fd6020526040902060010154610e328133611ceb565b6108308383611d4f565b6001600160a01b0381163314610eac5760405162461bcd60e51b815260206004820152602f60248201527f416363657373436f6e74726f6c3a2063616e206f6e6c792072656e6f756e636560448201526e103937b632b9903337b91039b2b63360891b60648201526084016106fa565b610eb68282611dd5565b5050565b610ed26000805160206135a983398151915233611098565b610f2a5760405162461bcd60e51b8152602060048201526024808201527f4f6e6c7920617574686f72697a6564206d696e746572732063616e20776974686044820152636472617760e01b60648201526084016106fa565b336000818152610131602052604080822080549083905590519091839183156108fc0291849190818181858888f19350505050158015610830573d6000803e3d6000fd5b61083083838360405180602001604052806000815250611240565b6000610f9561012f5490565b905090565b6000818152606760205260408120546001600160a01b0316806105fa5760405162461bcd60e51b815260206004820152602960248201527f4552433732313a206f776e657220717565727920666f72206e6f6e657869737460448201526832b73a103a37b5b2b760b91b60648201526084016106fa565b60006001600160a01b03821661107c5760405162461bcd60e51b815260206004820152602a60248201527f4552433732313a2062616c616e636520717565727920666f7220746865207a65604482015269726f206164647265737360b01b60648201526084016106fa565b506001600160a01b031660009081526068602052604090205490565b600091825260fd602090815260408084206001600160a01b0393909316845291905290205460ff1690565b60606066805461060f906134d1565b610eb6338383611e3c565b6000806110e983611f0b565b90506111036000805160206135a983398151915282611098565b6111595760405162461bcd60e51b815260206004820152602160248201527f5369676e617475726520696e76616c6964206f7220756e617574686f72697a656044820152601960fa1b60648201526084016106fa565b61012f5461116890600161342c565b8335146111cc5760405162461bcd60e51b815260206004820152602c60248201527f546f6b656e496420696e2074686520766f7563686572206973206e6f7420766160448201526b6c696420616e79206d6f726560a01b60648201526084016106fa565b6111db61012f80546001019055565b60006111e761012f5490565b90506112398160208601356111ff60408801886133e7565b8080601f016020809104026020016040519081016040528093929190818152602001838380828437600092019190915250611f6492505050565b9392505050565b61124a3383611a69565b6112665760405162461bcd60e51b81526004016106fa90613338565b6112728484848461205e565b50505050565b60008181526101336020526040902060038101546001909101546001600160a01b0316348211156112eb5760405162461bcd60e51b815260206004820152601c60248201527f496e73756666696369656e742066756e647320746f2072656465656d0000000060448201526064016106fa565b6112f58184612091565b600083815261013360205260409020600401805461139b918591611318906134d1565b80601f0160208091040260200160405190810160405280929190818152602001828054611344906134d1565b80156113915780601f1061136657610100808354040283529160200191611391565b820191906000526020600020905b81548152906001019060200180831161137457829003601f168201915b50505050506121c4565b6000838152610133602052604090206002810180546001600160a01b0319908116331790915560058201805460ff19166001908117909155909101805490911690556113ec61013080546001019055565b6113f7813385611b4f565b6040516001600160a01b038216903480156108fc02916000818181858888f19350505050158015611272573d6000803e3d6000fd5b6060600061143a61012f5490565b905060006114486101305490565b61012f546114569190613477565b90506000808267ffffffffffffffff81111561148257634e487b7160e01b600052604160045260246000fd5b6040519080825280602002602001820160405280156114bb57816020015b6114a8612d6b565b8152602001906001900390816114a05790505b50905060005b84811015610a62573061013360006114da84600161342c565b81526020810191909152604001600020600201546001600160a01b0316141561164757600061150a82600161342c565b60008181526101336020908152604091829020825160c0810184528154815260018201546001600160a01b039081169382019390935260028201549092169282019290925260038201546060820152600482018054939450919290918391608084019190611577906134d1565b80601f01602080910402602001604051908101604052809291908181526020018280546115a3906134d1565b80156115f05780601f106115c5576101008083540402835291602001916115f0565b820191906000526020600020905b8154815290600101906020018083116115d357829003601f168201915b50505091835250506005919091015460ff161515602090910152845185908790811061162c57634e487b7160e01b600052603260045260246000fd5b602090810291909101015261164260018661342c565b945050505b806116518161350c565b9150506114c1565b600054610100900460ff166116745760005460ff1615611678565b303b155b6116db5760405162461bcd60e51b815260206004820152602e60248201527f496e697469616c697a61626c653a20636f6e747261637420697320616c72656160448201526d191e481a5b9a5d1a585b1a5e995960921b60648201526084016106fa565b600054610100900460ff161580156116fd576000805461ffff19166101011790555b61170561224f565b61171d6000805160206135a983398151915283612278565b61176d60405180604001604052806013815260200172155adc985a5b9a585b905c9d1a5cdd1cd39195606a1b8152506040518060400160405280600381526020016229a62b60e91b815250612282565b6117b76040518060400160405280600f81526020016e2630bd3ca7232a16ab37bab1b432b960891b815250604051806040016040528060018152602001603160f81b8152506122b3565b8015610eb6576000805461ff00191690555050565b60606117d7826119de565b61183d5760405162461bcd60e51b815260206004820152603160248201527f45524337323155524953746f726167653a2055524920717565727920666f72206044820152703737b732bc34b9ba32b73a103a37b5b2b760791b60648201526084016106fa565b60008281526097602052604081208054611856906134d1565b80601f0160208091040260200160405190810160405280929190818152602001828054611882906134d1565b80156118cf5780601f106118a4576101008083540402835291602001916118cf565b820191906000526020600020905b8154815290600101906020018083116118b257829003601f168201915b5050505050905060006118ed60408051602081019091526000815290565b9050805160001415611900575092915050565b81511561193257808260405160200161191a92919061314a565b60405160208183030381529060405292505050919050565b61193b846122e4565b949350505050565b600082815260fd602052604090206001015461195f8133611ceb565b6108308383611dd5565b60006001600160e01b031982166380ac58cd60e01b148061199a57506001600160e01b03198216635b5e139f60e01b145b806105fa57506301ffc9a760e01b6001600160e01b03198316146105fa565b60006001600160e01b03198216637965db0b60e01b14806105fa57506105fa82611969565b6000908152606760205260409020546001600160a01b0316151590565b600081815260696020526040902080546001600160a01b0319166001600160a01b0384169081179091558190611a3082610f9a565b6001600160a01b03167f8c5be1e5ebec7d5bd14f71427d1e84f3dd0314c0f7b2291e5b200ac8c7c3b92560405160405180910390a45050565b6000611a74826119de565b611ad55760405162461bcd60e51b815260206004820152602c60248201527f4552433732313a206f70657261746f7220717565727920666f72206e6f6e657860448201526b34b9ba32b73a103a37b5b2b760a11b60648201526084016106fa565b6000611ae083610f9a565b9050806001600160a01b0316846001600160a01b03161480611b1b5750836001600160a01b0316611b1084610692565b6001600160a01b0316145b8061193b57506001600160a01b038082166000908152606a602090815260408083209388168352929052205460ff1661193b565b826001600160a01b0316611b6282610f9a565b6001600160a01b031614611bc65760405162461bcd60e51b815260206004820152602560248201527f4552433732313a207472616e736665722066726f6d20696e636f72726563742060448201526437bbb732b960d91b60648201526084016106fa565b6001600160a01b038216611c285760405162461bcd60e51b8152602060048201526024808201527f4552433732313a207472616e7366657220746f20746865207a65726f206164646044820152637265737360e01b60648201526084016106fa565b611c336000826119fb565b6001600160a01b0383166000908152606860205260408120805460019290611c5c908490613477565b90915550506001600160a01b0382166000908152606860205260408120805460019290611c8a90849061342c565b909155505060008181526067602052604080822080546001600160a01b0319166001600160a01b0386811691821790925591518493918716917fddf252ad1be2c89b69c2b068fc378daa952ba7f163c4a11628f55a4df523b3ef91a4505050565b611cf58282611098565b610eb657611d0d816001600160a01b031660146123bb565b611d188360206123bb565b604051602001611d29929190613179565b60408051601f198184030181529082905262461bcd60e51b82526106fa916004016132d3565b611d598282611098565b610eb657600082815260fd602090815260408083206001600160a01b03851684529091529020805460ff19166001179055611d913390565b6001600160a01b0316816001600160a01b0316837f2f8788117e7eff1d82e926ec794901d17c78024a50270940304540a733656f0d60405160405180910390a45050565b611ddf8282611098565b15610eb657600082815260fd602090815260408083206001600160a01b0385168085529252808320805460ff1916905551339285917ff6391f5c32d9c69d2a47ea670b442974b53935d1edc7fd64eb21e047a839171b9190a45050565b816001600160a01b0316836001600160a01b03161415611e9e5760405162461bcd60e51b815260206004820152601960248201527f4552433732313a20617070726f766520746f2063616c6c65720000000000000060448201526064016106fa565b6001600160a01b038381166000818152606a6020908152604080832094871680845294825291829020805460ff191686151590811790915591519182527f17307eab39ab6107e8899845ad3d59bd9653f200f220920489ca2b5937696c31910160405180910390a3505050565b600080611f178361259d565b905061123981611f2a60608601866133e7565b8080601f01602080910402602001604051908101604052809392919081815260200183838082843760009201919091525061262e92505050565b6040805160c081018252848152336020808301918252308385019081526060840187815260808501878152600060a087018190528a81526101338552969096208551815593516001850180546001600160a01b03199081166001600160a01b039384161790915592516002860180549094169116179091555160038301559251805192939192611ffa9260048501920190612d9f565b5060a091909101516005909101805460ff191691151591909117905560405183907fe4958780fe3b3f0505e410985e1047d8533d6d15ac3fb1c69558c491ed1f99659061205190339030908790879060009061322b565b60405180910390a2505050565b612069848484611b4f565b61207584848484612652565b6112725760405162461bcd60e51b81526004016106fa906132e6565b6001600160a01b0382166120e75760405162461bcd60e51b815260206004820181905260248201527f4552433732313a206d696e7420746f20746865207a65726f206164647265737360448201526064016106fa565b6120f0816119de565b1561213d5760405162461bcd60e51b815260206004820152601c60248201527f4552433732313a20746f6b656e20616c7265616479206d696e7465640000000060448201526064016106fa565b6001600160a01b038216600090815260686020526040812080546001929061216690849061342c565b909155505060008181526067602052604080822080546001600160a01b0319166001600160a01b03861690811790915590518392907fddf252ad1be2c89b69c2b068fc378daa952ba7f163c4a11628f55a4df523b3ef908290a45050565b6121cd826119de565b6122305760405162461bcd60e51b815260206004820152602e60248201527f45524337323155524953746f726167653a2055524920736574206f66206e6f6e60448201526d32bc34b9ba32b73a103a37b5b2b760911b60648201526084016106fa565b6000828152609760209081526040909120825161083092840190612d9f565b600054610100900460ff166122765760405162461bcd60e51b81526004016106fa90613389565b565b610eb68282611d4f565b600054610100900460ff166122a95760405162461bcd60e51b81526004016106fa90613389565b610eb6828261275f565b600054610100900460ff166122da5760405162461bcd60e51b81526004016106fa90613389565b610eb682826127ad565b60606122ef826119de565b6123535760405162461bcd60e51b815260206004820152602f60248201527f4552433732314d657461646174613a2055524920717565727920666f72206e6f60448201526e3732bc34b9ba32b73a103a37b5b2b760891b60648201526084016106fa565b600061236a60408051602081019091526000815290565b9050600081511161238a5760405180602001604052806000815250611239565b80612394846127ee565b6040516020016123a592919061314a565b6040516020818303038152906040529392505050565b606060006123ca836002613458565b6123d590600261342c565b67ffffffffffffffff8111156123fb57634e487b7160e01b600052604160045260246000fd5b6040519080825280601f01601f191660200182016040528015612425576020820181803683370190505b509050600360fc1b8160008151811061244e57634e487b7160e01b600052603260045260246000fd5b60200101906001600160f81b031916908160001a905350600f60fb1b8160018151811061248b57634e487b7160e01b600052603260045260246000fd5b60200101906001600160f81b031916908160001a90535060006124af846002613458565b6124ba90600161342c565b90505b600181111561254e576f181899199a1a9b1b9c1cb0b131b232b360811b85600f16601081106124fc57634e487b7160e01b600052603260045260246000fd5b1a60f81b82828151811061252057634e487b7160e01b600052603260045260246000fd5b60200101906001600160f81b031916908160001a90535060049490941c93612547816134ba565b90506124bd565b5083156112395760405162461bcd60e51b815260206004820181905260248201527f537472696e67733a20686578206c656e67746820696e73756666696369656e7460448201526064016106fa565b60006105fa7f187a5a3cecea031f9efa92ea3d1c193869f456110d6ea18015cab768a37f4b79833560208501356125d760408701876133e7565b6040516125e592919061313a565b6040519081900381206126139493929160200193845260208401929092526040830152606082015260800190565b60405160208183030381529060405280519060200120612908565b600080600061263d8585612956565b9150915061264a816129c6565b509392505050565b60006001600160a01b0384163b1561275457604051630a85bd0160e11b81526001600160a01b0385169063150b7a02906126969033908990889088906004016131ee565b602060405180830381600087803b1580156126b057600080fd5b505af19250505080156126e0575060408051601f3d908101601f191682019092526126dd91810190613059565b60015b61273a573d80801561270e576040519150601f19603f3d011682016040523d82523d6000602084013e612713565b606091505b5080516127325760405162461bcd60e51b81526004016106fa906132e6565b805181602001fd5b6001600160e01b031916630a85bd0160e11b14905061193b565b506001949350505050565b600054610100900460ff166127865760405162461bcd60e51b81526004016106fa90613389565b8151612799906065906020850190612d9f565b508051610830906066906020840190612d9f565b600054610100900460ff166127d45760405162461bcd60e51b81526004016106fa90613389565b81516020928301208151919092012060c99190915560ca55565b6060816128125750506040805180820190915260018152600360fc1b602082015290565b8160005b811561283c57806128268161350c565b91506128359050600a83613444565b9150612816565b60008167ffffffffffffffff81111561286557634e487b7160e01b600052604160045260246000fd5b6040519080825280601f01601f19166020018201604052801561288f576020820181803683370190505b5090505b841561193b576128a4600183613477565b91506128b1600a86613527565b6128bc90603061342c565b60f81b8183815181106128df57634e487b7160e01b600052603260045260246000fd5b60200101906001600160f81b031916908160001a905350612901600a86613444565b9450612893565b60006105fa612915612bca565b8360405161190160f01b6020820152602281018390526042810182905260009060620160405160208183030381529060405280519060200120905092915050565b60008082516041141561298d5760208301516040840151606085015160001a61298187828585612c45565b945094505050506129bf565b8251604014156129b757602083015160408401516129ac868383612d32565b9350935050506129bf565b506000905060025b9250929050565b60008160048111156129e857634e487b7160e01b600052602160045260246000fd5b14156129f15750565b6001816004811115612a1357634e487b7160e01b600052602160045260246000fd5b1415612a615760405162461bcd60e51b815260206004820152601860248201527f45434453413a20696e76616c6964207369676e6174757265000000000000000060448201526064016106fa565b6002816004811115612a8357634e487b7160e01b600052602160045260246000fd5b1415612ad15760405162461bcd60e51b815260206004820152601f60248201527f45434453413a20696e76616c6964207369676e6174757265206c656e6774680060448201526064016106fa565b6003816004811115612af357634e487b7160e01b600052602160045260246000fd5b1415612b4c5760405162461bcd60e51b815260206004820152602260248201527f45434453413a20696e76616c6964207369676e6174757265202773272076616c604482015261756560f01b60648201526084016106fa565b6004816004811115612b6e57634e487b7160e01b600052602160045260246000fd5b1415612bc75760405162461bcd60e51b815260206004820152602260248201527f45434453413a20696e76616c6964207369676e6174757265202776272076616c604482015261756560f01b60648201526084016106fa565b50565b6000610f957f8b73c3c69bb8fe3d512ecc4cf759cc79239f7b179b0ffacaa9a75d522b39400f612bf960c95490565b60ca546040805160208101859052908101839052606081018290524660808201523060a082015260009060c0016040516020818303038152906040528051906020012090509392505050565b6000807f7fffffffffffffffffffffffffffffff5d576e7357a4501ddfe92f46681b20a0831115612c7c5750600090506003612d29565b8460ff16601b14158015612c9457508460ff16601c14155b15612ca55750600090506004612d29565b6040805160008082526020820180845289905260ff881692820192909252606081018690526080810185905260019060a0016020604051602081039080840390855afa158015612cf9573d6000803e3d6000fd5b5050604051601f1901519150506001600160a01b038116612d2257600060019250925050612d29565b9150600090505b94509492505050565b6000806001600160ff1b03831681612d4f60ff86901c601b61342c565b9050612d5d87828885612c45565b935093505050935093915050565b6040805160c0810182526000808252602082018190529181018290526060808201839052608082015260a081019190915290565b828054612dab906134d1565b90600052602060002090601f016020900481019282612dcd5760008555612e13565b82601f10612de657805160ff1916838001178555612e13565b82800160010185558215612e13579182015b82811115612e13578251825591602001919060010190612df8565b50612e1f929150612e23565b5090565b5b80821115612e1f5760008155600101612e24565b600060208284031215612e49578081fd5b81356112398161357d565b60008060408385031215612e66578081fd5b8235612e718161357d565b91506020830135612e818161357d565b809150509250929050565b600080600060608486031215612ea0578081fd5b8335612eab8161357d565b92506020840135612ebb8161357d565b929592945050506040919091013590565b60008060008060808587031215612ee1578081fd5b8435612eec8161357d565b93506020850135612efc8161357d565b925060408501359150606085013567ffffffffffffffff80821115612f1f578283fd5b818701915087601f830112612f32578283fd5b813581811115612f4457612f44613567565b604051601f8201601f19908116603f01168101908382118183101715612f6c57612f6c613567565b816040528281528a6020848701011115612f84578586fd5b82602086016020830137918201602001949094529598949750929550505050565b60008060408385031215612fb7578182fd5b8235612fc28161357d565b915060208301358015158114612e81578182fd5b60008060408385031215612fe8578182fd5b8235612ff38161357d565b946020939093013593505050565b600060208284031215613012578081fd5b5035919050565b6000806040838503121561302b578182fd5b823591506020830135612e818161357d565b60006020828403121561304e578081fd5b813561123981613592565b60006020828403121561306a578081fd5b815161123981613592565b600060208284031215613086578081fd5b813567ffffffffffffffff81111561309c578182fd5b820160808185031215611239578182fd5b600081518084526130c581602086016020860161348e565b601f01601f19169290920160200192915050565b805182526000602082015160018060a01b038082166020860152806040850151166040860152505060608201516060840152608082015160c0608085015261312460c08501826130ad565b60a0938401511515949093019390935250919050565b8183823760009101908152919050565b6000835161315c81846020880161348e565b83519083019061317081836020880161348e565b01949350505050565b7f416363657373436f6e74726f6c3a206163636f756e74200000000000000000008152600083516131b181601785016020880161348e565b7001034b99036b4b9b9b4b733903937b6329607d1b60179184019182015283516131e281602884016020880161348e565b01602801949350505050565b6001600160a01b0385811682528416602082015260408101839052608060608201819052600090613221908301846130ad565b9695505050505050565b6001600160a01b038681168252851660208201526040810184905260a06060820181905260009061325e908301856130ad565b905082151560808301529695505050505050565b6000602080830181845280855180835260408601915060408160051b8701019250838701855b828110156132c657603f198886030184526132b48583516130d9565b94509285019290850190600101613298565b5092979650505050505050565b60208152600061123960208301846130ad565b60208082526032908201527f4552433732313a207472616e7366657220746f206e6f6e20455243373231526560408201527131b2b4bb32b91034b6b83632b6b2b73a32b960711b606082015260800190565b60208082526031908201527f4552433732313a207472616e736665722063616c6c6572206973206e6f74206f6040820152701ddb995c881b9bdc88185c1c1c9bdd9959607a1b606082015260800190565b6020808252602b908201527f496e697469616c697a61626c653a20636f6e7472616374206973206e6f74206960408201526a6e697469616c697a696e6760a81b606082015260800190565b60208152600061123960208301846130d9565b6000808335601e198436030181126133fd578283fd5b83018035915067ffffffffffffffff821115613417578283fd5b6020019150368190038213156129bf57600080fd5b6000821982111561343f5761343f61353b565b500190565b60008261345357613453613551565b500490565b60008160001904831182151516156134725761347261353b565b500290565b6000828210156134895761348961353b565b500390565b60005b838110156134a9578181015183820152602001613491565b838111156112725750506000910152565b6000816134c9576134c961353b565b506000190190565b600181811c908216806134e557607f821691505b6020821081141561350657634e487b7160e01b600052602260045260246000fd5b50919050565b60006000198214156135205761352061353b565b5060010190565b60008261353657613536613551565b500690565b634e487b7160e01b600052601160045260246000fd5b634e487b7160e01b600052601260045260246000fd5b634e487b7160e01b600052604160045260246000fd5b6001600160a01b0381168114612bc757600080fd5b6001600160e01b031981168114612bc757600080fdfe9f2df0fed2c77648de5860a4cc508cd0818c85b8b8a1ab4ceeef8d981c8956a6a2646970667358221220cd3bcb7ed16e8e9d11c1349b0507d18e93920aaadaca9bb8dc61d436516432e364736f6c63430008040033",
  "linkReferences": {},
  "deployedLinkReferences": {}
}