{
  "_format": "hh-sol-artifact-1",
  "contractName": "NFTMarketplace",
  "sourceName": "contracts/NFTMarketplace.sol",
  "abi": [
    {
      "inputs": [],
      "stateMutability": "nonpayable",
      "type": "constructor"
    },
    {
      "anonymous": false,
      "inputs": [
        {
          "indexed": true,
          "internalType": "address",
          "name": "owner",
          "type": "address"
        },
        {
          "indexed": true,
          "internalType": "address",
          "name": "approved",
          "type": "address"
        },
        {
          "indexed": true,
          "internalType": "uint256",
          "name": "tokenId",
          "type": "uint256"
        }
      ],
      "name": "Approval",
      "type": "event"
    },
    {
      "anonymous": false,
      "inputs": [
        {
          "indexed": true,
          "internalType": "address",
          "name": "owner",
          "type": "address"
        },
        {
          "indexed": true,
          "internalType": "address",
          "name": "operator",
          "type": "address"
        },
        {
          "indexed": false,
          "internalType": "bool",
          "name": "approved",
          "type": "bool"
        }
      ],
      "name": "ApprovalForAll",
      "type": "event"
    },
    {
      "anonymous": false,
      "inputs": [
        {
          "indexed": true,
          "internalType": "uint256",
          "name": "tokenId",
          "type": "uint256"
        },
        {
          "indexed": false,
          "internalType": "address",
          "name": "seller",
          "type": "address"
        },
        {
          "indexed": false,
          "internalType": "address",
          "name": "owner",
          "type": "address"
        },
        {
          "indexed": false,
          "internalType": "uint256",
          "name": "price",
          "type": "uint256"
        },
        {
          "indexed": false,
          "internalType": "string",
          "name": "tokenURI",
          "type": "string"
        },
        {
          "indexed": false,
          "internalType": "bool",
          "name": "sold",
          "type": "bool"
        }
      ],
      "name": "MarketItemCreated",
      "type": "event"
    },
    {
      "anonymous": false,
      "inputs": [
        {
          "indexed": true,
          "internalType": "address",
          "name": "from",
          "type": "address"
        },
        {
          "indexed": true,
          "internalType": "address",
          "name": "to",
          "type": "address"
        },
        {
          "indexed": true,
          "internalType": "uint256",
          "name": "tokenId",
          "type": "uint256"
        }
      ],
      "name": "Transfer",
      "type": "event"
    },
    {
      "inputs": [
        {
          "internalType": "address",
          "name": "to",
          "type": "address"
        },
        {
          "internalType": "uint256",
          "name": "tokenId",
          "type": "uint256"
        }
      ],
      "name": "approve",
      "outputs": [],
      "stateMutability": "nonpayable",
      "type": "function"
    },
    {
      "inputs": [
        {
          "internalType": "address",
          "name": "owner",
          "type": "address"
        }
      ],
      "name": "balanceOf",
      "outputs": [
        {
          "internalType": "uint256",
          "name": "",
          "type": "uint256"
        }
      ],
      "stateMutability": "view",
      "type": "function"
    },
    {
      "inputs": [
        {
          "internalType": "uint256",
          "name": "tokenId",
          "type": "uint256"
        }
      ],
      "name": "createMarketSale",
      "outputs": [],
      "stateMutability": "payable",
      "type": "function"
    },
    {
      "inputs": [
        {
          "internalType": "string",
          "name": "tokenURI",
          "type": "string"
        },
        {
          "internalType": "uint256",
          "name": "price",
          "type": "uint256"
        }
      ],
      "name": "createToken",
      "outputs": [
        {
          "internalType": "uint256",
          "name": "",
          "type": "uint256"
        }
      ],
      "stateMutability": "payable",
      "type": "function"
    },
    {
      "inputs": [],
      "name": "fetchItemsListed",
      "outputs": [
        {
          "components": [
            {
              "internalType": "uint256",
              "name": "tokenId",
              "type": "uint256"
            },
            {
              "internalType": "address payable",
              "name": "seller",
              "type": "address"
            },
            {
              "internalType": "address payable",
              "name": "owner",
              "type": "address"
            },
            {
              "internalType": "uint256",
              "name": "price",
              "type": "uint256"
            },
            {
              "internalType": "string",
              "name": "tokenURI",
              "type": "string"
            },
            {
              "internalType": "bool",
              "name": "sold",
              "type": "bool"
            }
          ],
          "internalType": "struct NFTMarketplace.MarketItem[]",
          "name": "",
          "type": "tuple[]"
        }
      ],
      "stateMutability": "view",
      "type": "function"
    },
    {
      "inputs": [],
      "name": "fetchMarketItems",
      "outputs": [
        {
          "components": [
            {
              "internalType": "uint256",
              "name": "tokenId",
              "type": "uint256"
            },
            {
              "internalType": "address payable",
              "name": "seller",
              "type": "address"
            },
            {
              "internalType": "address payable",
              "name": "owner",
              "type": "address"
            },
            {
              "internalType": "uint256",
              "name": "price",
              "type": "uint256"
            },
            {
              "internalType": "string",
              "name": "tokenURI",
              "type": "string"
            },
            {
              "internalType": "bool",
              "name": "sold",
              "type": "bool"
            }
          ],
          "internalType": "struct NFTMarketplace.MarketItem[]",
          "name": "",
          "type": "tuple[]"
        }
      ],
      "stateMutability": "view",
      "type": "function"
    },
    {
      "inputs": [],
      "name": "fetchMyNFTs",
      "outputs": [
        {
          "components": [
            {
              "internalType": "uint256",
              "name": "tokenId",
              "type": "uint256"
            },
            {
              "internalType": "address payable",
              "name": "seller",
              "type": "address"
            },
            {
              "internalType": "address payable",
              "name": "owner",
              "type": "address"
            },
            {
              "internalType": "uint256",
              "name": "price",
              "type": "uint256"
            },
            {
              "internalType": "string",
              "name": "tokenURI",
              "type": "string"
            },
            {
              "internalType": "bool",
              "name": "sold",
              "type": "bool"
            }
          ],
          "internalType": "struct NFTMarketplace.MarketItem[]",
          "name": "",
          "type": "tuple[]"
        }
      ],
      "stateMutability": "view",
      "type": "function"
    },
    {
      "inputs": [
        {
          "internalType": "uint256",
          "name": "tokenId",
          "type": "uint256"
        }
      ],
      "name": "getApproved",
      "outputs": [
        {
          "internalType": "address",
          "name": "",
          "type": "address"
        }
      ],
      "stateMutability": "view",
      "type": "function"
    },
    {
      "inputs": [],
      "name": "getChainID",
      "outputs": [
        {
          "internalType": "uint256",
          "name": "",
          "type": "uint256"
        }
      ],
      "stateMutability": "view",
      "type": "function"
    },
    {
      "inputs": [],
      "name": "getCurrentTokenId",
      "outputs": [
        {
          "internalType": "uint256",
          "name": "",
          "type": "uint256"
        }
      ],
      "stateMutability": "view",
      "type": "function"
    },
    {
      "inputs": [],
      "name": "getListingPrice",
      "outputs": [
        {
          "internalType": "uint256",
          "name": "",
          "type": "uint256"
        }
      ],
      "stateMutability": "view",
      "type": "function"
    },
    {
      "inputs": [
        {
          "internalType": "address",
          "name": "owner",
          "type": "address"
        },
        {
          "internalType": "address",
          "name": "operator",
          "type": "address"
        }
      ],
      "name": "isApprovedForAll",
      "outputs": [
        {
          "internalType": "bool",
          "name": "",
          "type": "bool"
        }
      ],
      "stateMutability": "view",
      "type": "function"
    },
    {
      "inputs": [],
      "name": "name",
      "outputs": [
        {
          "internalType": "string",
          "name": "",
          "type": "string"
        }
      ],
      "stateMutability": "view",
      "type": "function"
    },
    {
      "inputs": [
        {
          "internalType": "uint256",
          "name": "tokenId",
          "type": "uint256"
        }
      ],
      "name": "ownerOf",
      "outputs": [
        {
          "internalType": "address",
          "name": "",
          "type": "address"
        }
      ],
      "stateMutability": "view",
      "type": "function"
    },
    {
      "inputs": [
        {
          "internalType": "uint256",
          "name": "tokenId",
          "type": "uint256"
        },
        {
          "internalType": "uint256",
          "name": "price",
          "type": "uint256"
        }
      ],
      "name": "resellToken",
      "outputs": [],
      "stateMutability": "payable",
      "type": "function"
    },
    {
      "inputs": [
        {
          "internalType": "address",
          "name": "from",
          "type": "address"
        },
        {
          "internalType": "address",
          "name": "to",
          "type": "address"
        },
        {
          "internalType": "uint256",
          "name": "tokenId",
          "type": "uint256"
        }
      ],
      "name": "safeTransferFrom",
      "outputs": [],
      "stateMutability": "nonpayable",
      "type": "function"
    },
    {
      "inputs": [
        {
          "internalType": "address",
          "name": "from",
          "type": "address"
        },
        {
          "internalType": "address",
          "name": "to",
          "type": "address"
        },
        {
          "internalType": "uint256",
          "name": "tokenId",
          "type": "uint256"
        },
        {
          "internalType": "bytes",
          "name": "_data",
          "type": "bytes"
        }
      ],
      "name": "safeTransferFrom",
      "outputs": [],
      "stateMutability": "nonpayable",
      "type": "function"
    },
    {
      "inputs": [
        {
          "internalType": "address",
          "name": "operator",
          "type": "address"
        },
        {
          "internalType": "bool",
          "name": "approved",
          "type": "bool"
        }
      ],
      "name": "setApprovalForAll",
      "outputs": [],
      "stateMutability": "nonpayable",
      "type": "function"
    },
    {
      "inputs": [
        {
          "internalType": "bytes4",
          "name": "interfaceId",
          "type": "bytes4"
        }
      ],
      "name": "supportsInterface",
      "outputs": [
        {
          "internalType": "bool",
          "name": "",
          "type": "bool"
        }
      ],
      "stateMutability": "view",
      "type": "function"
    },
    {
      "inputs": [],
      "name": "symbol",
      "outputs": [
        {
          "internalType": "string",
          "name": "",
          "type": "string"
        }
      ],
      "stateMutability": "view",
      "type": "function"
    },
    {
      "inputs": [
        {
          "internalType": "uint256",
          "name": "tokenId",
          "type": "uint256"
        }
      ],
      "name": "tokenURI",
      "outputs": [
        {
          "internalType": "string",
          "name": "",
          "type": "string"
        }
      ],
      "stateMutability": "view",
      "type": "function"
    },
    {
      "inputs": [
        {
          "internalType": "address",
          "name": "from",
          "type": "address"
        },
        {
          "internalType": "address",
          "name": "to",
          "type": "address"
        },
        {
          "internalType": "uint256",
          "name": "tokenId",
          "type": "uint256"
        }
      ],
      "name": "transferFrom",
      "outputs": [],
      "stateMutability": "nonpayable",
      "type": "function"
    },
    {
      "inputs": [
        {
          "internalType": "uint256",
          "name": "_listingPrice",
          "type": "uint256"
        }
      ],
      "name": "updateListingPrice",
      "outputs": [],
      "stateMutability": "payable",
      "type": "function"
    }
  ],
  "bytecode": "0x608060405265e35fa931a0006009553480156200001b57600080fd5b50604080518082018252601081526f4d657461766572736520546f6b656e7360801b6020808301918252835180850190945260048452631351551560e21b9084015281519192916200007091600091620000a1565b50805162000086906001906020840190620000a1565b5050600a80546001600160a01b031916331790555062000184565b828054620000af9062000147565b90600052602060002090601f016020900481019282620000d357600085556200011e565b82601f10620000ee57805160ff19168380011785556200011e565b828001600101855582156200011e579182015b828111156200011e57825182559160200191906001019062000101565b506200012c92915062000130565b5090565b5b808211156200012c576000815560010162000131565b600181811c908216806200015c57607f821691505b602082108114156200017e57634e487b7160e01b600052602260045260246000fd5b50919050565b61234680620001946000396000f3fe6080604052600436106101405760003560e01c8063564b81ef116100b6578063ae677aa31161006f578063ae677aa314610351578063b88d4fde14610364578063be9af53614610384578063c87b56dd14610397578063e219fc75146103b7578063e985e9c5146103ca57600080fd5b8063564b81ef146102b65780636352211e146102c957806370a08231146102e957806372b3b6201461030957806395d89b411461031c578063a22cb4651461033157600080fd5b806312e855851161010857806312e8558514610218578063202e37401461023757806323b872dd1461024c57806342842e0e1461026c57806345f8fa801461028c57806356189236146102a157600080fd5b806301ffc9a71461014557806306fdde031461017a578063081812fc1461019c578063095ea7b3146101d45780630f08efe0146101f6575b600080fd5b34801561015157600080fd5b50610165610160366004611ecf565b610413565b60405190151581526020015b60405180910390f35b34801561018657600080fd5b5061018f610465565b6040516101719190612126565b3480156101a857600080fd5b506101bc6101b7366004611f5d565b6104f7565b6040516001600160a01b039091168152602001610171565b3480156101e057600080fd5b506101f46101ef366004611ea6565b610591565b005b34801561020257600080fd5b5061020b6106a7565b6040516101719190612075565b34801561022457600080fd5b506009545b604051908152602001610171565b34801561024357600080fd5b5061020b6108d8565b34801561025857600080fd5b506101f4610267366004611db8565b610b47565b34801561027857600080fd5b506101f4610287366004611db8565b610b78565b34801561029857600080fd5b5061020b610b93565b3480156102ad57600080fd5b50610229610e02565b3480156102c257600080fd5b5046610229565b3480156102d557600080fd5b506101bc6102e4366004611f5d565b610e12565b3480156102f557600080fd5b50610229610304366004611d6c565b610e89565b610229610317366004611f07565b610f10565b34801561032857600080fd5b5061018f610f3f565b34801561033d57600080fd5b506101f461034c366004611e6c565b610f4e565b6101f461035f366004611f5d565b610f5d565b34801561037057600080fd5b506101f461037f366004611df3565b610fd5565b6101f4610392366004611f5d565b61100d565b3480156103a357600080fd5b5061018f6103b2366004611f5d565b6110f5565b6101f46103c5366004611f75565b61127c565b3480156103d657600080fd5b506101656103e5366004611d86565b6001600160a01b03918216600090815260056020908152604080832093909416825291909152205460ff1690565b60006001600160e01b031982166380ac58cd60e01b148061044457506001600160e01b03198216635b5e139f60e01b145b8061045f57506301ffc9a760e01b6001600160e01b03198316145b92915050565b6060600080546104749061224b565b80601f01602080910402602001604051908101604052809291908181526020018280546104a09061224b565b80156104ed5780601f106104c2576101008083540402835291602001916104ed565b820191906000526020600020905b8154815290600101906020018083116104d057829003601f168201915b5050505050905090565b6000818152600260205260408120546001600160a01b03166105755760405162461bcd60e51b815260206004820152602c60248201527f4552433732313a20617070726f76656420717565727920666f72206e6f6e657860448201526b34b9ba32b73a103a37b5b2b760a11b60648201526084015b60405180910390fd5b506000908152600460205260409020546001600160a01b031690565b600061059c82610e12565b9050806001600160a01b0316836001600160a01b0316141561060a5760405162461bcd60e51b815260206004820152602160248201527f4552433732313a20617070726f76616c20746f2063757272656e74206f776e656044820152603960f91b606482015260840161056c565b336001600160a01b0382161480610626575061062681336103e5565b6106985760405162461bcd60e51b815260206004820152603860248201527f4552433732313a20617070726f76652063616c6c6572206973206e6f74206f7760448201527f6e6572206e6f7220617070726f76656420666f7220616c6c0000000000000000606482015260840161056c565b6106a283836113b0565b505050565b606060006106b460075490565b905060006106c160085490565b6007546106ce9190612208565b90506000808267ffffffffffffffff8111156106fa57634e487b7160e01b600052604160045260246000fd5b60405190808252806020026020018201604052801561073357816020015b610720611c0d565b8152602001906001900390816107185790505b50905060005b848110156108cf5730600b60006107518460016121dc565b81526020810191909152604001600020600201546001600160a01b031614156108bd5760006107818260016121dc565b6000818152600b6020908152604091829020825160c0810184528154815260018201546001600160a01b0390811693820193909352600282015490921692820192909252600382015460608201526004820180549394509192909183916080840191906107ed9061224b565b80601f01602080910402602001604051908101604052809291908181526020018280546108199061224b565b80156108665780601f1061083b57610100808354040283529160200191610866565b820191906000526020600020905b81548152906001019060200180831161084957829003601f168201915b50505091835250506005919091015460ff16151560209091015284518590879081106108a257634e487b7160e01b600052603260045260246000fd5b60209081029190910101526108b86001866121dc565b945050505b806108c781612286565b915050610739565b50949350505050565b606060006108e560075490565b905060008060005b838110156109485733600b60006109058460016121dc565b81526020810191909152604001600020600201546001600160a01b03161415610936576109336001846121dc565b92505b8061094081612286565b9150506108ed565b5060008267ffffffffffffffff81111561097257634e487b7160e01b600052604160045260246000fd5b6040519080825280602002602001820160405280156109ab57816020015b610998611c0d565b8152602001906001900390816109905790505b50905060005b848110156108cf5733600b60006109c98460016121dc565b81526020810191909152604001600020600201546001600160a01b03161415610b355760006109f98260016121dc565b6000818152600b6020908152604091829020825160c0810184528154815260018201546001600160a01b039081169382019390935260028201549092169282019290925260038201546060820152600482018054939450919290918391608084019190610a659061224b565b80601f0160208091040260200160405190810160405280929190818152602001828054610a919061224b565b8015610ade5780601f10610ab357610100808354040283529160200191610ade565b820191906000526020600020905b815481529060010190602001808311610ac157829003601f168201915b50505091835250506005919091015460ff1615156020909101528451859087908110610b1a57634e487b7160e01b600052603260045260246000fd5b6020908102919091010152610b306001866121dc565b945050505b80610b3f81612286565b9150506109b1565b610b51338261141e565b610b6d5760405162461bcd60e51b815260040161056c9061218b565b6106a2838383611511565b6106a283838360405180602001604052806000815250610fd5565b60606000610ba060075490565b905060008060005b83811015610c035733600b6000610bc08460016121dc565b81526020810191909152604001600020600101546001600160a01b03161415610bf157610bee6001846121dc565b92505b80610bfb81612286565b915050610ba8565b5060008267ffffffffffffffff811115610c2d57634e487b7160e01b600052604160045260246000fd5b604051908082528060200260200182016040528015610c6657816020015b610c53611c0d565b815260200190600190039081610c4b5790505b50905060005b848110156108cf5733600b6000610c848460016121dc565b81526020810191909152604001600020600101546001600160a01b03161415610df0576000610cb48260016121dc565b6000818152600b6020908152604091829020825160c0810184528154815260018201546001600160a01b039081169382019390935260028201549092169282019290925260038201546060820152600482018054939450919290918391608084019190610d209061224b565b80601f0160208091040260200160405190810160405280929190818152602001828054610d4c9061224b565b8015610d995780601f10610d6e57610100808354040283529160200191610d99565b820191906000526020600020905b815481529060010190602001808311610d7c57829003601f168201915b50505091835250506005919091015460ff1615156020909101528451859087908110610dd557634e487b7160e01b600052603260045260246000fd5b6020908102919091010152610deb6001866121dc565b945050505b80610dfa81612286565b915050610c6c565b6000610e0d60075490565b905090565b6000818152600260205260408120546001600160a01b03168061045f5760405162461bcd60e51b815260206004820152602960248201527f4552433732313a206f776e657220717565727920666f72206e6f6e657869737460448201526832b73a103a37b5b2b760b91b606482015260840161056c565b60006001600160a01b038216610ef45760405162461bcd60e51b815260206004820152602a60248201527f4552433732313a2062616c616e636520717565727920666f7220746865207a65604482015269726f206164647265737360b01b606482015260840161056c565b506001600160a01b031660009081526003602052604090205490565b6000610f20600780546001019055565b6000610f2b60075490565b9050610f388184866116ad565b9392505050565b6060600180546104749061224b565b610f593383836117a6565b5050565b600a546001600160a01b03163314610fd05760405162461bcd60e51b815260206004820152603060248201527f4f6e6c79206d61726b6574706c616365206f776e65722063616e20757064617460448201526f32903634b9ba34b73390383934b1b29760811b606482015260840161056c565b600955565b610fdf338361141e565b610ffb5760405162461bcd60e51b815260040161056c9061218b565b61100784848484611875565b50505050565b6000818152600b6020526040902060038101546001909101546001600160a01b03163482146110a6576040805162461bcd60e51b81526020600482015260248101919091527f506c65617365207375626d6974207468652061736b696e67207072696365206960448201527f6e206f7264657220746f20636f6d706c65746520746865207075726368617365606482015260840161056c565b6000838152600b602052604090206002810180546001600160a01b0319908116331790915560058201805460ff19166001908117909155909101805490911690556106a2600880546001019055565b6000818152600260205260409020546060906001600160a01b03166111765760405162461bcd60e51b815260206004820152603160248201527f45524337323155524953746f726167653a2055524920717565727920666f72206044820152703737b732bc34b9ba32b73a103a37b5b2b760791b606482015260840161056c565b6000828152600660205260408120805461118f9061224b565b80601f01602080910402602001604051908101604052809291908181526020018280546111bb9061224b565b80156112085780601f106111dd57610100808354040283529160200191611208565b820191906000526020600020905b8154815290600101906020018083116111eb57829003601f168201915b50505050509050600061122660408051602081019091526000815290565b9050805160001415611239575092915050565b81511561126b578082604051602001611253929190611fc2565b60405160208183030381529060405292505050919050565b611274846118a8565b949350505050565b6000828152600b60205260409020600201546001600160a01b031633146112f85760405162461bcd60e51b815260206004820152602a60248201527f4f6e6c79206974656d206f776e65722063616e20706572666f726d20746869736044820152691037b832b930ba34b7b760b11b606482015260840161056c565b60095434146113555760405162461bcd60e51b8152602060048201526024808201527f5072696365206d75737420626520657175616c20746f206c697374696e6720706044820152637269636560e01b606482015260840161056c565b6000828152600b6020526040902060058101805460ff19169055600381018290556001810180546001600160a01b0319908116331790915560029091018054909116301790556113a5600861198f565b610f59333084611511565b600081815260046020526040902080546001600160a01b0319166001600160a01b03841690811790915581906113e582610e12565b6001600160a01b03167f8c5be1e5ebec7d5bd14f71427d1e84f3dd0314c0f7b2291e5b200ac8c7c3b92560405160405180910390a45050565b6000818152600260205260408120546001600160a01b03166114975760405162461bcd60e51b815260206004820152602c60248201527f4552433732313a206f70657261746f7220717565727920666f72206e6f6e657860448201526b34b9ba32b73a103a37b5b2b760a11b606482015260840161056c565b60006114a283610e12565b9050806001600160a01b0316846001600160a01b031614806114dd5750836001600160a01b03166114d2846104f7565b6001600160a01b0316145b8061127457506001600160a01b0380821660009081526005602090815260408083209388168352929052205460ff16611274565b826001600160a01b031661152482610e12565b6001600160a01b0316146115885760405162461bcd60e51b815260206004820152602560248201527f4552433732313a207472616e736665722066726f6d20696e636f72726563742060448201526437bbb732b960d91b606482015260840161056c565b6001600160a01b0382166115ea5760405162461bcd60e51b8152602060048201526024808201527f4552433732313a207472616e7366657220746f20746865207a65726f206164646044820152637265737360e01b606482015260840161056c565b6115f56000826113b0565b6001600160a01b038316600090815260036020526040812080546001929061161e908490612208565b90915550506001600160a01b038216600090815260036020526040812080546001929061164c9084906121dc565b909155505060008181526002602052604080822080546001600160a01b0319166001600160a01b0386811691821790925591518493918716917fddf252ad1be2c89b69c2b068fc378daa952ba7f163c4a11628f55a4df523b3ef91a4505050565b6040805160c081018252848152336020808301918252308385019081526060840187815260808501878152600060a087018190528a8152600b8552969096208551815593516001850180546001600160a01b03199081166001600160a01b0393841617909155925160028601805490941691161790915551600383015592518051929391926117429260048501920190611c41565b5060a091909101516005909101805460ff191691151591909117905560405183907fe4958780fe3b3f0505e410985e1047d8533d6d15ac3fb1c69558c491ed1f99659061179990339030908790879060009061202e565b60405180910390a2505050565b816001600160a01b0316836001600160a01b031614156118085760405162461bcd60e51b815260206004820152601960248201527f4552433732313a20617070726f766520746f2063616c6c657200000000000000604482015260640161056c565b6001600160a01b03838116600081815260056020908152604080832094871680845294825291829020805460ff191686151590811790915591519182527f17307eab39ab6107e8899845ad3d59bd9653f200f220920489ca2b5937696c31910160405180910390a3505050565b611880848484611511565b61188c848484846119e6565b6110075760405162461bcd60e51b815260040161056c90612139565b6000818152600260205260409020546060906001600160a01b03166119275760405162461bcd60e51b815260206004820152602f60248201527f4552433732314d657461646174613a2055524920717565727920666f72206e6f60448201526e3732bc34b9ba32b73a103a37b5b2b760891b606482015260840161056c565b600061193e60408051602081019091526000815290565b9050600081511161195e5760405180602001604052806000815250610f38565b8061196884611af3565b604051602001611979929190611fc2565b6040516020818303038152906040529392505050565b8054806119de5760405162461bcd60e51b815260206004820152601b60248201527f436f756e7465723a2064656372656d656e74206f766572666c6f770000000000604482015260640161056c565b600019019055565b60006001600160a01b0384163b15611ae857604051630a85bd0160e11b81526001600160a01b0385169063150b7a0290611a2a903390899088908890600401611ff1565b602060405180830381600087803b158015611a4457600080fd5b505af1925050508015611a74575060408051601f3d908101601f19168201909252611a7191810190611eeb565b60015b611ace573d808015611aa2576040519150601f19603f3d011682016040523d82523d6000602084013e611aa7565b606091505b508051611ac65760405162461bcd60e51b815260040161056c90612139565b805181602001fd5b6001600160e01b031916630a85bd0160e11b149050611274565b506001949350505050565b606081611b175750506040805180820190915260018152600360fc1b602082015290565b8160005b8115611b415780611b2b81612286565b9150611b3a9050600a836121f4565b9150611b1b565b60008167ffffffffffffffff811115611b6a57634e487b7160e01b600052604160045260246000fd5b6040519080825280601f01601f191660200182016040528015611b94576020820181803683370190505b5090505b841561127457611ba9600183612208565b9150611bb6600a866122a1565b611bc19060306121dc565b60f81b818381518110611be457634e487b7160e01b600052603260045260246000fd5b60200101906001600160f81b031916908160001a905350611c06600a866121f4565b9450611b98565b6040805160c0810182526000808252602082018190529181018290526060808201839052608082015260a081019190915290565b828054611c4d9061224b565b90600052602060002090601f016020900481019282611c6f5760008555611cb5565b82601f10611c8857805160ff1916838001178555611cb5565b82800160010185558215611cb5579182015b82811115611cb5578251825591602001919060010190611c9a565b50611cc1929150611cc5565b5090565b5b80821115611cc15760008155600101611cc6565b600067ffffffffffffffff80841115611cf557611cf56122e1565b604051601f8501601f19908116603f01168101908282118183101715611d1d57611d1d6122e1565b81604052809350858152868686011115611d3657600080fd5b858560208301376000602087830101525050509392505050565b80356001600160a01b0381168114611d6757600080fd5b919050565b600060208284031215611d7d578081fd5b610f3882611d50565b60008060408385031215611d98578081fd5b611da183611d50565b9150611daf60208401611d50565b90509250929050565b600080600060608486031215611dcc578081fd5b611dd584611d50565b9250611de360208501611d50565b9150604084013590509250925092565b60008060008060808587031215611e08578081fd5b611e1185611d50565b9350611e1f60208601611d50565b925060408501359150606085013567ffffffffffffffff811115611e41578182fd5b8501601f81018713611e51578182fd5b611e6087823560208401611cda565b91505092959194509250565b60008060408385031215611e7e578182fd5b611e8783611d50565b915060208301358015158114611e9b578182fd5b809150509250929050565b60008060408385031215611eb8578182fd5b611ec183611d50565b946020939093013593505050565b600060208284031215611ee0578081fd5b8135610f38816122f7565b600060208284031215611efc578081fd5b8151610f38816122f7565b60008060408385031215611f19578182fd5b823567ffffffffffffffff811115611f2f578283fd5b8301601f81018513611f3f578283fd5b611f4e85823560208401611cda565b95602094909401359450505050565b600060208284031215611f6e578081fd5b5035919050565b60008060408385031215611f87578182fd5b50508035926020909101359150565b60008151808452611fae81602086016020860161221f565b601f01601f19169290920160200192915050565b60008351611fd481846020880161221f565b835190830190611fe881836020880161221f565b01949350505050565b6001600160a01b038581168252841660208201526040810183905260806060820181905260009061202490830184611f96565b9695505050505050565b6001600160a01b038681168252851660208201526040810184905260a06060820181905260009061206190830185611f96565b905082151560808301529695505050505050565b60006020808301818452808551808352604092508286019150828160051b870101848801865b8381101561211857888303603f19018552815180518452878101516001600160a01b03908116898601528782015116878501526060808201519085015260808082015160c082870181905291906120f483880182611f96565b60a0948501511515979094019690965250509487019492509086019060010161209b565b509098975050505050505050565b602081526000610f386020830184611f96565b60208082526032908201527f4552433732313a207472616e7366657220746f206e6f6e20455243373231526560408201527131b2b4bb32b91034b6b83632b6b2b73a32b960711b606082015260800190565b60208082526031908201527f4552433732313a207472616e736665722063616c6c6572206973206e6f74206f6040820152701ddb995c881b9bdc88185c1c1c9bdd9959607a1b606082015260800190565b600082198211156121ef576121ef6122b5565b500190565b600082612203576122036122cb565b500490565b60008282101561221a5761221a6122b5565b500390565b60005b8381101561223a578181015183820152602001612222565b838111156110075750506000910152565b600181811c9082168061225f57607f821691505b6020821081141561228057634e487b7160e01b600052602260045260246000fd5b50919050565b600060001982141561229a5761229a6122b5565b5060010190565b6000826122b0576122b06122cb565b500690565b634e487b7160e01b600052601160045260246000fd5b634e487b7160e01b600052601260045260246000fd5b634e487b7160e01b600052604160045260246000fd5b6001600160e01b03198116811461230d57600080fd5b5056fea2646970667358221220b8127cf82005f472a01af347c5dfd972975c48daf7d20a260aeeccb8548e38f464736f6c63430008040033",
  "linkReferences": {},
  "deployedLinkReferences": {}
}