{
  "_format": "hh-sol-artifact-1",
  "contractName": "NFTMarketplace",
  "sourceName": "contracts/NFTMarketplace.sol",
  "abi": [
    {
      "inputs": [
        {
          "internalType": "address payable",
          "name": "minter",
          "type": "address"
        }
      ],
      "stateMutability": "nonpayable",
      "type": "constructor"
    },
    {
      "anonymous": false,
      "inputs": [
        {
          "indexed": true,
          "internalType": "address",
          "name": "owner",
          "type": "address"
        },
        {
          "indexed": true,
          "internalType": "address",
          "name": "approved",
          "type": "address"
        },
        {
          "indexed": true,
          "internalType": "uint256",
          "name": "tokenId",
          "type": "uint256"
        }
      ],
      "name": "Approval",
      "type": "event"
    },
    {
      "anonymous": false,
      "inputs": [
        {
          "indexed": true,
          "internalType": "address",
          "name": "owner",
          "type": "address"
        },
        {
          "indexed": true,
          "internalType": "address",
          "name": "operator",
          "type": "address"
        },
        {
          "indexed": false,
          "internalType": "bool",
          "name": "approved",
          "type": "bool"
        }
      ],
      "name": "ApprovalForAll",
      "type": "event"
    },
    {
      "anonymous": false,
      "inputs": [
        {
          "indexed": true,
          "internalType": "uint256",
          "name": "tokenId",
          "type": "uint256"
        },
        {
          "indexed": false,
          "internalType": "address",
          "name": "seller",
          "type": "address"
        },
        {
          "indexed": false,
          "internalType": "address",
          "name": "owner",
          "type": "address"
        },
        {
          "indexed": false,
          "internalType": "uint256",
          "name": "price",
          "type": "uint256"
        },
        {
          "indexed": false,
          "internalType": "string",
          "name": "tokenURI",
          "type": "string"
        },
        {
          "indexed": false,
          "internalType": "bool",
          "name": "sold",
          "type": "bool"
        }
      ],
      "name": "MarketItemCreated",
      "type": "event"
    },
    {
      "anonymous": false,
      "inputs": [
        {
          "indexed": true,
          "internalType": "bytes32",
          "name": "role",
          "type": "bytes32"
        },
        {
          "indexed": true,
          "internalType": "bytes32",
          "name": "previousAdminRole",
          "type": "bytes32"
        },
        {
          "indexed": true,
          "internalType": "bytes32",
          "name": "newAdminRole",
          "type": "bytes32"
        }
      ],
      "name": "RoleAdminChanged",
      "type": "event"
    },
    {
      "anonymous": false,
      "inputs": [
        {
          "indexed": true,
          "internalType": "bytes32",
          "name": "role",
          "type": "bytes32"
        },
        {
          "indexed": true,
          "internalType": "address",
          "name": "account",
          "type": "address"
        },
        {
          "indexed": true,
          "internalType": "address",
          "name": "sender",
          "type": "address"
        }
      ],
      "name": "RoleGranted",
      "type": "event"
    },
    {
      "anonymous": false,
      "inputs": [
        {
          "indexed": true,
          "internalType": "bytes32",
          "name": "role",
          "type": "bytes32"
        },
        {
          "indexed": true,
          "internalType": "address",
          "name": "account",
          "type": "address"
        },
        {
          "indexed": true,
          "internalType": "address",
          "name": "sender",
          "type": "address"
        }
      ],
      "name": "RoleRevoked",
      "type": "event"
    },
    {
      "anonymous": false,
      "inputs": [
        {
          "indexed": true,
          "internalType": "address",
          "name": "from",
          "type": "address"
        },
        {
          "indexed": true,
          "internalType": "address",
          "name": "to",
          "type": "address"
        },
        {
          "indexed": true,
          "internalType": "uint256",
          "name": "tokenId",
          "type": "uint256"
        }
      ],
      "name": "Transfer",
      "type": "event"
    },
    {
      "inputs": [],
      "name": "DEFAULT_ADMIN_ROLE",
      "outputs": [
        {
          "internalType": "bytes32",
          "name": "",
          "type": "bytes32"
        }
      ],
      "stateMutability": "view",
      "type": "function"
    },
    {
      "inputs": [],
      "name": "MINTER_ROLE",
      "outputs": [
        {
          "internalType": "bytes32",
          "name": "",
          "type": "bytes32"
        }
      ],
      "stateMutability": "view",
      "type": "function"
    },
    {
      "inputs": [
        {
          "internalType": "address",
          "name": "to",
          "type": "address"
        },
        {
          "internalType": "uint256",
          "name": "tokenId",
          "type": "uint256"
        }
      ],
      "name": "approve",
      "outputs": [],
      "stateMutability": "nonpayable",
      "type": "function"
    },
    {
      "inputs": [],
      "name": "availableToWithdraw",
      "outputs": [
        {
          "internalType": "uint256",
          "name": "",
          "type": "uint256"
        }
      ],
      "stateMutability": "view",
      "type": "function"
    },
    {
      "inputs": [
        {
          "internalType": "address",
          "name": "owner",
          "type": "address"
        }
      ],
      "name": "balanceOf",
      "outputs": [
        {
          "internalType": "uint256",
          "name": "",
          "type": "uint256"
        }
      ],
      "stateMutability": "view",
      "type": "function"
    },
    {
      "inputs": [
        {
          "internalType": "uint256",
          "name": "tokenId",
          "type": "uint256"
        }
      ],
      "name": "createMarketSale",
      "outputs": [],
      "stateMutability": "payable",
      "type": "function"
    },
    {
      "inputs": [
        {
          "components": [
            {
              "internalType": "uint256",
              "name": "tokenId",
              "type": "uint256"
            },
            {
              "internalType": "uint256",
              "name": "price",
              "type": "uint256"
            },
            {
              "internalType": "string",
              "name": "uri",
              "type": "string"
            },
            {
              "internalType": "bytes",
              "name": "signature",
              "type": "bytes"
            }
          ],
          "internalType": "struct NFTMarketplace.NFTVoucher",
          "name": "voucher",
          "type": "tuple"
        }
      ],
      "name": "createToken",
      "outputs": [
        {
          "internalType": "uint256",
          "name": "",
          "type": "uint256"
        }
      ],
      "stateMutability": "payable",
      "type": "function"
    },
    {
      "inputs": [],
      "name": "fetchItemsListed",
      "outputs": [
        {
          "components": [
            {
              "internalType": "uint256",
              "name": "tokenId",
              "type": "uint256"
            },
            {
              "internalType": "address payable",
              "name": "seller",
              "type": "address"
            },
            {
              "internalType": "address payable",
              "name": "owner",
              "type": "address"
            },
            {
              "internalType": "uint256",
              "name": "price",
              "type": "uint256"
            },
            {
              "internalType": "string",
              "name": "tokenURI",
              "type": "string"
            },
            {
              "internalType": "bool",
              "name": "sold",
              "type": "bool"
            }
          ],
          "internalType": "struct NFTMarketplace.MarketItem[]",
          "name": "",
          "type": "tuple[]"
        }
      ],
      "stateMutability": "view",
      "type": "function"
    },
    {
      "inputs": [],
      "name": "fetchMarketItems",
      "outputs": [
        {
          "components": [
            {
              "internalType": "uint256",
              "name": "tokenId",
              "type": "uint256"
            },
            {
              "internalType": "address payable",
              "name": "seller",
              "type": "address"
            },
            {
              "internalType": "address payable",
              "name": "owner",
              "type": "address"
            },
            {
              "internalType": "uint256",
              "name": "price",
              "type": "uint256"
            },
            {
              "internalType": "string",
              "name": "tokenURI",
              "type": "string"
            },
            {
              "internalType": "bool",
              "name": "sold",
              "type": "bool"
            }
          ],
          "internalType": "struct NFTMarketplace.MarketItem[]",
          "name": "",
          "type": "tuple[]"
        }
      ],
      "stateMutability": "view",
      "type": "function"
    },
    {
      "inputs": [],
      "name": "fetchMyNFTs",
      "outputs": [
        {
          "components": [
            {
              "internalType": "uint256",
              "name": "tokenId",
              "type": "uint256"
            },
            {
              "internalType": "address payable",
              "name": "seller",
              "type": "address"
            },
            {
              "internalType": "address payable",
              "name": "owner",
              "type": "address"
            },
            {
              "internalType": "uint256",
              "name": "price",
              "type": "uint256"
            },
            {
              "internalType": "string",
              "name": "tokenURI",
              "type": "string"
            },
            {
              "internalType": "bool",
              "name": "sold",
              "type": "bool"
            }
          ],
          "internalType": "struct NFTMarketplace.MarketItem[]",
          "name": "",
          "type": "tuple[]"
        }
      ],
      "stateMutability": "view",
      "type": "function"
    },
    {
      "inputs": [
        {
          "internalType": "uint256",
          "name": "tokenId",
          "type": "uint256"
        }
      ],
      "name": "getApproved",
      "outputs": [
        {
          "internalType": "address",
          "name": "",
          "type": "address"
        }
      ],
      "stateMutability": "view",
      "type": "function"
    },
    {
      "inputs": [],
      "name": "getChainID",
      "outputs": [
        {
          "internalType": "uint256",
          "name": "",
          "type": "uint256"
        }
      ],
      "stateMutability": "view",
      "type": "function"
    },
    {
      "inputs": [],
      "name": "getCurrentTokenId",
      "outputs": [
        {
          "internalType": "uint256",
          "name": "",
          "type": "uint256"
        }
      ],
      "stateMutability": "view",
      "type": "function"
    },
    {
      "inputs": [],
      "name": "getListingPrice",
      "outputs": [
        {
          "internalType": "uint256",
          "name": "",
          "type": "uint256"
        }
      ],
      "stateMutability": "view",
      "type": "function"
    },
    {
      "inputs": [
        {
          "internalType": "bytes32",
          "name": "role",
          "type": "bytes32"
        }
      ],
      "name": "getRoleAdmin",
      "outputs": [
        {
          "internalType": "bytes32",
          "name": "",
          "type": "bytes32"
        }
      ],
      "stateMutability": "view",
      "type": "function"
    },
    {
      "inputs": [
        {
          "internalType": "bytes32",
          "name": "role",
          "type": "bytes32"
        },
        {
          "internalType": "address",
          "name": "account",
          "type": "address"
        }
      ],
      "name": "grantRole",
      "outputs": [],
      "stateMutability": "nonpayable",
      "type": "function"
    },
    {
      "inputs": [
        {
          "internalType": "bytes32",
          "name": "role",
          "type": "bytes32"
        },
        {
          "internalType": "address",
          "name": "account",
          "type": "address"
        }
      ],
      "name": "hasRole",
      "outputs": [
        {
          "internalType": "bool",
          "name": "",
          "type": "bool"
        }
      ],
      "stateMutability": "view",
      "type": "function"
    },
    {
      "inputs": [
        {
          "internalType": "address",
          "name": "owner",
          "type": "address"
        },
        {
          "internalType": "address",
          "name": "operator",
          "type": "address"
        }
      ],
      "name": "isApprovedForAll",
      "outputs": [
        {
          "internalType": "bool",
          "name": "",
          "type": "bool"
        }
      ],
      "stateMutability": "view",
      "type": "function"
    },
    {
      "inputs": [],
      "name": "name",
      "outputs": [
        {
          "internalType": "string",
          "name": "",
          "type": "string"
        }
      ],
      "stateMutability": "view",
      "type": "function"
    },
    {
      "inputs": [
        {
          "internalType": "uint256",
          "name": "tokenId",
          "type": "uint256"
        }
      ],
      "name": "ownerOf",
      "outputs": [
        {
          "internalType": "address",
          "name": "",
          "type": "address"
        }
      ],
      "stateMutability": "view",
      "type": "function"
    },
    {
      "inputs": [
        {
          "internalType": "bytes32",
          "name": "role",
          "type": "bytes32"
        },
        {
          "internalType": "address",
          "name": "account",
          "type": "address"
        }
      ],
      "name": "renounceRole",
      "outputs": [],
      "stateMutability": "nonpayable",
      "type": "function"
    },
    {
      "inputs": [
        {
          "internalType": "uint256",
          "name": "tokenId",
          "type": "uint256"
        },
        {
          "internalType": "uint256",
          "name": "price",
          "type": "uint256"
        }
      ],
      "name": "resellToken",
      "outputs": [],
      "stateMutability": "payable",
      "type": "function"
    },
    {
      "inputs": [
        {
          "internalType": "bytes32",
          "name": "role",
          "type": "bytes32"
        },
        {
          "internalType": "address",
          "name": "account",
          "type": "address"
        }
      ],
      "name": "revokeRole",
      "outputs": [],
      "stateMutability": "nonpayable",
      "type": "function"
    },
    {
      "inputs": [
        {
          "internalType": "address",
          "name": "from",
          "type": "address"
        },
        {
          "internalType": "address",
          "name": "to",
          "type": "address"
        },
        {
          "internalType": "uint256",
          "name": "tokenId",
          "type": "uint256"
        }
      ],
      "name": "safeTransferFrom",
      "outputs": [],
      "stateMutability": "nonpayable",
      "type": "function"
    },
    {
      "inputs": [
        {
          "internalType": "address",
          "name": "from",
          "type": "address"
        },
        {
          "internalType": "address",
          "name": "to",
          "type": "address"
        },
        {
          "internalType": "uint256",
          "name": "tokenId",
          "type": "uint256"
        },
        {
          "internalType": "bytes",
          "name": "_data",
          "type": "bytes"
        }
      ],
      "name": "safeTransferFrom",
      "outputs": [],
      "stateMutability": "nonpayable",
      "type": "function"
    },
    {
      "inputs": [
        {
          "internalType": "address",
          "name": "operator",
          "type": "address"
        },
        {
          "internalType": "bool",
          "name": "approved",
          "type": "bool"
        }
      ],
      "name": "setApprovalForAll",
      "outputs": [],
      "stateMutability": "nonpayable",
      "type": "function"
    },
    {
      "inputs": [
        {
          "internalType": "bytes4",
          "name": "interfaceId",
          "type": "bytes4"
        }
      ],
      "name": "supportsInterface",
      "outputs": [
        {
          "internalType": "bool",
          "name": "",
          "type": "bool"
        }
      ],
      "stateMutability": "view",
      "type": "function"
    },
    {
      "inputs": [],
      "name": "symbol",
      "outputs": [
        {
          "internalType": "string",
          "name": "",
          "type": "string"
        }
      ],
      "stateMutability": "view",
      "type": "function"
    },
    {
      "inputs": [
        {
          "internalType": "uint256",
          "name": "tokenId",
          "type": "uint256"
        }
      ],
      "name": "tokenURI",
      "outputs": [
        {
          "internalType": "string",
          "name": "",
          "type": "string"
        }
      ],
      "stateMutability": "view",
      "type": "function"
    },
    {
      "inputs": [
        {
          "internalType": "address",
          "name": "from",
          "type": "address"
        },
        {
          "internalType": "address",
          "name": "to",
          "type": "address"
        },
        {
          "internalType": "uint256",
          "name": "tokenId",
          "type": "uint256"
        }
      ],
      "name": "transferFrom",
      "outputs": [],
      "stateMutability": "nonpayable",
      "type": "function"
    },
    {
      "inputs": [
        {
          "internalType": "uint256",
          "name": "_listingPrice",
          "type": "uint256"
        }
      ],
      "name": "updateListingPrice",
      "outputs": [],
      "stateMutability": "payable",
      "type": "function"
    },
    {
      "inputs": [],
      "name": "withdraw",
      "outputs": [],
      "stateMutability": "nonpayable",
      "type": "function"
    }
  ],
  "bytecode": "0x61014060405265e35fa931a000600b553480156200001c57600080fd5b506040516200392c3803806200392c8339810160408190526200003f916200033a565b6040518060400160405280600f81526020016e2630bd3ca7232a16ab37bab1b432b960891b815250604051806040016040528060018152602001603160f81b8152506040518060400160405280601381526020017f556b7261696e69616e417274697374734e4654000000000000000000000000008152506040518060400160405280600381526020016229a62b60e91b8152508160009080519060200190620000eb92919062000294565b5080516200010190600190602084019062000294565b5050825160208085019190912083518483012060e08290526101008190524660a0818152604080517f8b73c3c69bb8fe3d512ecc4cf759cc79239f7b179b0ffacaa9a75d522b39400f81880181905281830187905260608201869052608082019490945230818401528151808203909301835260c0019052805194019390932091935091906080523060601b60c0526101205250620001c792507f9f2df0fed2c77648de5860a4cc508cd0818c85b8b8a1ab4ceeef8d981c8956a69150839050620001e0565b50600c80546001600160a01b03191633179055620003a7565b620001ec8282620001f0565b5050565b60008281526007602090815260408083206001600160a01b038516845290915290205460ff16620001ec5760008281526007602090815260408083206001600160a01b03851684529091529020805460ff19166001179055620002503390565b6001600160a01b0316816001600160a01b0316837f2f8788117e7eff1d82e926ec794901d17c78024a50270940304540a733656f0d60405160405180910390a45050565b828054620002a2906200036a565b90600052602060002090601f016020900481019282620002c6576000855562000311565b82601f10620002e157805160ff191683800117855562000311565b8280016001018555821562000311579182015b8281111562000311578251825591602001919060010190620002f4565b506200031f92915062000323565b5090565b5b808211156200031f576000815560010162000324565b6000602082840312156200034c578081fd5b81516001600160a01b038116811462000363578182fd5b9392505050565b600181811c908216806200037f57607f821691505b60208210811415620003a157634e487b7160e01b600052602260045260246000fd5b50919050565b60805160a05160c05160601c60e0516101005161012051613532620003fa6000396000612b4f01526000612b9e01526000612b7901526000612ad201526000612afc01526000612b2601526135326000f3fe6080604052600436106101e35760003560e01c80636352211e11610102578063b88d4fde11610095578063d547741f11610064578063d547741f14610548578063e219fc7514610568578063e322ad2b1461057b578063e985e9c51461059d57600080fd5b8063b88d4fde146104c1578063be9af536146104e1578063c87b56dd146104f4578063d53913931461051457600080fd5b8063a217fddf116100d1578063a217fddf14610466578063a22cb4651461047b578063a4b3cce61461049b578063ae677aa3146104ae57600080fd5b80636352211e146103f157806370a082311461041157806391d148541461043157806395d89b411461045157600080fd5b8063248a9ca31161017a57806342842e0e1161014957806342842e0e1461039457806345f8fa80146103b457806356189236146103c9578063564b81ef146103de57600080fd5b8063248a9ca31461030f5780632f2ff15d1461033f57806336568abe1461035f5780633ccfd60b1461037f57600080fd5b80630f08efe0116101b65780630f08efe01461029957806312e85585146102bb578063202e3740146102da57806323b872dd146102ef57600080fd5b806301ffc9a7146101e857806306fdde031461021d578063081812fc1461023f578063095ea7b314610277575b600080fd5b3480156101f457600080fd5b50610208610203366004612ff4565b6105e6565b60405190151581526020015b60405180910390f35b34801561022957600080fd5b50610232610606565b604051610214919061329a565b34801561024b57600080fd5b5061025f61025a366004612fba565b610698565b6040516001600160a01b039091168152602001610214565b34801561028357600080fd5b50610297610292366004612f91565b610725565b005b3480156102a557600080fd5b506102ae61083b565b60405161021491906131e9565b3480156102c757600080fd5b50600b545b604051908152602001610214565b3480156102e657600080fd5b506102ae610a6c565b3480156102fb57600080fd5b5061029761030a366004612e47565b610cdb565b34801561031b57600080fd5b506102cc61032a366004612fba565b60009081526007602052604090206001015490565b34801561034b57600080fd5b5061029761035a366004612fd2565b610d0c565b34801561036b57600080fd5b5061029761037a366004612fd2565b610d32565b34801561038b57600080fd5b50610297610db0565b3480156103a057600080fd5b506102976103af366004612e47565b610e75565b3480156103c057600080fd5b506102ae610e90565b3480156103d557600080fd5b506102cc6110ff565b3480156103ea57600080fd5b50466102cc565b3480156103fd57600080fd5b5061025f61040c366004612fba565b61110f565b34801561041d57600080fd5b506102cc61042c366004612dfb565b611186565b34801561043d57600080fd5b5061020861044c366004612fd2565b61120d565b34801561045d57600080fd5b50610232611238565b34801561047257600080fd5b506102cc600081565b34801561048757600080fd5b50610297610496366004612f57565b611247565b6102cc6104a936600461302c565b611252565b6102976104bc366004612fba565b6113c4565b3480156104cd57600080fd5b506102976104dc366004612e82565b61143c565b6102976104ef366004612fba565b611474565b34801561050057600080fd5b5061023261050f366004612fba565b611661565b34801561052057600080fd5b506102cc7f9f2df0fed2c77648de5860a4cc508cd0818c85b8b8a1ab4ceeef8d981c8956a681565b34801561055457600080fd5b50610297610563366004612fd2565b6117d8565b610297610576366004613064565b6117fe565b34801561058757600080fd5b50336000908152600a60205260409020546102cc565b3480156105a957600080fd5b506102086105b8366004612e15565b6001600160a01b03918216600090815260056020908152604080832093909416825291909152205460ff1690565b60006105f182611932565b80610600575061060082611982565b92915050565b6060600080546106159061343a565b80601f01602080910402602001604051908101604052809291908181526020018280546106419061343a565b801561068e5780601f106106635761010080835404028352916020019161068e565b820191906000526020600020905b81548152906001019060200180831161067157829003601f168201915b5050505050905090565b60006106a3826119a7565b6107095760405162461bcd60e51b815260206004820152602c60248201527f4552433732313a20617070726f76656420717565727920666f72206e6f6e657860448201526b34b9ba32b73a103a37b5b2b760a11b60648201526084015b60405180910390fd5b506000908152600460205260409020546001600160a01b031690565b60006107308261110f565b9050806001600160a01b0316836001600160a01b0316141561079e5760405162461bcd60e51b815260206004820152602160248201527f4552433732313a20617070726f76616c20746f2063757272656e74206f776e656044820152603960f91b6064820152608401610700565b336001600160a01b03821614806107ba57506107ba81336105b8565b61082c5760405162461bcd60e51b815260206004820152603860248201527f4552433732313a20617070726f76652063616c6c6572206973206e6f74206f7760448201527f6e6572206e6f7220617070726f76656420666f7220616c6c00000000000000006064820152608401610700565b61083683836119c4565b505050565b6060600061084860085490565b9050600061085560095490565b60085461086291906133e0565b90506000808267ffffffffffffffff81111561088e57634e487b7160e01b600052604160045260246000fd5b6040519080825280602002602001820160405280156108c757816020015b6108b4612d12565b8152602001906001900390816108ac5790505b50905060005b84811015610a635730600d60006108e5846001613395565b81526020810191909152604001600020600201546001600160a01b03161415610a51576000610915826001613395565b6000818152600d6020908152604091829020825160c0810184528154815260018201546001600160a01b0390811693820193909352600282015490921692820192909252600382015460608201526004820180549394509192909183916080840191906109819061343a565b80601f01602080910402602001604051908101604052809291908181526020018280546109ad9061343a565b80156109fa5780601f106109cf576101008083540402835291602001916109fa565b820191906000526020600020905b8154815290600101906020018083116109dd57829003601f168201915b50505091835250506005919091015460ff1615156020909101528451859087908110610a3657634e487b7160e01b600052603260045260246000fd5b6020908102919091010152610a4c600186613395565b945050505b80610a5b81613475565b9150506108cd565b50949350505050565b60606000610a7960085490565b905060008060005b83811015610adc5733600d6000610a99846001613395565b81526020810191909152604001600020600201546001600160a01b03161415610aca57610ac7600184613395565b92505b80610ad481613475565b915050610a81565b5060008267ffffffffffffffff811115610b0657634e487b7160e01b600052604160045260246000fd5b604051908082528060200260200182016040528015610b3f57816020015b610b2c612d12565b815260200190600190039081610b245790505b50905060005b84811015610a635733600d6000610b5d846001613395565b81526020810191909152604001600020600201546001600160a01b03161415610cc9576000610b8d826001613395565b6000818152600d6020908152604091829020825160c0810184528154815260018201546001600160a01b039081169382019390935260028201549092169282019290925260038201546060820152600482018054939450919290918391608084019190610bf99061343a565b80601f0160208091040260200160405190810160405280929190818152602001828054610c259061343a565b8015610c725780601f10610c4757610100808354040283529160200191610c72565b820191906000526020600020905b815481529060010190602001808311610c5557829003601f168201915b50505091835250506005919091015460ff1615156020909101528451859087908110610cae57634e487b7160e01b600052603260045260246000fd5b6020908102919091010152610cc4600186613395565b945050505b80610cd381613475565b915050610b45565b610ce53382611a32565b610d015760405162461bcd60e51b8152600401610700906132ff565b610836838383611b18565b600082815260076020526040902060010154610d288133611cb4565b6108368383611d18565b6001600160a01b0381163314610da25760405162461bcd60e51b815260206004820152602f60248201527f416363657373436f6e74726f6c3a2063616e206f6e6c792072656e6f756e636560448201526e103937b632b9903337b91039b2b63360891b6064820152608401610700565b610dac8282611d9e565b5050565b610dda7f9f2df0fed2c77648de5860a4cc508cd0818c85b8b8a1ab4ceeef8d981c8956a63361120d565b610e325760405162461bcd60e51b8152602060048201526024808201527f4f6e6c7920617574686f72697a6564206d696e746572732063616e20776974686044820152636472617760e01b6064820152608401610700565b336000818152600a602052604080822080549083905590519091839183156108fc0291849190818181858888f19350505050158015610836573d6000803e3d6000fd5b6108368383836040518060200160405280600081525061143c565b60606000610e9d60085490565b905060008060005b83811015610f005733600d6000610ebd846001613395565b81526020810191909152604001600020600101546001600160a01b03161415610eee57610eeb600184613395565b92505b80610ef881613475565b915050610ea5565b5060008267ffffffffffffffff811115610f2a57634e487b7160e01b600052604160045260246000fd5b604051908082528060200260200182016040528015610f6357816020015b610f50612d12565b815260200190600190039081610f485790505b50905060005b84811015610a635733600d6000610f81846001613395565b81526020810191909152604001600020600101546001600160a01b031614156110ed576000610fb1826001613395565b6000818152600d6020908152604091829020825160c0810184528154815260018201546001600160a01b03908116938201939093526002820154909216928201929092526003820154606082015260048201805493945091929091839160808401919061101d9061343a565b80601f01602080910402602001604051908101604052809291908181526020018280546110499061343a565b80156110965780601f1061106b57610100808354040283529160200191611096565b820191906000526020600020905b81548152906001019060200180831161107957829003601f168201915b50505091835250506005919091015460ff16151560209091015284518590879081106110d257634e487b7160e01b600052603260045260246000fd5b60209081029190910101526110e8600186613395565b945050505b806110f781613475565b915050610f69565b600061110a60085490565b905090565b6000818152600260205260408120546001600160a01b0316806106005760405162461bcd60e51b815260206004820152602960248201527f4552433732313a206f776e657220717565727920666f72206e6f6e657869737460448201526832b73a103a37b5b2b760b91b6064820152608401610700565b60006001600160a01b0382166111f15760405162461bcd60e51b815260206004820152602a60248201527f4552433732313a2062616c616e636520717565727920666f7220746865207a65604482015269726f206164647265737360b01b6064820152608401610700565b506001600160a01b031660009081526003602052604090205490565b60009182526007602090815260408084206001600160a01b0393909316845291905290205460ff1690565b6060600180546106159061343a565b610dac338383611e05565b60008061125e83611ed4565b905061128a7f9f2df0fed2c77648de5860a4cc508cd0818c85b8b8a1ab4ceeef8d981c8956a68261120d565b6112e05760405162461bcd60e51b815260206004820152602160248201527f5369676e617475726520696e76616c6964206f7220756e617574686f72697a656044820152601960fa1b6064820152608401610700565b6008546112ee906001613395565b8335146113525760405162461bcd60e51b815260206004820152602c60248201527f546f6b656e496420696e2074686520766f7563686572206973206e6f7420766160448201526b6c696420616e79206d6f726560a01b6064820152608401610700565b611360600880546001019055565b600061136b60085490565b90506113bd8160208601356113836040880188613350565b8080601f016020809104026020016040519081016040528093929190818152602001838380828437600092019190915250611f2d92505050565b9392505050565b600c546001600160a01b031633146114375760405162461bcd60e51b815260206004820152603060248201527f4f6e6c79206d61726b6574706c616365206f776e65722063616e20757064617460448201526f32903634b9ba34b73390383934b1b29760811b6064820152608401610700565b600b55565b6114463383611a32565b6114625760405162461bcd60e51b8152600401610700906132ff565b61146e84848484612026565b50505050565b6000818152600d6020526040902060038101546001909101546001600160a01b0316348211156114e65760405162461bcd60e51b815260206004820152601c60248201527f496e73756666696369656e742066756e647320746f2072656465656d000000006044820152606401610700565b6114f08184612059565b6000838152600d6020526040902060040180546115959185916115129061343a565b80601f016020809104026020016040519081016040528092919081815260200182805461153e9061343a565b801561158b5780601f106115605761010080835404028352916020019161158b565b820191906000526020600020905b81548152906001019060200180831161156e57829003601f168201915b505050505061218c565b6000838152600d602052604090206002810180546001600160a01b0319908116331790915560058201805460ff19166001908117909155909101805490911690556115e4600980546001019055565b6115ef813385611b18565b600c54600b546040516001600160a01b039092169181156108fc0291906000818181858888f1935050505015801561162b573d6000803e3d6000fd5b506040516001600160a01b038216903480156108fc02916000818181858888f1935050505015801561146e573d6000803e3d6000fd5b606061166c826119a7565b6116d25760405162461bcd60e51b815260206004820152603160248201527f45524337323155524953746f726167653a2055524920717565727920666f72206044820152703737b732bc34b9ba32b73a103a37b5b2b760791b6064820152608401610700565b600082815260066020526040812080546116eb9061343a565b80601f01602080910402602001604051908101604052809291908181526020018280546117179061343a565b80156117645780601f1061173957610100808354040283529160200191611764565b820191906000526020600020905b81548152906001019060200180831161174757829003601f168201915b50505050509050600061178260408051602081019091526000815290565b9050805160001415611795575092915050565b8151156117c75780826040516020016117af9291906130c1565b60405160208183030381529060405292505050919050565b6117d084612217565b949350505050565b6000828152600760205260409020600101546117f48133611cb4565b6108368383611d9e565b6000828152600d60205260409020600201546001600160a01b0316331461187a5760405162461bcd60e51b815260206004820152602a60248201527f4f6e6c79206974656d206f776e65722063616e20706572666f726d20746869736044820152691037b832b930ba34b7b760b11b6064820152608401610700565b600b5434146118d75760405162461bcd60e51b8152602060048201526024808201527f5072696365206d75737420626520657175616c20746f206c697374696e6720706044820152637269636560e01b6064820152608401610700565b6000828152600d6020526040902060058101805460ff19169055600381018290556001810180546001600160a01b03199081163317909155600290910180549091163017905561192760096122ee565b610dac333084611b18565b60006001600160e01b031982166380ac58cd60e01b148061196357506001600160e01b03198216635b5e139f60e01b145b8061060057506301ffc9a760e01b6001600160e01b0319831614610600565b60006001600160e01b03198216637965db0b60e01b1480610600575061060082611932565b6000908152600260205260409020546001600160a01b0316151590565b600081815260046020526040902080546001600160a01b0319166001600160a01b03841690811790915581906119f98261110f565b6001600160a01b03167f8c5be1e5ebec7d5bd14f71427d1e84f3dd0314c0f7b2291e5b200ac8c7c3b92560405160405180910390a45050565b6000611a3d826119a7565b611a9e5760405162461bcd60e51b815260206004820152602c60248201527f4552433732313a206f70657261746f7220717565727920666f72206e6f6e657860448201526b34b9ba32b73a103a37b5b2b760a11b6064820152608401610700565b6000611aa98361110f565b9050806001600160a01b0316846001600160a01b03161480611ae45750836001600160a01b0316611ad984610698565b6001600160a01b0316145b806117d057506001600160a01b0380821660009081526005602090815260408083209388168352929052205460ff166117d0565b826001600160a01b0316611b2b8261110f565b6001600160a01b031614611b8f5760405162461bcd60e51b815260206004820152602560248201527f4552433732313a207472616e736665722066726f6d20696e636f72726563742060448201526437bbb732b960d91b6064820152608401610700565b6001600160a01b038216611bf15760405162461bcd60e51b8152602060048201526024808201527f4552433732313a207472616e7366657220746f20746865207a65726f206164646044820152637265737360e01b6064820152608401610700565b611bfc6000826119c4565b6001600160a01b0383166000908152600360205260408120805460019290611c259084906133e0565b90915550506001600160a01b0382166000908152600360205260408120805460019290611c53908490613395565b909155505060008181526002602052604080822080546001600160a01b0319166001600160a01b0386811691821790925591518493918716917fddf252ad1be2c89b69c2b068fc378daa952ba7f163c4a11628f55a4df523b3ef91a4505050565b611cbe828261120d565b610dac57611cd6816001600160a01b03166014612345565b611ce1836020612345565b604051602001611cf29291906130f0565b60408051601f198184030181529082905262461bcd60e51b82526107009160040161329a565b611d22828261120d565b610dac5760008281526007602090815260408083206001600160a01b03851684529091529020805460ff19166001179055611d5a3390565b6001600160a01b0316816001600160a01b0316837f2f8788117e7eff1d82e926ec794901d17c78024a50270940304540a733656f0d60405160405180910390a45050565b611da8828261120d565b15610dac5760008281526007602090815260408083206001600160a01b0385168085529252808320805460ff1916905551339285917ff6391f5c32d9c69d2a47ea670b442974b53935d1edc7fd64eb21e047a839171b9190a45050565b816001600160a01b0316836001600160a01b03161415611e675760405162461bcd60e51b815260206004820152601960248201527f4552433732313a20617070726f766520746f2063616c6c6572000000000000006044820152606401610700565b6001600160a01b03838116600081815260056020908152604080832094871680845294825291829020805460ff191686151590811790915591519182527f17307eab39ab6107e8899845ad3d59bd9653f200f220920489ca2b5937696c31910160405180910390a3505050565b600080611ee083612527565b90506113bd81611ef36060860186613350565b8080601f0160208091040260200160405190810160405280939291908181526020018383808284376000920191909152506125b892505050565b6040805160c081018252848152336020808301918252308385019081526060840187815260808501878152600060a087018190528a8152600d8552969096208551815593516001850180546001600160a01b03199081166001600160a01b039384161790915592516002860180549094169116179091555160038301559251805192939192611fc29260048501920190612d46565b5060a091909101516005909101805460ff191691151591909117905560405183907fe4958780fe3b3f0505e410985e1047d8533d6d15ac3fb1c69558c491ed1f9965906120199033903090879087906000906131a2565b60405180910390a2505050565b612031848484611b18565b61203d848484846125dc565b61146e5760405162461bcd60e51b8152600401610700906132ad565b6001600160a01b0382166120af5760405162461bcd60e51b815260206004820181905260248201527f4552433732313a206d696e7420746f20746865207a65726f20616464726573736044820152606401610700565b6120b8816119a7565b156121055760405162461bcd60e51b815260206004820152601c60248201527f4552433732313a20746f6b656e20616c7265616479206d696e746564000000006044820152606401610700565b6001600160a01b038216600090815260036020526040812080546001929061212e908490613395565b909155505060008181526002602052604080822080546001600160a01b0319166001600160a01b03861690811790915590518392907fddf252ad1be2c89b69c2b068fc378daa952ba7f163c4a11628f55a4df523b3ef908290a45050565b612195826119a7565b6121f85760405162461bcd60e51b815260206004820152602e60248201527f45524337323155524953746f726167653a2055524920736574206f66206e6f6e60448201526d32bc34b9ba32b73a103a37b5b2b760911b6064820152608401610700565b6000828152600660209081526040909120825161083692840190612d46565b6060612222826119a7565b6122865760405162461bcd60e51b815260206004820152602f60248201527f4552433732314d657461646174613a2055524920717565727920666f72206e6f60448201526e3732bc34b9ba32b73a103a37b5b2b760891b6064820152608401610700565b600061229d60408051602081019091526000815290565b905060008151116122bd57604051806020016040528060008152506113bd565b806122c7846126e9565b6040516020016122d89291906130c1565b6040516020818303038152906040529392505050565b80548061233d5760405162461bcd60e51b815260206004820152601b60248201527f436f756e7465723a2064656372656d656e74206f766572666c6f7700000000006044820152606401610700565b600019019055565b606060006123548360026133c1565b61235f906002613395565b67ffffffffffffffff81111561238557634e487b7160e01b600052604160045260246000fd5b6040519080825280601f01601f1916602001820160405280156123af576020820181803683370190505b509050600360fc1b816000815181106123d857634e487b7160e01b600052603260045260246000fd5b60200101906001600160f81b031916908160001a905350600f60fb1b8160018151811061241557634e487b7160e01b600052603260045260246000fd5b60200101906001600160f81b031916908160001a90535060006124398460026133c1565b612444906001613395565b90505b60018111156124d8576f181899199a1a9b1b9c1cb0b131b232b360811b85600f166010811061248657634e487b7160e01b600052603260045260246000fd5b1a60f81b8282815181106124aa57634e487b7160e01b600052603260045260246000fd5b60200101906001600160f81b031916908160001a90535060049490941c936124d181613423565b9050612447565b5083156113bd5760405162461bcd60e51b815260206004820181905260248201527f537472696e67733a20686578206c656e67746820696e73756666696369656e746044820152606401610700565b60006106007f187a5a3cecea031f9efa92ea3d1c193869f456110d6ea18015cab768a37f4b79833560208501356125616040870187613350565b60405161256f9291906130b1565b60405190819003812061259d9493929160200193845260208401929092526040830152606082015260800190565b60405160208183030381529060405280519060200120612803565b60008060006125c78585612851565b915091506125d4816128c1565b509392505050565b60006001600160a01b0384163b156126de57604051630a85bd0160e11b81526001600160a01b0385169063150b7a0290612620903390899088908890600401613165565b602060405180830381600087803b15801561263a57600080fd5b505af192505050801561266a575060408051601f3d908101601f1916820190925261266791810190613010565b60015b6126c4573d808015612698576040519150601f19603f3d011682016040523d82523d6000602084013e61269d565b606091505b5080516126bc5760405162461bcd60e51b8152600401610700906132ad565b805181602001fd5b6001600160e01b031916630a85bd0160e11b1490506117d0565b506001949350505050565b60608161270d5750506040805180820190915260018152600360fc1b602082015290565b8160005b8115612737578061272181613475565b91506127309050600a836133ad565b9150612711565b60008167ffffffffffffffff81111561276057634e487b7160e01b600052604160045260246000fd5b6040519080825280601f01601f19166020018201604052801561278a576020820181803683370190505b5090505b84156117d05761279f6001836133e0565b91506127ac600a86613490565b6127b7906030613395565b60f81b8183815181106127da57634e487b7160e01b600052603260045260246000fd5b60200101906001600160f81b031916908160001a9053506127fc600a866133ad565b945061278e565b6000610600612810612ac5565b8360405161190160f01b6020820152602281018390526042810182905260009060620160405160208183030381529060405280519060200120905092915050565b6000808251604114156128885760208301516040840151606085015160001a61287c87828585612bec565b945094505050506128ba565b8251604014156128b257602083015160408401516128a7868383612cd9565b9350935050506128ba565b506000905060025b9250929050565b60008160048111156128e357634e487b7160e01b600052602160045260246000fd5b14156128ec5750565b600181600481111561290e57634e487b7160e01b600052602160045260246000fd5b141561295c5760405162461bcd60e51b815260206004820152601860248201527f45434453413a20696e76616c6964207369676e617475726500000000000000006044820152606401610700565b600281600481111561297e57634e487b7160e01b600052602160045260246000fd5b14156129cc5760405162461bcd60e51b815260206004820152601f60248201527f45434453413a20696e76616c6964207369676e6174757265206c656e677468006044820152606401610700565b60038160048111156129ee57634e487b7160e01b600052602160045260246000fd5b1415612a475760405162461bcd60e51b815260206004820152602260248201527f45434453413a20696e76616c6964207369676e6174757265202773272076616c604482015261756560f01b6064820152608401610700565b6004816004811115612a6957634e487b7160e01b600052602160045260246000fd5b1415612ac25760405162461bcd60e51b815260206004820152602260248201527f45434453413a20696e76616c6964207369676e6174757265202776272076616c604482015261756560f01b6064820152608401610700565b50565b6000306001600160a01b037f000000000000000000000000000000000000000000000000000000000000000016148015612b1e57507f000000000000000000000000000000000000000000000000000000000000000046145b15612b4857507f000000000000000000000000000000000000000000000000000000000000000090565b50604080517f00000000000000000000000000000000000000000000000000000000000000006020808301919091527f0000000000000000000000000000000000000000000000000000000000000000828401527f000000000000000000000000000000000000000000000000000000000000000060608301524660808301523060a0808401919091528351808403909101815260c0909201909252805191012090565b6000807f7fffffffffffffffffffffffffffffff5d576e7357a4501ddfe92f46681b20a0831115612c235750600090506003612cd0565b8460ff16601b14158015612c3b57508460ff16601c14155b15612c4c5750600090506004612cd0565b6040805160008082526020820180845289905260ff881692820192909252606081018690526080810185905260019060a0016020604051602081039080840390855afa158015612ca0573d6000803e3d6000fd5b5050604051601f1901519150506001600160a01b038116612cc957600060019250925050612cd0565b9150600090505b94509492505050565b6000806001600160ff1b03831681612cf660ff86901c601b613395565b9050612d0487828885612bec565b935093505050935093915050565b6040805160c0810182526000808252602082018190529181018290526060808201839052608082015260a081019190915290565b828054612d529061343a565b90600052602060002090601f016020900481019282612d745760008555612dba565b82601f10612d8d57805160ff1916838001178555612dba565b82800160010185558215612dba579182015b82811115612dba578251825591602001919060010190612d9f565b50612dc6929150612dca565b5090565b5b80821115612dc65760008155600101612dcb565b80356001600160a01b0381168114612df657600080fd5b919050565b600060208284031215612e0c578081fd5b6113bd82612ddf565b60008060408385031215612e27578081fd5b612e3083612ddf565b9150612e3e60208401612ddf565b90509250929050565b600080600060608486031215612e5b578081fd5b612e6484612ddf565b9250612e7260208501612ddf565b9150604084013590509250925092565b60008060008060808587031215612e97578081fd5b612ea085612ddf565b9350612eae60208601612ddf565b925060408501359150606085013567ffffffffffffffff80821115612ed1578283fd5b818701915087601f830112612ee4578283fd5b813581811115612ef657612ef66134d0565b604051601f8201601f19908116603f01168101908382118183101715612f1e57612f1e6134d0565b816040528281528a6020848701011115612f36578586fd5b82602086016020830137918201602001949094529598949750929550505050565b60008060408385031215612f69578182fd5b612f7283612ddf565b915060208301358015158114612f86578182fd5b809150509250929050565b60008060408385031215612fa3578182fd5b612fac83612ddf565b946020939093013593505050565b600060208284031215612fcb578081fd5b5035919050565b60008060408385031215612fe4578182fd5b82359150612e3e60208401612ddf565b600060208284031215613005578081fd5b81356113bd816134e6565b600060208284031215613021578081fd5b81516113bd816134e6565b60006020828403121561303d578081fd5b813567ffffffffffffffff811115613053578182fd5b8201608081850312156113bd578182fd5b60008060408385031215613076578182fd5b50508035926020909101359150565b6000815180845261309d8160208601602086016133f7565b601f01601f19169290920160200192915050565b8183823760009101908152919050565b600083516130d38184602088016133f7565b8351908301906130e78183602088016133f7565b01949350505050565b7f416363657373436f6e74726f6c3a206163636f756e74200000000000000000008152600083516131288160178501602088016133f7565b7001034b99036b4b9b9b4b733903937b6329607d1b60179184019182015283516131598160288401602088016133f7565b01602801949350505050565b6001600160a01b038581168252841660208201526040810183905260806060820181905260009061319890830184613085565b9695505050505050565b6001600160a01b038681168252851660208201526040810184905260a0606082018190526000906131d590830185613085565b905082151560808301529695505050505050565b60006020808301818452808551808352604092508286019150828160051b870101848801865b8381101561328c57888303603f19018552815180518452878101516001600160a01b03908116898601528782015116878501526060808201519085015260808082015160c0828701819052919061326883880182613085565b60a0948501511515979094019690965250509487019492509086019060010161320f565b509098975050505050505050565b6020815260006113bd6020830184613085565b60208082526032908201527f4552433732313a207472616e7366657220746f206e6f6e20455243373231526560408201527131b2b4bb32b91034b6b83632b6b2b73a32b960711b606082015260800190565b60208082526031908201527f4552433732313a207472616e736665722063616c6c6572206973206e6f74206f6040820152701ddb995c881b9bdc88185c1c1c9bdd9959607a1b606082015260800190565b6000808335601e19843603018112613366578283fd5b83018035915067ffffffffffffffff821115613380578283fd5b6020019150368190038213156128ba57600080fd5b600082198211156133a8576133a86134a4565b500190565b6000826133bc576133bc6134ba565b500490565b60008160001904831182151516156133db576133db6134a4565b500290565b6000828210156133f2576133f26134a4565b500390565b60005b838110156134125781810151838201526020016133fa565b8381111561146e5750506000910152565b600081613432576134326134a4565b506000190190565b600181811c9082168061344e57607f821691505b6020821081141561346f57634e487b7160e01b600052602260045260246000fd5b50919050565b6000600019821415613489576134896134a4565b5060010190565b60008261349f5761349f6134ba565b500690565b634e487b7160e01b600052601160045260246000fd5b634e487b7160e01b600052601260045260246000fd5b634e487b7160e01b600052604160045260246000fd5b6001600160e01b031981168114612ac257600080fdfea2646970667358221220a3b3586ec0164fce9e3f66915514516b304fd0fc827fbfb9fc2284263c39e7f664736f6c63430008040033",
  "linkReferences": {},
  "deployedLinkReferences": {}
}