{
  "_format": "hh-sol-artifact-1",
  "contractName": "NFTMarketplace",
  "sourceName": "contracts/NFTMarketplace.sol",
  "abi": [
    {
      "inputs": [],
      "stateMutability": "nonpayable",
      "type": "constructor"
    },
    {
      "anonymous": false,
      "inputs": [
        {
          "indexed": true,
          "internalType": "address",
          "name": "owner",
          "type": "address"
        },
        {
          "indexed": true,
          "internalType": "address",
          "name": "approved",
          "type": "address"
        },
        {
          "indexed": true,
          "internalType": "uint256",
          "name": "tokenId",
          "type": "uint256"
        }
      ],
      "name": "Approval",
      "type": "event"
    },
    {
      "anonymous": false,
      "inputs": [
        {
          "indexed": true,
          "internalType": "address",
          "name": "owner",
          "type": "address"
        },
        {
          "indexed": true,
          "internalType": "address",
          "name": "operator",
          "type": "address"
        },
        {
          "indexed": false,
          "internalType": "bool",
          "name": "approved",
          "type": "bool"
        }
      ],
      "name": "ApprovalForAll",
      "type": "event"
    },
    {
      "anonymous": false,
      "inputs": [
        {
          "indexed": true,
          "internalType": "uint256",
          "name": "tokenId",
          "type": "uint256"
        },
        {
          "indexed": false,
          "internalType": "address",
          "name": "seller",
          "type": "address"
        },
        {
          "indexed": false,
          "internalType": "address",
          "name": "owner",
          "type": "address"
        },
        {
          "indexed": false,
          "internalType": "uint256",
          "name": "price",
          "type": "uint256"
        },
        {
          "indexed": false,
          "internalType": "string",
          "name": "tokenURI",
          "type": "string"
        },
        {
          "indexed": false,
          "internalType": "bool",
          "name": "sold",
          "type": "bool"
        }
      ],
      "name": "MarketItemCreated",
      "type": "event"
    },
    {
      "anonymous": false,
      "inputs": [
        {
          "indexed": true,
          "internalType": "address",
          "name": "from",
          "type": "address"
        },
        {
          "indexed": true,
          "internalType": "address",
          "name": "to",
          "type": "address"
        },
        {
          "indexed": true,
          "internalType": "uint256",
          "name": "tokenId",
          "type": "uint256"
        }
      ],
      "name": "Transfer",
      "type": "event"
    },
    {
      "inputs": [
        {
          "internalType": "address",
          "name": "to",
          "type": "address"
        },
        {
          "internalType": "uint256",
          "name": "tokenId",
          "type": "uint256"
        }
      ],
      "name": "approve",
      "outputs": [],
      "stateMutability": "nonpayable",
      "type": "function"
    },
    {
      "inputs": [
        {
          "internalType": "address",
          "name": "owner",
          "type": "address"
        }
      ],
      "name": "balanceOf",
      "outputs": [
        {
          "internalType": "uint256",
          "name": "",
          "type": "uint256"
        }
      ],
      "stateMutability": "view",
      "type": "function"
    },
    {
      "inputs": [
        {
          "internalType": "uint256",
          "name": "tokenId",
          "type": "uint256"
        }
      ],
      "name": "createMarketSale",
      "outputs": [],
      "stateMutability": "payable",
      "type": "function"
    },
    {
      "inputs": [
        {
          "internalType": "string",
          "name": "tokenURI",
          "type": "string"
        },
        {
          "internalType": "uint256",
          "name": "price",
          "type": "uint256"
        }
      ],
      "name": "createToken",
      "outputs": [
        {
          "internalType": "uint256",
          "name": "",
          "type": "uint256"
        }
      ],
      "stateMutability": "payable",
      "type": "function"
    },
    {
      "inputs": [],
      "name": "fetchItemsListed",
      "outputs": [
        {
          "components": [
            {
              "internalType": "uint256",
              "name": "tokenId",
              "type": "uint256"
            },
            {
              "internalType": "address payable",
              "name": "seller",
              "type": "address"
            },
            {
              "internalType": "address payable",
              "name": "owner",
              "type": "address"
            },
            {
              "internalType": "uint256",
              "name": "price",
              "type": "uint256"
            },
            {
              "internalType": "string",
              "name": "tokenURI",
              "type": "string"
            },
            {
              "internalType": "bool",
              "name": "sold",
              "type": "bool"
            }
          ],
          "internalType": "struct NFTMarketplace.MarketItem[]",
          "name": "",
          "type": "tuple[]"
        }
      ],
      "stateMutability": "view",
      "type": "function"
    },
    {
      "inputs": [],
      "name": "fetchMarketItems",
      "outputs": [
        {
          "components": [
            {
              "internalType": "uint256",
              "name": "tokenId",
              "type": "uint256"
            },
            {
              "internalType": "address payable",
              "name": "seller",
              "type": "address"
            },
            {
              "internalType": "address payable",
              "name": "owner",
              "type": "address"
            },
            {
              "internalType": "uint256",
              "name": "price",
              "type": "uint256"
            },
            {
              "internalType": "string",
              "name": "tokenURI",
              "type": "string"
            },
            {
              "internalType": "bool",
              "name": "sold",
              "type": "bool"
            }
          ],
          "internalType": "struct NFTMarketplace.MarketItem[]",
          "name": "",
          "type": "tuple[]"
        }
      ],
      "stateMutability": "view",
      "type": "function"
    },
    {
      "inputs": [],
      "name": "fetchMyNFTs",
      "outputs": [
        {
          "components": [
            {
              "internalType": "uint256",
              "name": "tokenId",
              "type": "uint256"
            },
            {
              "internalType": "address payable",
              "name": "seller",
              "type": "address"
            },
            {
              "internalType": "address payable",
              "name": "owner",
              "type": "address"
            },
            {
              "internalType": "uint256",
              "name": "price",
              "type": "uint256"
            },
            {
              "internalType": "string",
              "name": "tokenURI",
              "type": "string"
            },
            {
              "internalType": "bool",
              "name": "sold",
              "type": "bool"
            }
          ],
          "internalType": "struct NFTMarketplace.MarketItem[]",
          "name": "",
          "type": "tuple[]"
        }
      ],
      "stateMutability": "view",
      "type": "function"
    },
    {
      "inputs": [
        {
          "internalType": "uint256",
          "name": "tokenId",
          "type": "uint256"
        }
      ],
      "name": "getApproved",
      "outputs": [
        {
          "internalType": "address",
          "name": "",
          "type": "address"
        }
      ],
      "stateMutability": "view",
      "type": "function"
    },
    {
      "inputs": [],
      "name": "getChainID",
      "outputs": [
        {
          "internalType": "uint256",
          "name": "",
          "type": "uint256"
        }
      ],
      "stateMutability": "view",
      "type": "function"
    },
    {
      "inputs": [],
      "name": "getCurrentTokenId",
      "outputs": [
        {
          "internalType": "uint256",
          "name": "",
          "type": "uint256"
        }
      ],
      "stateMutability": "view",
      "type": "function"
    },
    {
      "inputs": [],
      "name": "getListingPrice",
      "outputs": [
        {
          "internalType": "uint256",
          "name": "",
          "type": "uint256"
        }
      ],
      "stateMutability": "view",
      "type": "function"
    },
    {
      "inputs": [
        {
          "internalType": "address",
          "name": "owner",
          "type": "address"
        },
        {
          "internalType": "address",
          "name": "operator",
          "type": "address"
        }
      ],
      "name": "isApprovedForAll",
      "outputs": [
        {
          "internalType": "bool",
          "name": "",
          "type": "bool"
        }
      ],
      "stateMutability": "view",
      "type": "function"
    },
    {
      "inputs": [],
      "name": "name",
      "outputs": [
        {
          "internalType": "string",
          "name": "",
          "type": "string"
        }
      ],
      "stateMutability": "view",
      "type": "function"
    },
    {
      "inputs": [
        {
          "internalType": "uint256",
          "name": "tokenId",
          "type": "uint256"
        }
      ],
      "name": "ownerOf",
      "outputs": [
        {
          "internalType": "address",
          "name": "",
          "type": "address"
        }
      ],
      "stateMutability": "view",
      "type": "function"
    },
    {
      "inputs": [
        {
          "internalType": "uint256",
          "name": "tokenId",
          "type": "uint256"
        },
        {
          "internalType": "uint256",
          "name": "price",
          "type": "uint256"
        }
      ],
      "name": "resellToken",
      "outputs": [],
      "stateMutability": "payable",
      "type": "function"
    },
    {
      "inputs": [
        {
          "internalType": "address",
          "name": "from",
          "type": "address"
        },
        {
          "internalType": "address",
          "name": "to",
          "type": "address"
        },
        {
          "internalType": "uint256",
          "name": "tokenId",
          "type": "uint256"
        }
      ],
      "name": "safeTransferFrom",
      "outputs": [],
      "stateMutability": "nonpayable",
      "type": "function"
    },
    {
      "inputs": [
        {
          "internalType": "address",
          "name": "from",
          "type": "address"
        },
        {
          "internalType": "address",
          "name": "to",
          "type": "address"
        },
        {
          "internalType": "uint256",
          "name": "tokenId",
          "type": "uint256"
        },
        {
          "internalType": "bytes",
          "name": "_data",
          "type": "bytes"
        }
      ],
      "name": "safeTransferFrom",
      "outputs": [],
      "stateMutability": "nonpayable",
      "type": "function"
    },
    {
      "inputs": [
        {
          "internalType": "address",
          "name": "operator",
          "type": "address"
        },
        {
          "internalType": "bool",
          "name": "approved",
          "type": "bool"
        }
      ],
      "name": "setApprovalForAll",
      "outputs": [],
      "stateMutability": "nonpayable",
      "type": "function"
    },
    {
      "inputs": [
        {
          "internalType": "bytes4",
          "name": "interfaceId",
          "type": "bytes4"
        }
      ],
      "name": "supportsInterface",
      "outputs": [
        {
          "internalType": "bool",
          "name": "",
          "type": "bool"
        }
      ],
      "stateMutability": "view",
      "type": "function"
    },
    {
      "inputs": [],
      "name": "symbol",
      "outputs": [
        {
          "internalType": "string",
          "name": "",
          "type": "string"
        }
      ],
      "stateMutability": "view",
      "type": "function"
    },
    {
      "inputs": [
        {
          "internalType": "uint256",
          "name": "tokenId",
          "type": "uint256"
        }
      ],
      "name": "tokenURI",
      "outputs": [
        {
          "internalType": "string",
          "name": "",
          "type": "string"
        }
      ],
      "stateMutability": "view",
      "type": "function"
    },
    {
      "inputs": [
        {
          "internalType": "address",
          "name": "from",
          "type": "address"
        },
        {
          "internalType": "address",
          "name": "to",
          "type": "address"
        },
        {
          "internalType": "uint256",
          "name": "tokenId",
          "type": "uint256"
        }
      ],
      "name": "transferFrom",
      "outputs": [],
      "stateMutability": "nonpayable",
      "type": "function"
    },
    {
      "inputs": [
        {
          "internalType": "uint256",
          "name": "_listingPrice",
          "type": "uint256"
        }
      ],
      "name": "updateListingPrice",
      "outputs": [],
      "stateMutability": "payable",
      "type": "function"
    }
  ],
  "bytecode": "0x608060405265e35fa931a0006009553480156200001b57600080fd5b50604080518082018252601081526f4d657461766572736520546f6b656e7360801b6020808301918252835180850190945260048452631351551560e21b9084015281519192916200007091600091620000a1565b50805162000086906001906020840190620000a1565b5050600a80546001600160a01b031916331790555062000184565b828054620000af9062000147565b90600052602060002090601f016020900481019282620000d357600085556200011e565b82601f10620000ee57805160ff19168380011785556200011e565b828001600101855582156200011e579182015b828111156200011e57825182559160200191906001019062000101565b506200012c92915062000130565b5090565b5b808211156200012c576000815560010162000131565b600181811c908216806200015c57607f821691505b602082108114156200017e57634e487b7160e01b600052602260045260246000fd5b50919050565b61244880620001946000396000f3fe6080604052600436106101405760003560e01c8063564b81ef116100b6578063ae677aa31161006f578063ae677aa314610351578063b88d4fde14610364578063be9af53614610384578063c87b56dd14610397578063e219fc75146103b7578063e985e9c5146103ca57600080fd5b8063564b81ef146102b65780636352211e146102c957806370a08231146102e957806372b3b6201461030957806395d89b411461031c578063a22cb4651461033157600080fd5b806312e855851161010857806312e8558514610218578063202e37401461023757806323b872dd1461024c57806342842e0e1461026c57806345f8fa801461028c57806356189236146102a157600080fd5b806301ffc9a71461014557806306fdde031461017a578063081812fc1461019c578063095ea7b3146101d45780630f08efe0146101f6575b600080fd5b34801561015157600080fd5b50610165610160366004611f8d565b610413565b60405190151581526020015b60405180910390f35b34801561018657600080fd5b5061018f610465565b60405161017191906121e4565b3480156101a857600080fd5b506101bc6101b736600461201b565b6104f7565b6040516001600160a01b039091168152602001610171565b3480156101e057600080fd5b506101f46101ef366004611f64565b610591565b005b34801561020257600080fd5b5061020b6106a7565b6040516101719190612133565b34801561022457600080fd5b506009545b604051908152602001610171565b34801561024357600080fd5b5061020b6108d8565b34801561025857600080fd5b506101f4610267366004611e76565b610b47565b34801561027857600080fd5b506101f4610287366004611e76565b610b78565b34801561029857600080fd5b5061020b610b93565b3480156102ad57600080fd5b50610229610e02565b3480156102c257600080fd5b5046610229565b3480156102d557600080fd5b506101bc6102e436600461201b565b610e12565b3480156102f557600080fd5b50610229610304366004611e2a565b610e89565b610229610317366004611fc5565b610f10565b34801561032857600080fd5b5061018f610f3f565b34801561033d57600080fd5b506101f461034c366004611f2a565b610f4e565b6101f461035f36600461201b565b610f5d565b34801561037057600080fd5b506101f461037f366004611eb1565b610fd5565b6101f461039236600461201b565b61100d565b3480156103a357600080fd5b5061018f6103b236600461201b565b611175565b6101f46103c5366004612033565b6112fc565b3480156103d657600080fd5b506101656103e5366004611e44565b6001600160a01b03918216600090815260056020908152604080832093909416825291909152205460ff1690565b60006001600160e01b031982166380ac58cd60e01b148061044457506001600160e01b03198216635b5e139f60e01b145b8061045f57506301ffc9a760e01b6001600160e01b03198316145b92915050565b6060600080546104749061234d565b80601f01602080910402602001604051908101604052809291908181526020018280546104a09061234d565b80156104ed5780601f106104c2576101008083540402835291602001916104ed565b820191906000526020600020905b8154815290600101906020018083116104d057829003601f168201915b5050505050905090565b6000818152600260205260408120546001600160a01b03166105755760405162461bcd60e51b815260206004820152602c60248201527f4552433732313a20617070726f76656420717565727920666f72206e6f6e657860448201526b34b9ba32b73a103a37b5b2b760a11b60648201526084015b60405180910390fd5b506000908152600460205260409020546001600160a01b031690565b600061059c82610e12565b9050806001600160a01b0316836001600160a01b0316141561060a5760405162461bcd60e51b815260206004820152602160248201527f4552433732313a20617070726f76616c20746f2063757272656e74206f776e656044820152603960f91b606482015260840161056c565b336001600160a01b0382161480610626575061062681336103e5565b6106985760405162461bcd60e51b815260206004820152603860248201527f4552433732313a20617070726f76652063616c6c6572206973206e6f74206f7760448201527f6e6572206e6f7220617070726f76656420666f7220616c6c0000000000000000606482015260840161056c565b6106a283836113f4565b505050565b606060006106b460075490565b905060006106c160085490565b6007546106ce919061230a565b90506000808267ffffffffffffffff8111156106fa57634e487b7160e01b600052604160045260246000fd5b60405190808252806020026020018201604052801561073357816020015b610720611ccb565b8152602001906001900390816107185790505b50905060005b848110156108cf5730600b60006107518460016122de565b81526020810191909152604001600020600201546001600160a01b031614156108bd5760006107818260016122de565b6000818152600b6020908152604091829020825160c0810184528154815260018201546001600160a01b0390811693820193909352600282015490921692820192909252600382015460608201526004820180549394509192909183916080840191906107ed9061234d565b80601f01602080910402602001604051908101604052809291908181526020018280546108199061234d565b80156108665780601f1061083b57610100808354040283529160200191610866565b820191906000526020600020905b81548152906001019060200180831161084957829003601f168201915b50505091835250506005919091015460ff16151560209091015284518590879081106108a257634e487b7160e01b600052603260045260246000fd5b60209081029190910101526108b86001866122de565b945050505b806108c781612388565b915050610739565b50949350505050565b606060006108e560075490565b905060008060005b838110156109485733600b60006109058460016122de565b81526020810191909152604001600020600201546001600160a01b03161415610936576109336001846122de565b92505b8061094081612388565b9150506108ed565b5060008267ffffffffffffffff81111561097257634e487b7160e01b600052604160045260246000fd5b6040519080825280602002602001820160405280156109ab57816020015b610998611ccb565b8152602001906001900390816109905790505b50905060005b848110156108cf5733600b60006109c98460016122de565b81526020810191909152604001600020600201546001600160a01b03161415610b355760006109f98260016122de565b6000818152600b6020908152604091829020825160c0810184528154815260018201546001600160a01b039081169382019390935260028201549092169282019290925260038201546060820152600482018054939450919290918391608084019190610a659061234d565b80601f0160208091040260200160405190810160405280929190818152602001828054610a919061234d565b8015610ade5780601f10610ab357610100808354040283529160200191610ade565b820191906000526020600020905b815481529060010190602001808311610ac157829003601f168201915b50505091835250506005919091015460ff1615156020909101528451859087908110610b1a57634e487b7160e01b600052603260045260246000fd5b6020908102919091010152610b306001866122de565b945050505b80610b3f81612388565b9150506109b1565b610b513382611462565b610b6d5760405162461bcd60e51b815260040161056c9061228d565b6106a2838383611555565b6106a283838360405180602001604052806000815250610fd5565b60606000610ba060075490565b905060008060005b83811015610c035733600b6000610bc08460016122de565b81526020810191909152604001600020600101546001600160a01b03161415610bf157610bee6001846122de565b92505b80610bfb81612388565b915050610ba8565b5060008267ffffffffffffffff811115610c2d57634e487b7160e01b600052604160045260246000fd5b604051908082528060200260200182016040528015610c6657816020015b610c53611ccb565b815260200190600190039081610c4b5790505b50905060005b848110156108cf5733600b6000610c848460016122de565b81526020810191909152604001600020600101546001600160a01b03161415610df0576000610cb48260016122de565b6000818152600b6020908152604091829020825160c0810184528154815260018201546001600160a01b039081169382019390935260028201549092169282019290925260038201546060820152600482018054939450919290918391608084019190610d209061234d565b80601f0160208091040260200160405190810160405280929190818152602001828054610d4c9061234d565b8015610d995780601f10610d6e57610100808354040283529160200191610d99565b820191906000526020600020905b815481529060010190602001808311610d7c57829003601f168201915b50505091835250506005919091015460ff1615156020909101528451859087908110610dd557634e487b7160e01b600052603260045260246000fd5b6020908102919091010152610deb6001866122de565b945050505b80610dfa81612388565b915050610c6c565b6000610e0d60075490565b905090565b6000818152600260205260408120546001600160a01b03168061045f5760405162461bcd60e51b815260206004820152602960248201527f4552433732313a206f776e657220717565727920666f72206e6f6e657869737460448201526832b73a103a37b5b2b760b91b606482015260840161056c565b60006001600160a01b038216610ef45760405162461bcd60e51b815260206004820152602a60248201527f4552433732313a2062616c616e636520717565727920666f7220746865207a65604482015269726f206164647265737360b01b606482015260840161056c565b506001600160a01b031660009081526003602052604090205490565b6000610f20600780546001019055565b6000610f2b60075490565b9050610f388184866116f1565b9392505050565b6060600180546104749061234d565b610f59338383611864565b5050565b600a546001600160a01b03163314610fd05760405162461bcd60e51b815260206004820152603060248201527f4f6e6c79206d61726b6574706c616365206f776e65722063616e20757064617460448201526f32903634b9ba34b73390383934b1b29760811b606482015260840161056c565b600955565b610fdf3383611462565b610ffb5760405162461bcd60e51b815260040161056c9061228d565b61100784848484611933565b50505050565b6000818152600b6020526040902060030154348114611096576040805162461bcd60e51b81526020600482015260248101919091527f506c65617365207375626d6974207468652061736b696e67207072696365206960448201527f6e206f7264657220746f20636f6d706c65746520746865207075726368617365606482015260840161056c565b6000828152600b602052604090206002810180546001600160a01b0319908116331790915560058201805460ff19166001908117909155909101805490911690556110e5600880546001019055565b6110f0303384611555565b600a546009546040516001600160a01b039092169181156108fc0291906000818181858888f1935050505015801561112c573d6000803e3d6000fd5b506000828152600b60205260408082206001015490516001600160a01b03909116913480156108fc02929091818181858888f193505050501580156106a2573d6000803e3d6000fd5b6000818152600260205260409020546060906001600160a01b03166111f65760405162461bcd60e51b815260206004820152603160248201527f45524337323155524953746f726167653a2055524920717565727920666f72206044820152703737b732bc34b9ba32b73a103a37b5b2b760791b606482015260840161056c565b6000828152600660205260408120805461120f9061234d565b80601f016020809104026020016040519081016040528092919081815260200182805461123b9061234d565b80156112885780601f1061125d57610100808354040283529160200191611288565b820191906000526020600020905b81548152906001019060200180831161126b57829003601f168201915b5050505050905060006112a660408051602081019091526000815290565b90508051600014156112b9575092915050565b8151156112eb5780826040516020016112d3929190612080565b60405160208183030381529060405292505050919050565b6112f484611966565b949350505050565b6000828152600b60205260409020600201546001600160a01b031633146113785760405162461bcd60e51b815260206004820152602a60248201527f4f6e6c79206974656d206f776e65722063616e20706572666f726d20746869736044820152691037b832b930ba34b7b760b11b606482015260840161056c565b60095434146113995760405162461bcd60e51b815260040161056c90612249565b6000828152600b6020526040902060058101805460ff19169055600381018290556001810180546001600160a01b0319908116331790915560029091018054909116301790556113e96008611a4d565b610f59333084611555565b600081815260046020526040902080546001600160a01b0319166001600160a01b038416908117909155819061142982610e12565b6001600160a01b03167f8c5be1e5ebec7d5bd14f71427d1e84f3dd0314c0f7b2291e5b200ac8c7c3b92560405160405180910390a45050565b6000818152600260205260408120546001600160a01b03166114db5760405162461bcd60e51b815260206004820152602c60248201527f4552433732313a206f70657261746f7220717565727920666f72206e6f6e657860448201526b34b9ba32b73a103a37b5b2b760a11b606482015260840161056c565b60006114e683610e12565b9050806001600160a01b0316846001600160a01b031614806115215750836001600160a01b0316611516846104f7565b6001600160a01b0316145b806112f457506001600160a01b0380821660009081526005602090815260408083209388168352929052205460ff166112f4565b826001600160a01b031661156882610e12565b6001600160a01b0316146115cc5760405162461bcd60e51b815260206004820152602560248201527f4552433732313a207472616e736665722066726f6d20696e636f72726563742060448201526437bbb732b960d91b606482015260840161056c565b6001600160a01b03821661162e5760405162461bcd60e51b8152602060048201526024808201527f4552433732313a207472616e7366657220746f20746865207a65726f206164646044820152637265737360e01b606482015260840161056c565b6116396000826113f4565b6001600160a01b038316600090815260036020526040812080546001929061166290849061230a565b90915550506001600160a01b03821660009081526003602052604081208054600192906116909084906122de565b909155505060008181526002602052604080822080546001600160a01b0319166001600160a01b0386811691821790925591518493918716917fddf252ad1be2c89b69c2b068fc378daa952ba7f163c4a11628f55a4df523b3ef91a4505050565b600082116117415760405162461bcd60e51b815260206004820152601c60248201527f5072696365206d757374206265206174206c6561737420312077656900000000604482015260640161056c565b60095434146117625760405162461bcd60e51b815260040161056c90612249565b6040805160c081018252848152336020808301918252308385019081526060840187815260808501878152600060a087018190528a8152600b8552969096208551815593516001850180546001600160a01b03199081166001600160a01b0393841617909155925160028601805490941691161790915551600383015592518051929391926117f79260048501920190611cff565b5060a091909101516005909101805460ff191691151591909117905561181e333085611555565b827fe4958780fe3b3f0505e410985e1047d8533d6d15ac3fb1c69558c491ed1f99653330858560006040516118579594939291906120ec565b60405180910390a2505050565b816001600160a01b0316836001600160a01b031614156118c65760405162461bcd60e51b815260206004820152601960248201527f4552433732313a20617070726f766520746f2063616c6c657200000000000000604482015260640161056c565b6001600160a01b03838116600081815260056020908152604080832094871680845294825291829020805460ff191686151590811790915591519182527f17307eab39ab6107e8899845ad3d59bd9653f200f220920489ca2b5937696c31910160405180910390a3505050565b61193e848484611555565b61194a84848484611aa4565b6110075760405162461bcd60e51b815260040161056c906121f7565b6000818152600260205260409020546060906001600160a01b03166119e55760405162461bcd60e51b815260206004820152602f60248201527f4552433732314d657461646174613a2055524920717565727920666f72206e6f60448201526e3732bc34b9ba32b73a103a37b5b2b760891b606482015260840161056c565b60006119fc60408051602081019091526000815290565b90506000815111611a1c5760405180602001604052806000815250610f38565b80611a2684611bb1565b604051602001611a37929190612080565b6040516020818303038152906040529392505050565b805480611a9c5760405162461bcd60e51b815260206004820152601b60248201527f436f756e7465723a2064656372656d656e74206f766572666c6f770000000000604482015260640161056c565b600019019055565b60006001600160a01b0384163b15611ba657604051630a85bd0160e11b81526001600160a01b0385169063150b7a0290611ae89033908990889088906004016120af565b602060405180830381600087803b158015611b0257600080fd5b505af1925050508015611b32575060408051601f3d908101601f19168201909252611b2f91810190611fa9565b60015b611b8c573d808015611b60576040519150601f19603f3d011682016040523d82523d6000602084013e611b65565b606091505b508051611b845760405162461bcd60e51b815260040161056c906121f7565b805181602001fd5b6001600160e01b031916630a85bd0160e11b1490506112f4565b506001949350505050565b606081611bd55750506040805180820190915260018152600360fc1b602082015290565b8160005b8115611bff5780611be981612388565b9150611bf89050600a836122f6565b9150611bd9565b60008167ffffffffffffffff811115611c2857634e487b7160e01b600052604160045260246000fd5b6040519080825280601f01601f191660200182016040528015611c52576020820181803683370190505b5090505b84156112f457611c6760018361230a565b9150611c74600a866123a3565b611c7f9060306122de565b60f81b818381518110611ca257634e487b7160e01b600052603260045260246000fd5b60200101906001600160f81b031916908160001a905350611cc4600a866122f6565b9450611c56565b6040805160c0810182526000808252602082018190529181018290526060808201839052608082015260a081019190915290565b828054611d0b9061234d565b90600052602060002090601f016020900481019282611d2d5760008555611d73565b82601f10611d4657805160ff1916838001178555611d73565b82800160010185558215611d73579182015b82811115611d73578251825591602001919060010190611d58565b50611d7f929150611d83565b5090565b5b80821115611d7f5760008155600101611d84565b600067ffffffffffffffff80841115611db357611db36123e3565b604051601f8501601f19908116603f01168101908282118183101715611ddb57611ddb6123e3565b81604052809350858152868686011115611df457600080fd5b858560208301376000602087830101525050509392505050565b80356001600160a01b0381168114611e2557600080fd5b919050565b600060208284031215611e3b578081fd5b610f3882611e0e565b60008060408385031215611e56578081fd5b611e5f83611e0e565b9150611e6d60208401611e0e565b90509250929050565b600080600060608486031215611e8a578081fd5b611e9384611e0e565b9250611ea160208501611e0e565b9150604084013590509250925092565b60008060008060808587031215611ec6578081fd5b611ecf85611e0e565b9350611edd60208601611e0e565b925060408501359150606085013567ffffffffffffffff811115611eff578182fd5b8501601f81018713611f0f578182fd5b611f1e87823560208401611d98565b91505092959194509250565b60008060408385031215611f3c578182fd5b611f4583611e0e565b915060208301358015158114611f59578182fd5b809150509250929050565b60008060408385031215611f76578182fd5b611f7f83611e0e565b946020939093013593505050565b600060208284031215611f9e578081fd5b8135610f38816123f9565b600060208284031215611fba578081fd5b8151610f38816123f9565b60008060408385031215611fd7578182fd5b823567ffffffffffffffff811115611fed578283fd5b8301601f81018513611ffd578283fd5b61200c85823560208401611d98565b95602094909401359450505050565b60006020828403121561202c578081fd5b5035919050565b60008060408385031215612045578182fd5b50508035926020909101359150565b6000815180845261206c816020860160208601612321565b601f01601f19169290920160200192915050565b60008351612092818460208801612321565b8351908301906120a6818360208801612321565b01949350505050565b6001600160a01b03858116825284166020820152604081018390526080606082018190526000906120e290830184612054565b9695505050505050565b6001600160a01b038681168252851660208201526040810184905260a06060820181905260009061211f90830185612054565b905082151560808301529695505050505050565b60006020808301818452808551808352604092508286019150828160051b870101848801865b838110156121d657888303603f19018552815180518452878101516001600160a01b03908116898601528782015116878501526060808201519085015260808082015160c082870181905291906121b283880182612054565b60a09485015115159790940196909652505094870194925090860190600101612159565b509098975050505050505050565b602081526000610f386020830184612054565b60208082526032908201527f4552433732313a207472616e7366657220746f206e6f6e20455243373231526560408201527131b2b4bb32b91034b6b83632b6b2b73a32b960711b606082015260800190565b60208082526024908201527f5072696365206d75737420626520657175616c20746f206c697374696e6720706040820152637269636560e01b606082015260800190565b60208082526031908201527f4552433732313a207472616e736665722063616c6c6572206973206e6f74206f6040820152701ddb995c881b9bdc88185c1c1c9bdd9959607a1b606082015260800190565b600082198211156122f1576122f16123b7565b500190565b600082612305576123056123cd565b500490565b60008282101561231c5761231c6123b7565b500390565b60005b8381101561233c578181015183820152602001612324565b838111156110075750506000910152565b600181811c9082168061236157607f821691505b6020821081141561238257634e487b7160e01b600052602260045260246000fd5b50919050565b600060001982141561239c5761239c6123b7565b5060010190565b6000826123b2576123b26123cd565b500690565b634e487b7160e01b600052601160045260246000fd5b634e487b7160e01b600052601260045260246000fd5b634e487b7160e01b600052604160045260246000fd5b6001600160e01b03198116811461240f57600080fd5b5056fea2646970667358221220a735317057060b46f4504f3b307f319e6b1b6a2a243ff57a7e08ebd507d6766e64736f6c63430008040033",
  "linkReferences": {},
  "deployedLinkReferences": {}
}